{
  "_format": "hh-sol-artifact-1",
  "contractName": "MintBook",
  "sourceName": "contracts/mintBook.sol",
  "abi": [
    {
      "inputs": [],
      "stateMutability": "nonpayable",
      "type": "constructor"
    },
    {
      "anonymous": false,
      "inputs": [
        {
          "indexed": true,
          "internalType": "address",
          "name": "account",
          "type": "address"
        },
        {
          "indexed": true,
          "internalType": "address",
          "name": "operator",
          "type": "address"
        },
        {
          "indexed": false,
          "internalType": "bool",
          "name": "approved",
          "type": "bool"
        }
      ],
      "name": "ApprovalForAll",
      "type": "event"
    },
    {
      "anonymous": false,
      "inputs": [
        {
          "indexed": true,
          "internalType": "address",
          "name": "operator",
          "type": "address"
        },
        {
          "indexed": true,
          "internalType": "address",
          "name": "from",
          "type": "address"
        },
        {
          "indexed": true,
          "internalType": "address",
          "name": "to",
          "type": "address"
        },
        {
          "indexed": false,
          "internalType": "uint256[]",
          "name": "ids",
          "type": "uint256[]"
        },
        {
          "indexed": false,
          "internalType": "uint256[]",
          "name": "values",
          "type": "uint256[]"
        }
      ],
      "name": "TransferBatch",
      "type": "event"
    },
    {
      "anonymous": false,
      "inputs": [
        {
          "indexed": true,
          "internalType": "address",
          "name": "operator",
          "type": "address"
        },
        {
          "indexed": true,
          "internalType": "address",
          "name": "from",
          "type": "address"
        },
        {
          "indexed": true,
          "internalType": "address",
          "name": "to",
          "type": "address"
        },
        {
          "indexed": false,
          "internalType": "uint256",
          "name": "id",
          "type": "uint256"
        },
        {
          "indexed": false,
          "internalType": "uint256",
          "name": "value",
          "type": "uint256"
        }
      ],
      "name": "TransferSingle",
      "type": "event"
    },
    {
      "anonymous": false,
      "inputs": [
        {
          "indexed": false,
          "internalType": "string",
          "name": "value",
          "type": "string"
        },
        {
          "indexed": true,
          "internalType": "uint256",
          "name": "id",
          "type": "uint256"
        }
      ],
      "name": "URI",
      "type": "event"
    },
    {
      "inputs": [
        {
          "internalType": "address",
          "name": "account",
          "type": "address"
        },
        {
          "internalType": "uint256",
          "name": "id",
          "type": "uint256"
        }
      ],
      "name": "balanceOf",
      "outputs": [
        {
          "internalType": "uint256",
          "name": "",
          "type": "uint256"
        }
      ],
      "stateMutability": "view",
      "type": "function"
    },
    {
      "inputs": [
        {
          "internalType": "address[]",
          "name": "accounts",
          "type": "address[]"
        },
        {
          "internalType": "uint256[]",
          "name": "ids",
          "type": "uint256[]"
        }
      ],
      "name": "balanceOfBatch",
      "outputs": [
        {
          "internalType": "uint256[]",
          "name": "",
          "type": "uint256[]"
        }
      ],
      "stateMutability": "view",
      "type": "function"
    },
    {
      "inputs": [],
      "name": "baseURI",
      "outputs": [
        {
          "internalType": "string",
          "name": "",
          "type": "string"
        }
      ],
      "stateMutability": "view",
      "type": "function"
    },
    {
      "inputs": [],
      "name": "bookIds",
      "outputs": [
        {
          "internalType": "uint256",
          "name": "_value",
          "type": "uint256"
        }
      ],
      "stateMutability": "view",
      "type": "function"
    },
    {
      "inputs": [
        {
          "internalType": "uint256",
          "name": "",
          "type": "uint256"
        }
      ],
      "name": "books",
      "outputs": [
        {
          "internalType": "uint256",
          "name": "price",
          "type": "uint256"
        },
        {
          "internalType": "string",
          "name": "URI",
          "type": "string"
        },
        {
          "internalType": "address",
          "name": "author",
          "type": "address"
        }
      ],
      "stateMutability": "view",
      "type": "function"
    },
    {
      "inputs": [
        {
          "internalType": "uint256",
          "name": "_bookId",
          "type": "uint256"
        }
      ],
      "name": "buy",
      "outputs": [
        {
          "internalType": "bool",
          "name": "",
          "type": "bool"
        }
      ],
      "stateMutability": "payable",
      "type": "function"
    },
    {
      "inputs": [
        {
          "internalType": "address",
          "name": "account",
          "type": "address"
        },
        {
          "internalType": "address",
          "name": "operator",
          "type": "address"
        }
      ],
      "name": "isApprovedForAll",
      "outputs": [
        {
          "internalType": "bool",
          "name": "",
          "type": "bool"
        }
      ],
      "stateMutability": "view",
      "type": "function"
    },
    {
      "inputs": [
        {
          "internalType": "uint256",
          "name": "_quantity",
          "type": "uint256"
        },
        {
          "internalType": "string",
          "name": "_URI",
          "type": "string"
        },
        {
          "internalType": "uint256",
          "name": "_price",
          "type": "uint256"
        }
      ],
      "name": "mintABook",
      "outputs": [
        {
          "internalType": "uint256",
          "name": "",
          "type": "uint256"
        }
      ],
      "stateMutability": "nonpayable",
      "type": "function"
    },
    {
      "inputs": [
        {
          "internalType": "address",
          "name": "from",
          "type": "address"
        },
        {
          "internalType": "address",
          "name": "to",
          "type": "address"
        },
        {
          "internalType": "uint256[]",
          "name": "ids",
          "type": "uint256[]"
        },
        {
          "internalType": "uint256[]",
          "name": "amounts",
          "type": "uint256[]"
        },
        {
          "internalType": "bytes",
          "name": "data",
          "type": "bytes"
        }
      ],
      "name": "safeBatchTransferFrom",
      "outputs": [],
      "stateMutability": "nonpayable",
      "type": "function"
    },
    {
      "inputs": [
        {
          "internalType": "address",
          "name": "from",
          "type": "address"
        },
        {
          "internalType": "address",
          "name": "to",
          "type": "address"
        },
        {
          "internalType": "uint256",
          "name": "id",
          "type": "uint256"
        },
        {
          "internalType": "uint256",
          "name": "amount",
          "type": "uint256"
        },
        {
          "internalType": "bytes",
          "name": "data",
          "type": "bytes"
        }
      ],
      "name": "safeTransferFrom",
      "outputs": [],
      "stateMutability": "nonpayable",
      "type": "function"
    },
    {
      "inputs": [
        {
          "internalType": "address",
          "name": "operator",
          "type": "address"
        },
        {
          "internalType": "bool",
          "name": "approved",
          "type": "bool"
        }
      ],
      "name": "setApprovalForAll",
      "outputs": [],
      "stateMutability": "nonpayable",
      "type": "function"
    },
    {
      "inputs": [
        {
          "internalType": "bytes4",
          "name": "interfaceId",
          "type": "bytes4"
        }
      ],
      "name": "supportsInterface",
      "outputs": [
        {
          "internalType": "bool",
          "name": "",
          "type": "bool"
        }
      ],
      "stateMutability": "view",
      "type": "function"
    },
    {
      "inputs": [
        {
          "internalType": "uint256",
          "name": "_tokenId",
          "type": "uint256"
        }
      ],
      "name": "tokenURI",
      "outputs": [
        {
          "internalType": "string",
          "name": "",
          "type": "string"
        }
      ],
      "stateMutability": "view",
      "type": "function"
    },
    {
      "inputs": [
        {
          "internalType": "uint256",
          "name": "",
          "type": "uint256"
        }
      ],
      "name": "uri",
      "outputs": [
        {
          "internalType": "string",
          "name": "",
          "type": "string"
        }
      ],
      "stateMutability": "view",
      "type": "function"
    },
    {
      "stateMutability": "payable",
      "type": "receive"
    }
  ],
  "bytecode": "0x60806040523480156200001157600080fd5b506040518060200160405280600081525062000033816200003a60201b60201c565b506200016b565b80600290805190602001906200005292919062000056565b5050565b828054620000649062000106565b90600052602060002090601f016020900481019282620000885760008555620000d4565b82601f10620000a357805160ff1916838001178555620000d4565b82800160010185558215620000d4579182015b82811115620000d3578251825591602001919060010190620000b6565b5b509050620000e39190620000e7565b5090565b5b8082111562000102576000816000905550600101620000e8565b5090565b600060028204905060018216806200011f57607f821691505b602082108114156200013657620001356200013c565b5b50919050565b7f4e487b7100000000000000000000000000000000000000000000000000000000600052602260045260246000fd5b613106806200017b6000396000f3fe6080604052600436106100e05760003560e01c8063687440461161007f578063c87b56dd11610059578063c87b56dd14610304578063d96a094a14610341578063e985e9c514610371578063f242432a146103ae576100e7565b806368744046146102715780636c0360eb146102b0578063a22cb465146102db576100e7565b80632eb2c2d6116100bb5780632eb2c2d6146101a357806348e3f0eb146101cc5780634e1273f4146101f75780634fc3c4fc14610234576100e7565b8062fdd58e146100ec57806301ffc9a7146101295780630e89341c14610166576100e7565b366100e757005b600080fd5b3480156100f857600080fd5b50610113600480360381019061010e9190612128565b6103d7565b6040516101209190612bb0565b60405180910390f35b34801561013557600080fd5b50610150600480360381019061014b91906121d0565b6104a0565b60405161015d91906129d3565b60405180910390f35b34801561017257600080fd5b5061018d60048036038101906101889190612222565b610582565b60405161019a91906129ee565b60405180910390f35b3480156101af57600080fd5b506101ca60048036038101906101c59190611f9e565b610616565b005b3480156101d857600080fd5b506101e16106b7565b6040516101ee9190612bb0565b60405180910390f35b34801561020357600080fd5b5061021e60048036038101906102199190612164565b6106c3565b60405161022b919061297a565b60405180910390f35b34801561024057600080fd5b5061025b6004803603810190610256919061224b565b610874565b6040516102689190612bb0565b60405180910390f35b34801561027d57600080fd5b5061029860048036038101906102939190612222565b610968565b6040516102a793929190612bcb565b60405180910390f35b3480156102bc57600080fd5b506102c5610a3a565b6040516102d291906129ee565b60405180910390f35b3480156102e757600080fd5b5061030260048036038101906102fd91906120ec565b610ac8565b005b34801561031057600080fd5b5061032b60048036038101906103269190612222565b610ade565b60405161033891906129ee565b60405180910390f35b61035b60048036038101906103569190612222565b610b86565b60405161036891906129d3565b60405180910390f35b34801561037d57600080fd5b5061039860048036038101906103939190611f62565b610d29565b6040516103a591906129d3565b60405180910390f35b3480156103ba57600080fd5b506103d560048036038101906103d0919061205d565b610dbd565b005b60008073ffffffffffffffffffffffffffffffffffffffff168373ffffffffffffffffffffffffffffffffffffffff161415610448576040517f08c379a000000000000000000000000000000000000000000000000000000000815260040161043f90612a50565b60405180910390fd5b60008083815260200190815260200160002060008473ffffffffffffffffffffffffffffffffffffffff1673ffffffffffffffffffffffffffffffffffffffff16815260200190815260200160002054905092915050565b60007fd9b67a26000000000000000000000000000000000000000000000000000000007bffffffffffffffffffffffffffffffffffffffffffffffffffffffff1916827bffffffffffffffffffffffffffffffffffffffffffffffffffffffff1916148061056b57507f0e89341c000000000000000000000000000000000000000000000000000000007bffffffffffffffffffffffffffffffffffffffffffffffffffffffff1916827bffffffffffffffffffffffffffffffffffffffffffffffffffffffff1916145b8061057b575061057a82610e5e565b5b9050919050565b60606002805461059190612e98565b80601f01602080910402602001604051908101604052809291908181526020018280546105bd90612e98565b801561060a5780601f106105df5761010080835404028352916020019161060a565b820191906000526020600020905b8154815290600101906020018083116105ed57829003601f168201915b50505050509050919050565b61061e610ec8565b73ffffffffffffffffffffffffffffffffffffffff168573ffffffffffffffffffffffffffffffffffffffff16148061066457506106638561065e610ec8565b610d29565b5b6106a3576040517f08c379a000000000000000000000000000000000000000000000000000000000815260040161069a90612ad0565b60405180910390fd5b6106b08585858585610ed0565b5050505050565b60038060000154905081565b60608151835114610709576040517f08c379a000000000000000000000000000000000000000000000000000000000815260040161070090612b50565b60405180910390fd5b6000835167ffffffffffffffff81111561074c577f4e487b7100000000000000000000000000000000000000000000000000000000600052604160045260246000fd5b60405190808252806020026020018201604052801561077a5781602001602082028036833780820191505090505b50905060005b8451811015610869576108138582815181106107c5577f4e487b7100000000000000000000000000000000000000000000000000000000600052603260045260246000fd5b6020026020010151858381518110610806577f4e487b7100000000000000000000000000000000000000000000000000000000600052603260045260246000fd5b60200260200101516103d7565b82828151811061084c577f4e487b7100000000000000000000000000000000000000000000000000000000600052603260045260246000fd5b6020026020010181815250508061086290612eca565b9050610780565b508091505092915050565b6000806108816003611230565b905060405180606001604052808481526020018581526020013373ffffffffffffffffffffffffffffffffffffffff16815250600560008381526020019081526020016000206000820151816000015560208201518160010190805190602001906108ed929190611c5a565b5060408201518160020160006101000a81548173ffffffffffffffffffffffffffffffffffffffff021916908373ffffffffffffffffffffffffffffffffffffffff1602179055509050506109533382876040518060200160405280600081525061123e565b61095d60036113d4565b809150509392505050565b600560205280600052604060002060009150905080600001549080600101805461099190612e98565b80601f01602080910402602001604051908101604052809291908181526020018280546109bd90612e98565b8015610a0a5780601f106109df57610100808354040283529160200191610a0a565b820191906000526020600020905b8154815290600101906020018083116109ed57829003601f168201915b5050505050908060020160009054906101000a900473ffffffffffffffffffffffffffffffffffffffff16905083565b60048054610a4790612e98565b80601f0160208091040260200160405190810160405280929190818152602001828054610a7390612e98565b8015610ac05780601f10610a9557610100808354040283529160200191610ac0565b820191906000526020600020905b815481529060010190602001808311610aa357829003601f168201915b505050505081565b610ada610ad3610ec8565b83836113ea565b5050565b6060600560008381526020019081526020016000206001018054610b0190612e98565b80601f0160208091040260200160405190810160405280929190818152602001828054610b2d90612e98565b8015610b7a5780601f10610b4f57610100808354040283529160200191610b7a565b820191906000526020600020905b815481529060010190602001808311610b5d57829003601f168201915b50505050509050919050565b600060056000838152602001908152602001600020600001543414610be0576040517f08c379a0000000000000000000000000000000000000000000000000000000008152600401610bd790612a90565b60405180910390fd5b600073ffffffffffffffffffffffffffffffffffffffff163373ffffffffffffffffffffffffffffffffffffffff161415610c50576040517f08c379a0000000000000000000000000000000000000000000000000000000008152600401610c4790612af0565b60405180910390fd5b610ca36005600084815260200190815260200160002060020160009054906101000a900473ffffffffffffffffffffffffffffffffffffffff163384600160405180602001604052806000815250610dbd565b6005600083815260200190815260200160002060020160009054906101000a900473ffffffffffffffffffffffffffffffffffffffff1673ffffffffffffffffffffffffffffffffffffffff166108fc349081150290604051600060405180830381858888f19350505050158015610d1f573d6000803e3d6000fd5b5060019050919050565b6000600160008473ffffffffffffffffffffffffffffffffffffffff1673ffffffffffffffffffffffffffffffffffffffff16815260200190815260200160002060008373ffffffffffffffffffffffffffffffffffffffff1673ffffffffffffffffffffffffffffffffffffffff16815260200190815260200160002060009054906101000a900460ff16905092915050565b610dc5610ec8565b73ffffffffffffffffffffffffffffffffffffffff168573ffffffffffffffffffffffffffffffffffffffff161480610e0b5750610e0a85610e05610ec8565b610d29565b5b610e4a576040517f08c379a0000000000000000000000000000000000000000000000000000000008152600401610e4190612a70565b60405180910390fd5b610e578585858585611557565b5050505050565b60007f01ffc9a7000000000000000000000000000000000000000000000000000000007bffffffffffffffffffffffffffffffffffffffffffffffffffffffff1916827bffffffffffffffffffffffffffffffffffffffffffffffffffffffff1916149050919050565b600033905090565b8151835114610f14576040517f08c379a0000000000000000000000000000000000000000000000000000000008152600401610f0b90612b70565b60405180910390fd5b600073ffffffffffffffffffffffffffffffffffffffff168473ffffffffffffffffffffffffffffffffffffffff161415610f84576040517f08c379a0000000000000000000000000000000000000000000000000000000008152600401610f7b90612ab0565b60405180910390fd5b6000610f8e610ec8565b9050610f9e8187878787876117d9565b60005b845181101561119b576000858281518110610fe5577f4e487b7100000000000000000000000000000000000000000000000000000000600052603260045260246000fd5b60200260200101519050600085838151811061102a577f4e487b7100000000000000000000000000000000000000000000000000000000600052603260045260246000fd5b60200260200101519050600080600084815260200190815260200160002060008b73ffffffffffffffffffffffffffffffffffffffff1673ffffffffffffffffffffffffffffffffffffffff168152602001908152602001600020549050818110156110cb576040517f08c379a00000000000000000000000000000000000000000000000000000000081526004016110c290612b10565b60405180910390fd5b81810360008085815260200190815260200160002060008c73ffffffffffffffffffffffffffffffffffffffff1673ffffffffffffffffffffffffffffffffffffffff168152602001908152602001600020819055508160008085815260200190815260200160002060008b73ffffffffffffffffffffffffffffffffffffffff1673ffffffffffffffffffffffffffffffffffffffff16815260200190815260200160002060008282546111809190612d8c565b925050819055505050508061119490612eca565b9050610fa1565b508473ffffffffffffffffffffffffffffffffffffffff168673ffffffffffffffffffffffffffffffffffffffff168273ffffffffffffffffffffffffffffffffffffffff167f4a39dc06d4c0dbc64b70af90fd698a233a518aa5d07e595d983b8c0526c8f7fb878760405161121292919061299c565b60405180910390a46112288187878787876117e1565b505050505050565b600081600001549050919050565b600073ffffffffffffffffffffffffffffffffffffffff168473ffffffffffffffffffffffffffffffffffffffff1614156112ae576040517f08c379a00000000000000000000000000000000000000000000000000000000081526004016112a590612b90565b60405180910390fd5b60006112b8610ec8565b90506112d9816000876112ca886119b1565b6112d3886119b1565b876117d9565b8260008086815260200190815260200160002060008773ffffffffffffffffffffffffffffffffffffffff1673ffffffffffffffffffffffffffffffffffffffff16815260200190815260200160002060008282546113389190612d8c565b925050819055508473ffffffffffffffffffffffffffffffffffffffff16600073ffffffffffffffffffffffffffffffffffffffff168273ffffffffffffffffffffffffffffffffffffffff167fc3d58168c5ae7397731d063d5bbf3d657854427343f4c083240f7aacaa2d0f6287876040516113b6929190612c09565b60405180910390a46113cd81600087878787611a77565b5050505050565b6001816000016000828254019250508190555050565b8173ffffffffffffffffffffffffffffffffffffffff168373ffffffffffffffffffffffffffffffffffffffff161415611459576040517f08c379a000000000000000000000000000000000000000000000000000000000815260040161145090612b30565b60405180910390fd5b80600160008573ffffffffffffffffffffffffffffffffffffffff1673ffffffffffffffffffffffffffffffffffffffff16815260200190815260200160002060008473ffffffffffffffffffffffffffffffffffffffff1673ffffffffffffffffffffffffffffffffffffffff16815260200190815260200160002060006101000a81548160ff0219169083151502179055508173ffffffffffffffffffffffffffffffffffffffff168373ffffffffffffffffffffffffffffffffffffffff167f17307eab39ab6107e8899845ad3d59bd9653f200f220920489ca2b5937696c318360405161154a91906129d3565b60405180910390a3505050565b600073ffffffffffffffffffffffffffffffffffffffff168473ffffffffffffffffffffffffffffffffffffffff1614156115c7576040517f08c379a00000000000000000000000000000000000000000000000000000000081526004016115be90612ab0565b60405180910390fd5b60006115d1610ec8565b90506115f18187876115e2886119b1565b6115eb886119b1565b876117d9565b600080600086815260200190815260200160002060008873ffffffffffffffffffffffffffffffffffffffff1673ffffffffffffffffffffffffffffffffffffffff16815260200190815260200160002054905083811015611688576040517f08c379a000000000000000000000000000000000000000000000000000000000815260040161167f90612b10565b60405180910390fd5b83810360008087815260200190815260200160002060008973ffffffffffffffffffffffffffffffffffffffff1673ffffffffffffffffffffffffffffffffffffffff168152602001908152602001600020819055508360008087815260200190815260200160002060008873ffffffffffffffffffffffffffffffffffffffff1673ffffffffffffffffffffffffffffffffffffffff168152602001908152602001600020600082825461173d9190612d8c565b925050819055508573ffffffffffffffffffffffffffffffffffffffff168773ffffffffffffffffffffffffffffffffffffffff168373ffffffffffffffffffffffffffffffffffffffff167fc3d58168c5ae7397731d063d5bbf3d657854427343f4c083240f7aacaa2d0f6288886040516117ba929190612c09565b60405180910390a46117d0828888888888611a77565b50505050505050565b505050505050565b6118008473ffffffffffffffffffffffffffffffffffffffff16611c47565b156119a9578373ffffffffffffffffffffffffffffffffffffffff1663bc197c8187878686866040518663ffffffff1660e01b81526004016118469594939291906128b8565b602060405180830381600087803b15801561186057600080fd5b505af192505050801561189157506040513d601f19601f8201168201806040525081019061188e91906121f9565b60015b6119205761189d612fbe565b806118a857506118e5565b806040517f08c379a00000000000000000000000000000000000000000000000000000000081526004016118dc91906129ee565b60405180910390fd5b6040517f08c379a000000000000000000000000000000000000000000000000000000000815260040161191790612a10565b60405180910390fd5b63bc197c8160e01b7bffffffffffffffffffffffffffffffffffffffffffffffffffffffff1916817bffffffffffffffffffffffffffffffffffffffffffffffffffffffff1916146119a7576040517f08c379a000000000000000000000000000000000000000000000000000000000815260040161199e90612a30565b60405180910390fd5b505b505050505050565b60606000600167ffffffffffffffff8111156119f6577f4e487b7100000000000000000000000000000000000000000000000000000000600052604160045260246000fd5b604051908082528060200260200182016040528015611a245781602001602082028036833780820191505090505b5090508281600081518110611a62577f4e487b7100000000000000000000000000000000000000000000000000000000600052603260045260246000fd5b60200260200101818152505080915050919050565b611a968473ffffffffffffffffffffffffffffffffffffffff16611c47565b15611c3f578373ffffffffffffffffffffffffffffffffffffffff1663f23a6e6187878686866040518663ffffffff1660e01b8152600401611adc959493929190612920565b602060405180830381600087803b158015611af657600080fd5b505af1925050508015611b2757506040513d601f19601f82011682018060405250810190611b2491906121f9565b60015b611bb657611b33612fbe565b80611b3e5750611b7b565b806040517f08c379a0000000000000000000000000000000000000000000000000000000008152600401611b7291906129ee565b60405180910390fd5b6040517f08c379a0000000000000000000000000000000000000000000000000000000008152600401611bad90612a10565b60405180910390fd5b63f23a6e6160e01b7bffffffffffffffffffffffffffffffffffffffffffffffffffffffff1916817bffffffffffffffffffffffffffffffffffffffffffffffffffffffff191614611c3d576040517f08c379a0000000000000000000000000000000000000000000000000000000008152600401611c3490612a30565b60405180910390fd5b505b505050505050565b600080823b905060008111915050919050565b828054611c6690612e98565b90600052602060002090601f016020900481019282611c885760008555611ccf565b82601f10611ca157805160ff1916838001178555611ccf565b82800160010185558215611ccf579182015b82811115611cce578251825591602001919060010190611cb3565b5b509050611cdc9190611ce0565b5090565b5b80821115611cf9576000816000905550600101611ce1565b5090565b6000611d10611d0b84612c63565b612c32565b90508083825260208201905082856020860282011115611d2f57600080fd5b60005b85811015611d5f5781611d458882611e51565b845260208401935060208301925050600181019050611d32565b5050509392505050565b6000611d7c611d7784612c8f565b612c32565b90508083825260208201905082856020860282011115611d9b57600080fd5b60005b85811015611dcb5781611db18882611f4d565b845260208401935060208301925050600181019050611d9e565b5050509392505050565b6000611de8611de384612cbb565b612c32565b905082815260208101848484011115611e0057600080fd5b611e0b848285612e56565b509392505050565b6000611e26611e2184612ceb565b612c32565b905082815260208101848484011115611e3e57600080fd5b611e49848285612e56565b509392505050565b600081359050611e6081613074565b92915050565b600082601f830112611e7757600080fd5b8135611e87848260208601611cfd565b91505092915050565b600082601f830112611ea157600080fd5b8135611eb1848260208601611d69565b91505092915050565b600081359050611ec98161308b565b92915050565b600081359050611ede816130a2565b92915050565b600081519050611ef3816130a2565b92915050565b600082601f830112611f0a57600080fd5b8135611f1a848260208601611dd5565b91505092915050565b600082601f830112611f3457600080fd5b8135611f44848260208601611e13565b91505092915050565b600081359050611f5c816130b9565b92915050565b60008060408385031215611f7557600080fd5b6000611f8385828601611e51565b9250506020611f9485828601611e51565b9150509250929050565b600080600080600060a08688031215611fb657600080fd5b6000611fc488828901611e51565b9550506020611fd588828901611e51565b945050604086013567ffffffffffffffff811115611ff257600080fd5b611ffe88828901611e90565b935050606086013567ffffffffffffffff81111561201b57600080fd5b61202788828901611e90565b925050608086013567ffffffffffffffff81111561204457600080fd5b61205088828901611ef9565b9150509295509295909350565b600080600080600060a0868803121561207557600080fd5b600061208388828901611e51565b955050602061209488828901611e51565b94505060406120a588828901611f4d565b93505060606120b688828901611f4d565b925050608086013567ffffffffffffffff8111156120d357600080fd5b6120df88828901611ef9565b9150509295509295909350565b600080604083850312156120ff57600080fd5b600061210d85828601611e51565b925050602061211e85828601611eba565b9150509250929050565b6000806040838503121561213b57600080fd5b600061214985828601611e51565b925050602061215a85828601611f4d565b9150509250929050565b6000806040838503121561217757600080fd5b600083013567ffffffffffffffff81111561219157600080fd5b61219d85828601611e66565b925050602083013567ffffffffffffffff8111156121ba57600080fd5b6121c685828601611e90565b9150509250929050565b6000602082840312156121e257600080fd5b60006121f084828501611ecf565b91505092915050565b60006020828403121561220b57600080fd5b600061221984828501611ee4565b91505092915050565b60006020828403121561223457600080fd5b600061224284828501611f4d565b91505092915050565b60008060006060848603121561226057600080fd5b600061226e86828701611f4d565b935050602084013567ffffffffffffffff81111561228b57600080fd5b61229786828701611f23565b92505060406122a886828701611f4d565b9150509250925092565b60006122be838361289a565b60208301905092915050565b6122d381612de2565b82525050565b60006122e482612d2b565b6122ee8185612d59565b93506122f983612d1b565b8060005b8381101561232a57815161231188826122b2565b975061231c83612d4c565b9250506001810190506122fd565b5085935050505092915050565b61234081612df4565b82525050565b600061235182612d36565b61235b8185612d6a565b935061236b818560208601612e65565b61237481612fa0565b840191505092915050565b600061238a82612d41565b6123948185612d7b565b93506123a4818560208601612e65565b6123ad81612fa0565b840191505092915050565b60006123c5603483612d7b565b91507f455243313135353a207472616e7366657220746f206e6f6e204552433131353560008301527f526563656976657220696d706c656d656e7465720000000000000000000000006020830152604082019050919050565b600061242b602883612d7b565b91507f455243313135353a204552433131353552656365697665722072656a6563746560008301527f6420746f6b656e730000000000000000000000000000000000000000000000006020830152604082019050919050565b6000612491602b83612d7b565b91507f455243313135353a2062616c616e636520717565727920666f7220746865207a60008301527f65726f20616464726573730000000000000000000000000000000000000000006020830152604082019050919050565b60006124f7602983612d7b565b91507f455243313135353a2063616c6c6572206973206e6f74206f776e6572206e6f7260008301527f20617070726f76656400000000000000000000000000000000000000000000006020830152604082019050919050565b600061255d600e83612d7b565b91507f4e6f7420656e6f756768206574680000000000000000000000000000000000006000830152602082019050919050565b600061259d602583612d7b565b91507f455243313135353a207472616e7366657220746f20746865207a65726f20616460008301527f64726573730000000000000000000000000000000000000000000000000000006020830152604082019050919050565b6000612603603283612d7b565b91507f455243313135353a207472616e736665722063616c6c6572206973206e6f742060008301527f6f776e6572206e6f7220617070726f76656400000000000000000000000000006020830152604082019050919050565b6000612669601883612d7b565b91507f43616e6e6f742068617665207a65726f206164647265737300000000000000006000830152602082019050919050565b60006126a9602a83612d7b565b91507f455243313135353a20696e73756666696369656e742062616c616e636520666f60008301527f72207472616e73666572000000000000000000000000000000000000000000006020830152604082019050919050565b600061270f602983612d7b565b91507f455243313135353a2073657474696e6720617070726f76616c2073746174757360008301527f20666f722073656c6600000000000000000000000000000000000000000000006020830152604082019050919050565b6000612775602983612d7b565b91507f455243313135353a206163636f756e747320616e6420696473206c656e67746860008301527f206d69736d6174636800000000000000000000000000000000000000000000006020830152604082019050919050565b60006127db602883612d7b565b91507f455243313135353a2069647320616e6420616d6f756e7473206c656e6774682060008301527f6d69736d617463680000000000000000000000000000000000000000000000006020830152604082019050919050565b6000612841602183612d7b565b91507f455243313135353a206d696e7420746f20746865207a65726f2061646472657360008301527f73000000000000000000000000000000000000000000000000000000000000006020830152604082019050919050565b6128a381612e4c565b82525050565b6128b281612e4c565b82525050565b600060a0820190506128cd60008301886122ca565b6128da60208301876122ca565b81810360408301526128ec81866122d9565b9050818103606083015261290081856122d9565b905081810360808301526129148184612346565b90509695505050505050565b600060a08201905061293560008301886122ca565b61294260208301876122ca565b61294f60408301866128a9565b61295c60608301856128a9565b818103608083015261296e8184612346565b90509695505050505050565b6000602082019050818103600083015261299481846122d9565b905092915050565b600060408201905081810360008301526129b681856122d9565b905081810360208301526129ca81846122d9565b90509392505050565b60006020820190506129e86000830184612337565b92915050565b60006020820190508181036000830152612a08818461237f565b905092915050565b60006020820190508181036000830152612a29816123b8565b9050919050565b60006020820190508181036000830152612a498161241e565b9050919050565b60006020820190508181036000830152612a6981612484565b9050919050565b60006020820190508181036000830152612a89816124ea565b9050919050565b60006020820190508181036000830152612aa981612550565b9050919050565b60006020820190508181036000830152612ac981612590565b9050919050565b60006020820190508181036000830152612ae9816125f6565b9050919050565b60006020820190508181036000830152612b098161265c565b9050919050565b60006020820190508181036000830152612b298161269c565b9050919050565b60006020820190508181036000830152612b4981612702565b9050919050565b60006020820190508181036000830152612b6981612768565b9050919050565b60006020820190508181036000830152612b89816127ce565b9050919050565b60006020820190508181036000830152612ba981612834565b9050919050565b6000602082019050612bc560008301846128a9565b92915050565b6000606082019050612be060008301866128a9565b8181036020830152612bf2818561237f565b9050612c0160408301846122ca565b949350505050565b6000604082019050612c1e60008301856128a9565b612c2b60208301846128a9565b9392505050565b6000604051905081810181811067ffffffffffffffff82111715612c5957612c58612f71565b5b8060405250919050565b600067ffffffffffffffff821115612c7e57612c7d612f71565b5b602082029050602081019050919050565b600067ffffffffffffffff821115612caa57612ca9612f71565b5b602082029050602081019050919050565b600067ffffffffffffffff821115612cd657612cd5612f71565b5b601f19601f8301169050602081019050919050565b600067ffffffffffffffff821115612d0657612d05612f71565b5b601f19601f8301169050602081019050919050565b6000819050602082019050919050565b600081519050919050565b600081519050919050565b600081519050919050565b6000602082019050919050565b600082825260208201905092915050565b600082825260208201905092915050565b600082825260208201905092915050565b6000612d9782612e4c565b9150612da283612e4c565b9250827fffffffffffffffffffffffffffffffffffffffffffffffffffffffffffffffff03821115612dd757612dd6612f13565b5b828201905092915050565b6000612ded82612e2c565b9050919050565b60008115159050919050565b60007fffffffff0000000000000000000000000000000000000000000000000000000082169050919050565b600073ffffffffffffffffffffffffffffffffffffffff82169050919050565b6000819050919050565b82818337600083830152505050565b60005b83811015612e83578082015181840152602081019050612e68565b83811115612e92576000848401525b50505050565b60006002820490506001821680612eb057607f821691505b60208210811415612ec457612ec3612f42565b5b50919050565b6000612ed582612e4c565b91507fffffffffffffffffffffffffffffffffffffffffffffffffffffffffffffffff821415612f0857612f07612f13565b5b600182019050919050565b7f4e487b7100000000000000000000000000000000000000000000000000000000600052601160045260246000fd5b7f4e487b7100000000000000000000000000000000000000000000000000000000600052602260045260246000fd5b7f4e487b7100000000000000000000000000000000000000000000000000000000600052604160045260246000fd5b6000601f19601f8301169050919050565b60008160e01c9050919050565b600060443d1015612fce57613071565b60046000803e612fdf600051612fb1565b6308c379a08114612ff05750613071565b60405160043d036004823e80513d602482011167ffffffffffffffff8211171561301c57505050613071565b808201805167ffffffffffffffff81111561303b575050505050613071565b8060208301013d850181111561305657505050505050613071565b61305f82612fa0565b60208401016040528296505050505050505b90565b61307d81612de2565b811461308857600080fd5b50565b61309481612df4565b811461309f57600080fd5b50565b6130ab81612e00565b81146130b657600080fd5b50565b6130c281612e4c565b81146130cd57600080fd5b5056fea26469706673582212208d4ee25f924077d7a5a4287096cddc49ea9fe85571bad250dbe56636fe6cf16664736f6c63430008000033",
  "linkReferences": {},
  "deployedLinkReferences": {}
}