{
  "_format": "hh-sol-artifact-1",
  "contractName": "MintBook",
  "sourceName": "contracts/MintBook.sol",
  "abi": [
    {
      "inputs": [],
      "stateMutability": "nonpayable",
      "type": "constructor"
    },
    {
      "anonymous": false,
      "inputs": [
        {
          "indexed": true,
          "internalType": "address",
          "name": "account",
          "type": "address"
        },
        {
          "indexed": true,
          "internalType": "address",
          "name": "operator",
          "type": "address"
        },
        {
          "indexed": false,
          "internalType": "bool",
          "name": "approved",
          "type": "bool"
        }
      ],
      "name": "ApprovalForAll",
      "type": "event"
    },
    {
      "anonymous": false,
      "inputs": [
        {
          "indexed": true,
          "internalType": "address",
          "name": "operator",
          "type": "address"
        },
        {
          "indexed": true,
          "internalType": "address",
          "name": "from",
          "type": "address"
        },
        {
          "indexed": true,
          "internalType": "address",
          "name": "to",
          "type": "address"
        },
        {
          "indexed": false,
          "internalType": "uint256[]",
          "name": "ids",
          "type": "uint256[]"
        },
        {
          "indexed": false,
          "internalType": "uint256[]",
          "name": "values",
          "type": "uint256[]"
        }
      ],
      "name": "TransferBatch",
      "type": "event"
    },
    {
      "anonymous": false,
      "inputs": [
        {
          "indexed": true,
          "internalType": "address",
          "name": "operator",
          "type": "address"
        },
        {
          "indexed": true,
          "internalType": "address",
          "name": "from",
          "type": "address"
        },
        {
          "indexed": true,
          "internalType": "address",
          "name": "to",
          "type": "address"
        },
        {
          "indexed": false,
          "internalType": "uint256",
          "name": "id",
          "type": "uint256"
        },
        {
          "indexed": false,
          "internalType": "uint256",
          "name": "value",
          "type": "uint256"
        }
      ],
      "name": "TransferSingle",
      "type": "event"
    },
    {
      "anonymous": false,
      "inputs": [
        {
          "indexed": false,
          "internalType": "string",
          "name": "value",
          "type": "string"
        },
        {
          "indexed": true,
          "internalType": "uint256",
          "name": "id",
          "type": "uint256"
        }
      ],
      "name": "URI",
      "type": "event"
    },
    {
      "inputs": [
        {
          "internalType": "address",
          "name": "account",
          "type": "address"
        },
        {
          "internalType": "uint256",
          "name": "id",
          "type": "uint256"
        }
      ],
      "name": "balanceOf",
      "outputs": [
        {
          "internalType": "uint256",
          "name": "",
          "type": "uint256"
        }
      ],
      "stateMutability": "view",
      "type": "function"
    },
    {
      "inputs": [
        {
          "internalType": "address[]",
          "name": "accounts",
          "type": "address[]"
        },
        {
          "internalType": "uint256[]",
          "name": "ids",
          "type": "uint256[]"
        }
      ],
      "name": "balanceOfBatch",
      "outputs": [
        {
          "internalType": "uint256[]",
          "name": "",
          "type": "uint256[]"
        }
      ],
      "stateMutability": "view",
      "type": "function"
    },
    {
      "inputs": [],
      "name": "balanceOfEth",
      "outputs": [
        {
          "internalType": "uint256",
          "name": "",
          "type": "uint256"
        }
      ],
      "stateMutability": "view",
      "type": "function"
    },
    {
      "inputs": [],
      "name": "bookIds",
      "outputs": [
        {
          "internalType": "uint256",
          "name": "_value",
          "type": "uint256"
        }
      ],
      "stateMutability": "view",
      "type": "function"
    },
    {
      "inputs": [
        {
          "internalType": "uint256",
          "name": "",
          "type": "uint256"
        }
      ],
      "name": "books",
      "outputs": [
        {
          "internalType": "uint256",
          "name": "price",
          "type": "uint256"
        },
        {
          "internalType": "string",
          "name": "URI",
          "type": "string"
        },
        {
          "internalType": "address payable",
          "name": "author",
          "type": "address"
        }
      ],
      "stateMutability": "view",
      "type": "function"
    },
    {
      "inputs": [
        {
          "internalType": "uint256",
          "name": "_bookId",
          "type": "uint256"
        }
      ],
      "name": "buy",
      "outputs": [
        {
          "internalType": "bool",
          "name": "",
          "type": "bool"
        }
      ],
      "stateMutability": "payable",
      "type": "function"
    },
    {
      "inputs": [
        {
          "internalType": "address",
          "name": "user",
          "type": "address"
        }
      ],
      "name": "getIds",
      "outputs": [
        {
          "internalType": "uint256[]",
          "name": "",
          "type": "uint256[]"
        }
      ],
      "stateMutability": "view",
      "type": "function"
    },
    {
      "inputs": [
        {
          "internalType": "address",
          "name": "account",
          "type": "address"
        },
        {
          "internalType": "address",
          "name": "operator",
          "type": "address"
        }
      ],
      "name": "isApprovedForAll",
      "outputs": [
        {
          "internalType": "bool",
          "name": "",
          "type": "bool"
        }
      ],
      "stateMutability": "view",
      "type": "function"
    },
    {
      "inputs": [
        {
          "internalType": "uint256",
          "name": "_quantity",
          "type": "uint256"
        },
        {
          "internalType": "string",
          "name": "_URI",
          "type": "string"
        },
        {
          "internalType": "uint256",
          "name": "_price",
          "type": "uint256"
        }
      ],
      "name": "mintABook",
      "outputs": [
        {
          "internalType": "uint256",
          "name": "",
          "type": "uint256"
        }
      ],
      "stateMutability": "nonpayable",
      "type": "function"
    },
    {
      "inputs": [
        {
          "internalType": "address",
          "name": "",
          "type": "address"
        },
        {
          "internalType": "address",
          "name": "",
          "type": "address"
        },
        {
          "internalType": "uint256[]",
          "name": "",
          "type": "uint256[]"
        },
        {
          "internalType": "uint256[]",
          "name": "",
          "type": "uint256[]"
        },
        {
          "internalType": "bytes",
          "name": "",
          "type": "bytes"
        }
      ],
      "name": "onERC1155BatchReceived",
      "outputs": [
        {
          "internalType": "bytes4",
          "name": "",
          "type": "bytes4"
        }
      ],
      "stateMutability": "nonpayable",
      "type": "function"
    },
    {
      "inputs": [
        {
          "internalType": "address",
          "name": "",
          "type": "address"
        },
        {
          "internalType": "address",
          "name": "",
          "type": "address"
        },
        {
          "internalType": "uint256",
          "name": "",
          "type": "uint256"
        },
        {
          "internalType": "uint256",
          "name": "",
          "type": "uint256"
        },
        {
          "internalType": "bytes",
          "name": "",
          "type": "bytes"
        }
      ],
      "name": "onERC1155Received",
      "outputs": [
        {
          "internalType": "bytes4",
          "name": "",
          "type": "bytes4"
        }
      ],
      "stateMutability": "nonpayable",
      "type": "function"
    },
    {
      "inputs": [
        {
          "internalType": "uint256",
          "name": "_tokenId",
          "type": "uint256"
        },
        {
          "internalType": "uint256",
          "name": "_salePrice",
          "type": "uint256"
        }
      ],
      "name": "royaltyInfo",
      "outputs": [
        {
          "internalType": "address",
          "name": "receiver",
          "type": "address"
        },
        {
          "internalType": "uint256",
          "name": "royaltyAmount",
          "type": "uint256"
        }
      ],
      "stateMutability": "view",
      "type": "function"
    },
    {
      "inputs": [
        {
          "internalType": "address",
          "name": "from",
          "type": "address"
        },
        {
          "internalType": "address",
          "name": "to",
          "type": "address"
        },
        {
          "internalType": "uint256[]",
          "name": "ids",
          "type": "uint256[]"
        },
        {
          "internalType": "uint256[]",
          "name": "amounts",
          "type": "uint256[]"
        },
        {
          "internalType": "bytes",
          "name": "data",
          "type": "bytes"
        }
      ],
      "name": "safeBatchTransferFrom",
      "outputs": [],
      "stateMutability": "nonpayable",
      "type": "function"
    },
    {
      "inputs": [
        {
          "internalType": "address",
          "name": "from",
          "type": "address"
        },
        {
          "internalType": "address",
          "name": "to",
          "type": "address"
        },
        {
          "internalType": "uint256",
          "name": "id",
          "type": "uint256"
        },
        {
          "internalType": "uint256",
          "name": "amount",
          "type": "uint256"
        },
        {
          "internalType": "bytes",
          "name": "data",
          "type": "bytes"
        }
      ],
      "name": "safeTransferFrom",
      "outputs": [],
      "stateMutability": "nonpayable",
      "type": "function"
    },
    {
      "inputs": [
        {
          "internalType": "address",
          "name": "operator",
          "type": "address"
        },
        {
          "internalType": "bool",
          "name": "approved",
          "type": "bool"
        }
      ],
      "name": "setApprovalForAll",
      "outputs": [],
      "stateMutability": "nonpayable",
      "type": "function"
    },
    {
      "inputs": [
        {
          "internalType": "bytes4",
          "name": "interfaceId",
          "type": "bytes4"
        }
      ],
      "name": "supportsInterface",
      "outputs": [
        {
          "internalType": "bool",
          "name": "",
          "type": "bool"
        }
      ],
      "stateMutability": "view",
      "type": "function"
    },
    {
      "inputs": [
        {
          "internalType": "uint256",
          "name": "_tokenId",
          "type": "uint256"
        }
      ],
      "name": "tokenURI",
      "outputs": [
        {
          "internalType": "string",
          "name": "",
          "type": "string"
        }
      ],
      "stateMutability": "view",
      "type": "function"
    },
    {
      "inputs": [
        {
          "internalType": "uint256",
          "name": "",
          "type": "uint256"
        }
      ],
      "name": "uri",
      "outputs": [
        {
          "internalType": "string",
          "name": "",
          "type": "string"
        }
      ],
      "stateMutability": "view",
      "type": "function"
    },
    {
      "stateMutability": "payable",
      "type": "receive"
    }
  ],
  "bytecode": "0x60806040523480156200001157600080fd5b506040518060200160405280600081525062000033816200003a60201b60201c565b506200016b565b80600290805190602001906200005292919062000056565b5050565b828054620000649062000106565b90600052602060002090601f016020900481019282620000885760008555620000d4565b82601f10620000a357805160ff1916838001178555620000d4565b82800160010185558215620000d4579182015b82811115620000d3578251825591602001919060010190620000b6565b5b509050620000e39190620000e7565b5090565b5b8082111562000102576000816000905550600101620000e8565b5090565b600060028204905060018216806200011f57607f821691505b602082108114156200013657620001356200013c565b5b50919050565b7f4e487b7100000000000000000000000000000000000000000000000000000000600052602260045260246000fd5b6135a3806200017b6000396000f3fe60806040526004361061010c5760003560e01c80634fc3c4fc11610095578063c87b56dd11610064578063c87b56dd146103e8578063d96a094a14610425578063e985e9c514610455578063f23a6e6114610492578063f242432a146104cf57610113565b80634fc3c4fc146103065780636874404614610343578063a22cb46514610382578063bc197c81146103ab57610113565b80632671b0d8116100dc5780632671b0d8146101fa5780632a55205a146102375780632eb2c2d61461027557806348e3f0eb1461029e5780634e1273f4146102c957610113565b8062fdd58e1461011857806301ffc9a71461015557806306048fdb146101925780630e89341c146101bd57610113565b3661011357005b600080fd5b34801561012457600080fd5b5061013f600480360381019061013a919061245b565b6104f8565b60405161014c9190612f81565b60405180910390f35b34801561016157600080fd5b5061017c60048036038101906101779190612503565b6105c1565b6040516101899190612d89565b60405180910390f35b34801561019e57600080fd5b506101a761063b565b6040516101b49190612f81565b60405180910390f35b3480156101c957600080fd5b506101e460048036038101906101df9190612555565b610643565b6040516101f19190612dbf565b60405180910390f35b34801561020657600080fd5b50610221600480360381019061021c919061226c565b6106d7565b60405161022e9190612d30565b60405180910390f35b34801561024357600080fd5b5061025e600480360381019061025991906125e5565b61076e565b60405161026c929190612d07565b60405180910390f35b34801561028157600080fd5b5061029c600480360381019061029791906122d1565b6107d4565b005b3480156102aa57600080fd5b506102b3610875565b6040516102c09190612f81565b60405180910390f35b3480156102d557600080fd5b506102f060048036038101906102eb9190612497565b610881565b6040516102fd9190612d30565b60405180910390f35b34801561031257600080fd5b5061032d6004803603810190610328919061257e565b610a32565b60405161033a9190612f81565b60405180910390f35b34801561034f57600080fd5b5061036a60048036038101906103659190612555565b610b31565b60405161037993929190612f9c565b60405180910390f35b34801561038e57600080fd5b506103a960048036038101906103a4919061241f565b610c03565b005b3480156103b757600080fd5b506103d260048036038101906103cd91906122d1565b610c19565b6040516103df9190612da4565b60405180910390f35b3480156103f457600080fd5b5061040f600480360381019061040a9190612555565b610c2e565b60405161041c9190612dbf565b60405180910390f35b61043f600480360381019061043a9190612555565b610cd6565b60405161044c9190612d89565b60405180910390f35b34801561046157600080fd5b5061047c60048036038101906104779190612295565b610ec2565b6040516104899190612d89565b60405180910390f35b34801561049e57600080fd5b506104b960048036038101906104b49190612390565b610f56565b6040516104c69190612da4565b60405180910390f35b3480156104db57600080fd5b506104f660048036038101906104f19190612390565b610f6b565b005b60008073ffffffffffffffffffffffffffffffffffffffff168373ffffffffffffffffffffffffffffffffffffffff161415610569576040517f08c379a000000000000000000000000000000000000000000000000000000000815260040161056090612e21565b60405180910390fd5b60008083815260200190815260200160002060008473ffffffffffffffffffffffffffffffffffffffff1673ffffffffffffffffffffffffffffffffffffffff16815260200190815260200160002054905092915050565b60007f2a55205a000000000000000000000000000000000000000000000000000000007bffffffffffffffffffffffffffffffffffffffffffffffffffffffff1916827bffffffffffffffffffffffffffffffffffffffffffffffffffffffff1916148061063457506106338261100c565b5b9050919050565b600047905090565b60606002805461065290613306565b80601f016020809104026020016040519081016040528092919081815260200182805461067e90613306565b80156106cb5780601f106106a0576101008083540402835291602001916106cb565b820191906000526020600020905b8154815290600101906020018083116106ae57829003601f168201915b50505050509050919050565b6060600560008373ffffffffffffffffffffffffffffffffffffffff1673ffffffffffffffffffffffffffffffffffffffff16815260200190815260200160002080548060200260200160405190810160405280929190818152602001828054801561076257602002820191906000526020600020905b81548152602001906001019080831161074e575b50505050509050919050565b60008060006004600086815260200190815260200160002060020160009054906101000a900473ffffffffffffffffffffffffffffffffffffffff169050806127106103e8866107be91906131e4565b6107c891906131b3565b92509250509250929050565b6107dc611086565b73ffffffffffffffffffffffffffffffffffffffff168573ffffffffffffffffffffffffffffffffffffffff16148061082257506108218561081c611086565b610ec2565b5b610861576040517f08c379a000000000000000000000000000000000000000000000000000000000815260040161085890612ea1565b60405180910390fd5b61086e858585858561108e565b5050505050565b60038060000154905081565b606081518351146108c7576040517f08c379a00000000000000000000000000000000000000000000000000000000081526004016108be90612f21565b60405180910390fd5b6000835167ffffffffffffffff81111561090a577f4e487b7100000000000000000000000000000000000000000000000000000000600052604160045260246000fd5b6040519080825280602002602001820160405280156109385781602001602082028036833780820191505090505b50905060005b8451811015610a27576109d1858281518110610983577f4e487b7100000000000000000000000000000000000000000000000000000000600052603260045260246000fd5b60200260200101518583815181106109c4577f4e487b7100000000000000000000000000000000000000000000000000000000600052603260045260246000fd5b60200260200101516104f8565b828281518110610a0a577f4e487b7100000000000000000000000000000000000000000000000000000000600052603260045260246000fd5b60200260200101818152505080610a2090613338565b905061093e565b508091505092915050565b600080610a3f60036113ee565b905060405180606001604052808481526020018581526020013373ffffffffffffffffffffffffffffffffffffffff1681525060046000838152602001908152602001600020600082015181600001556020820151816001019080519060200190610aab929190611f64565b5060408201518160020160006101000a81548173ffffffffffffffffffffffffffffffffffffffff021916908373ffffffffffffffffffffffffffffffffffffffff160217905550905050610b11308287604051806020016040528060008152506113fc565b610b1c306001610c03565b610b266003611592565b809150509392505050565b6004602052806000526040600020600091509050806000015490806001018054610b5a90613306565b80601f0160208091040260200160405190810160405280929190818152602001828054610b8690613306565b8015610bd35780601f10610ba857610100808354040283529160200191610bd3565b820191906000526020600020905b815481529060010190602001808311610bb657829003601f168201915b5050505050908060020160009054906101000a900473ffffffffffffffffffffffffffffffffffffffff16905083565b610c15610c0e611086565b83836115a8565b5050565b600063bc197c8160e01b905095945050505050565b6060600460008381526020019081526020016000206001018054610c5190613306565b80601f0160208091040260200160405190810160405280929190818152602001828054610c7d90613306565b8015610cca5780601f10610c9f57610100808354040283529160200191610cca565b820191906000526020600020905b815481529060010190602001808311610cad57829003601f168201915b50505050509050919050565b60006004600083815260200190815260200160002060000154341015610d31576040517f08c379a0000000000000000000000000000000000000000000000000000000008152600401610d2890612e61565b60405180910390fd5b600073ffffffffffffffffffffffffffffffffffffffff163373ffffffffffffffffffffffffffffffffffffffff161415610da1576040517f08c379a0000000000000000000000000000000000000000000000000000000008152600401610d9890612ec1565b60405180910390fd5b610dbe303384600160405180602001604052806000815250611715565b600560003373ffffffffffffffffffffffffffffffffffffffff1673ffffffffffffffffffffffffffffffffffffffff1681526020019081526020016000208290806001815401808255809150506001900390600052602060002001600090919091909150556004600083815260200190815260200160002060020160009054906101000a900473ffffffffffffffffffffffffffffffffffffffff1673ffffffffffffffffffffffffffffffffffffffff166108fc6064606234610e8391906131e4565b610e8d91906131b3565b9081150290604051600060405180830381858888f19350505050158015610eb8573d6000803e3d6000fd5b5060019050919050565b6000600160008473ffffffffffffffffffffffffffffffffffffffff1673ffffffffffffffffffffffffffffffffffffffff16815260200190815260200160002060008373ffffffffffffffffffffffffffffffffffffffff1673ffffffffffffffffffffffffffffffffffffffff16815260200190815260200160002060009054906101000a900460ff16905092915050565b600063f23a6e6160e01b905095945050505050565b610f73611086565b73ffffffffffffffffffffffffffffffffffffffff168573ffffffffffffffffffffffffffffffffffffffff161480610fb95750610fb885610fb3611086565b610ec2565b5b610ff8576040517f08c379a0000000000000000000000000000000000000000000000000000000008152600401610fef90612e41565b60405180910390fd5b6110058585858585611715565b5050505050565b60007f4e2312e0000000000000000000000000000000000000000000000000000000007bffffffffffffffffffffffffffffffffffffffffffffffffffffffff1916827bffffffffffffffffffffffffffffffffffffffffffffffffffffffff1916148061107f575061107e82611997565b5b9050919050565b600033905090565b81518351146110d2576040517f08c379a00000000000000000000000000000000000000000000000000000000081526004016110c990612f41565b60405180910390fd5b600073ffffffffffffffffffffffffffffffffffffffff168473ffffffffffffffffffffffffffffffffffffffff161415611142576040517f08c379a000000000000000000000000000000000000000000000000000000000815260040161113990612e81565b60405180910390fd5b600061114c611086565b905061115c818787878787611a79565b60005b84518110156113595760008582815181106111a3577f4e487b7100000000000000000000000000000000000000000000000000000000600052603260045260246000fd5b6020026020010151905060008583815181106111e8577f4e487b7100000000000000000000000000000000000000000000000000000000600052603260045260246000fd5b60200260200101519050600080600084815260200190815260200160002060008b73ffffffffffffffffffffffffffffffffffffffff1673ffffffffffffffffffffffffffffffffffffffff16815260200190815260200160002054905081811015611289576040517f08c379a000000000000000000000000000000000000000000000000000000000815260040161128090612ee1565b60405180910390fd5b81810360008085815260200190815260200160002060008c73ffffffffffffffffffffffffffffffffffffffff1673ffffffffffffffffffffffffffffffffffffffff168152602001908152602001600020819055508160008085815260200190815260200160002060008b73ffffffffffffffffffffffffffffffffffffffff1673ffffffffffffffffffffffffffffffffffffffff168152602001908152602001600020600082825461133e919061315d565b925050819055505050508061135290613338565b905061115f565b508473ffffffffffffffffffffffffffffffffffffffff168673ffffffffffffffffffffffffffffffffffffffff168273ffffffffffffffffffffffffffffffffffffffff167f4a39dc06d4c0dbc64b70af90fd698a233a518aa5d07e595d983b8c0526c8f7fb87876040516113d0929190612d52565b60405180910390a46113e6818787878787611a81565b505050505050565b600081600001549050919050565b600073ffffffffffffffffffffffffffffffffffffffff168473ffffffffffffffffffffffffffffffffffffffff16141561146c576040517f08c379a000000000000000000000000000000000000000000000000000000000815260040161146390612f61565b60405180910390fd5b6000611476611086565b90506114978160008761148888611c51565b61149188611c51565b87611a79565b8260008086815260200190815260200160002060008773ffffffffffffffffffffffffffffffffffffffff1673ffffffffffffffffffffffffffffffffffffffff16815260200190815260200160002060008282546114f6919061315d565b925050819055508473ffffffffffffffffffffffffffffffffffffffff16600073ffffffffffffffffffffffffffffffffffffffff168273ffffffffffffffffffffffffffffffffffffffff167fc3d58168c5ae7397731d063d5bbf3d657854427343f4c083240f7aacaa2d0f628787604051611574929190612fda565b60405180910390a461158b81600087878787611d17565b5050505050565b6001816000016000828254019250508190555050565b8173ffffffffffffffffffffffffffffffffffffffff168373ffffffffffffffffffffffffffffffffffffffff161415611617576040517f08c379a000000000000000000000000000000000000000000000000000000000815260040161160e90612f01565b60405180910390fd5b80600160008573ffffffffffffffffffffffffffffffffffffffff1673ffffffffffffffffffffffffffffffffffffffff16815260200190815260200160002060008473ffffffffffffffffffffffffffffffffffffffff1673ffffffffffffffffffffffffffffffffffffffff16815260200190815260200160002060006101000a81548160ff0219169083151502179055508173ffffffffffffffffffffffffffffffffffffffff168373ffffffffffffffffffffffffffffffffffffffff167f17307eab39ab6107e8899845ad3d59bd9653f200f220920489ca2b5937696c31836040516117089190612d89565b60405180910390a3505050565b600073ffffffffffffffffffffffffffffffffffffffff168473ffffffffffffffffffffffffffffffffffffffff161415611785576040517f08c379a000000000000000000000000000000000000000000000000000000000815260040161177c90612e81565b60405180910390fd5b600061178f611086565b90506117af8187876117a088611c51565b6117a988611c51565b87611a79565b600080600086815260200190815260200160002060008873ffffffffffffffffffffffffffffffffffffffff1673ffffffffffffffffffffffffffffffffffffffff16815260200190815260200160002054905083811015611846576040517f08c379a000000000000000000000000000000000000000000000000000000000815260040161183d90612ee1565b60405180910390fd5b83810360008087815260200190815260200160002060008973ffffffffffffffffffffffffffffffffffffffff1673ffffffffffffffffffffffffffffffffffffffff168152602001908152602001600020819055508360008087815260200190815260200160002060008873ffffffffffffffffffffffffffffffffffffffff1673ffffffffffffffffffffffffffffffffffffffff16815260200190815260200160002060008282546118fb919061315d565b925050819055508573ffffffffffffffffffffffffffffffffffffffff168773ffffffffffffffffffffffffffffffffffffffff168373ffffffffffffffffffffffffffffffffffffffff167fc3d58168c5ae7397731d063d5bbf3d657854427343f4c083240f7aacaa2d0f628888604051611978929190612fda565b60405180910390a461198e828888888888611d17565b50505050505050565b60007fd9b67a26000000000000000000000000000000000000000000000000000000007bffffffffffffffffffffffffffffffffffffffffffffffffffffffff1916827bffffffffffffffffffffffffffffffffffffffffffffffffffffffff19161480611a6257507f0e89341c000000000000000000000000000000000000000000000000000000007bffffffffffffffffffffffffffffffffffffffffffffffffffffffff1916827bffffffffffffffffffffffffffffffffffffffffffffffffffffffff1916145b80611a725750611a7182611ee7565b5b9050919050565b505050505050565b611aa08473ffffffffffffffffffffffffffffffffffffffff16611f51565b15611c49578373ffffffffffffffffffffffffffffffffffffffff1663bc197c8187878686866040518663ffffffff1660e01b8152600401611ae6959493929190612c45565b602060405180830381600087803b158015611b0057600080fd5b505af1925050508015611b3157506040513d601f19601f82011682018060405250810190611b2e919061252c565b60015b611bc057611b3d61345b565b80611b485750611b85565b806040517f08c379a0000000000000000000000000000000000000000000000000000000008152600401611b7c9190612dbf565b60405180910390fd5b6040517f08c379a0000000000000000000000000000000000000000000000000000000008152600401611bb790612de1565b60405180910390fd5b63bc197c8160e01b7bffffffffffffffffffffffffffffffffffffffffffffffffffffffff1916817bffffffffffffffffffffffffffffffffffffffffffffffffffffffff191614611c47576040517f08c379a0000000000000000000000000000000000000000000000000000000008152600401611c3e90612e01565b60405180910390fd5b505b505050505050565b60606000600167ffffffffffffffff811115611c96577f4e487b7100000000000000000000000000000000000000000000000000000000600052604160045260246000fd5b604051908082528060200260200182016040528015611cc45781602001602082028036833780820191505090505b5090508281600081518110611d02577f4e487b7100000000000000000000000000000000000000000000000000000000600052603260045260246000fd5b60200260200101818152505080915050919050565b611d368473ffffffffffffffffffffffffffffffffffffffff16611f51565b15611edf578373ffffffffffffffffffffffffffffffffffffffff1663f23a6e6187878686866040518663ffffffff1660e01b8152600401611d7c959493929190612cad565b602060405180830381600087803b158015611d9657600080fd5b505af1925050508015611dc757506040513d601f19601f82011682018060405250810190611dc4919061252c565b60015b611e5657611dd361345b565b80611dde5750611e1b565b806040517f08c379a0000000000000000000000000000000000000000000000000000000008152600401611e129190612dbf565b60405180910390fd5b6040517f08c379a0000000000000000000000000000000000000000000000000000000008152600401611e4d90612de1565b60405180910390fd5b63f23a6e6160e01b7bffffffffffffffffffffffffffffffffffffffffffffffffffffffff1916817bffffffffffffffffffffffffffffffffffffffffffffffffffffffff191614611edd576040517f08c379a0000000000000000000000000000000000000000000000000000000008152600401611ed490612e01565b60405180910390fd5b505b505050505050565b60007f01ffc9a7000000000000000000000000000000000000000000000000000000007bffffffffffffffffffffffffffffffffffffffffffffffffffffffff1916827bffffffffffffffffffffffffffffffffffffffffffffffffffffffff1916149050919050565b600080823b905060008111915050919050565b828054611f7090613306565b90600052602060002090601f016020900481019282611f925760008555611fd9565b82601f10611fab57805160ff1916838001178555611fd9565b82800160010185558215611fd9579182015b82811115611fd8578251825591602001919060010190611fbd565b5b509050611fe69190611fea565b5090565b5b80821115612003576000816000905550600101611feb565b5090565b600061201a61201584613034565b613003565b9050808382526020820190508285602086028201111561203957600080fd5b60005b85811015612069578161204f888261215b565b84526020840193506020830192505060018101905061203c565b5050509392505050565b600061208661208184613060565b613003565b905080838252602082019050828560208602820111156120a557600080fd5b60005b858110156120d557816120bb8882612257565b8452602084019350602083019250506001810190506120a8565b5050509392505050565b60006120f26120ed8461308c565b613003565b90508281526020810184848401111561210a57600080fd5b6121158482856132c4565b509392505050565b600061213061212b846130bc565b613003565b90508281526020810184848401111561214857600080fd5b6121538482856132c4565b509392505050565b60008135905061216a81613511565b92915050565b600082601f83011261218157600080fd5b8135612191848260208601612007565b91505092915050565b600082601f8301126121ab57600080fd5b81356121bb848260208601612073565b91505092915050565b6000813590506121d381613528565b92915050565b6000813590506121e88161353f565b92915050565b6000815190506121fd8161353f565b92915050565b600082601f83011261221457600080fd5b81356122248482602086016120df565b91505092915050565b600082601f83011261223e57600080fd5b813561224e84826020860161211d565b91505092915050565b60008135905061226681613556565b92915050565b60006020828403121561227e57600080fd5b600061228c8482850161215b565b91505092915050565b600080604083850312156122a857600080fd5b60006122b68582860161215b565b92505060206122c78582860161215b565b9150509250929050565b600080600080600060a086880312156122e957600080fd5b60006122f78882890161215b565b95505060206123088882890161215b565b945050604086013567ffffffffffffffff81111561232557600080fd5b6123318882890161219a565b935050606086013567ffffffffffffffff81111561234e57600080fd5b61235a8882890161219a565b925050608086013567ffffffffffffffff81111561237757600080fd5b61238388828901612203565b9150509295509295909350565b600080600080600060a086880312156123a857600080fd5b60006123b68882890161215b565b95505060206123c78882890161215b565b94505060406123d888828901612257565b93505060606123e988828901612257565b925050608086013567ffffffffffffffff81111561240657600080fd5b61241288828901612203565b9150509295509295909350565b6000806040838503121561243257600080fd5b60006124408582860161215b565b9250506020612451858286016121c4565b9150509250929050565b6000806040838503121561246e57600080fd5b600061247c8582860161215b565b925050602061248d85828601612257565b9150509250929050565b600080604083850312156124aa57600080fd5b600083013567ffffffffffffffff8111156124c457600080fd5b6124d085828601612170565b925050602083013567ffffffffffffffff8111156124ed57600080fd5b6124f98582860161219a565b9150509250929050565b60006020828403121561251557600080fd5b6000612523848285016121d9565b91505092915050565b60006020828403121561253e57600080fd5b600061254c848285016121ee565b91505092915050565b60006020828403121561256757600080fd5b600061257584828501612257565b91505092915050565b60008060006060848603121561259357600080fd5b60006125a186828701612257565b935050602084013567ffffffffffffffff8111156125be57600080fd5b6125ca8682870161222d565b92505060406125db86828701612257565b9150509250925092565b600080604083850312156125f857600080fd5b600061260685828601612257565b925050602061261785828601612257565b9150509250929050565b600061262d8383612c27565b60208301905092915050565b61264281613250565b82525050565b6126518161323e565b82525050565b6000612662826130fc565b61266c818561312a565b9350612677836130ec565b8060005b838110156126a857815161268f8882612621565b975061269a8361311d565b92505060018101905061267b565b5085935050505092915050565b6126be81613262565b82525050565b6126cd8161326e565b82525050565b60006126de82613107565b6126e8818561313b565b93506126f88185602086016132d3565b6127018161343d565b840191505092915050565b600061271782613112565b612721818561314c565b93506127318185602086016132d3565b61273a8161343d565b840191505092915050565b600061275260348361314c565b91507f455243313135353a207472616e7366657220746f206e6f6e204552433131353560008301527f526563656976657220696d706c656d656e7465720000000000000000000000006020830152604082019050919050565b60006127b860288361314c565b91507f455243313135353a204552433131353552656365697665722072656a6563746560008301527f6420746f6b656e730000000000000000000000000000000000000000000000006020830152604082019050919050565b600061281e602b8361314c565b91507f455243313135353a2062616c616e636520717565727920666f7220746865207a60008301527f65726f20616464726573730000000000000000000000000000000000000000006020830152604082019050919050565b600061288460298361314c565b91507f455243313135353a2063616c6c6572206973206e6f74206f776e6572206e6f7260008301527f20617070726f76656400000000000000000000000000000000000000000000006020830152604082019050919050565b60006128ea600e8361314c565b91507f4e6f7420656e6f756768206574680000000000000000000000000000000000006000830152602082019050919050565b600061292a60258361314c565b91507f455243313135353a207472616e7366657220746f20746865207a65726f20616460008301527f64726573730000000000000000000000000000000000000000000000000000006020830152604082019050919050565b600061299060328361314c565b91507f455243313135353a207472616e736665722063616c6c6572206973206e6f742060008301527f6f776e6572206e6f7220617070726f76656400000000000000000000000000006020830152604082019050919050565b60006129f660188361314c565b91507f43616e6e6f742068617665207a65726f206164647265737300000000000000006000830152602082019050919050565b6000612a36602a8361314c565b91507f455243313135353a20696e73756666696369656e742062616c616e636520666f60008301527f72207472616e73666572000000000000000000000000000000000000000000006020830152604082019050919050565b6000612a9c60298361314c565b91507f455243313135353a2073657474696e6720617070726f76616c2073746174757360008301527f20666f722073656c6600000000000000000000000000000000000000000000006020830152604082019050919050565b6000612b0260298361314c565b91507f455243313135353a206163636f756e747320616e6420696473206c656e67746860008301527f206d69736d6174636800000000000000000000000000000000000000000000006020830152604082019050919050565b6000612b6860288361314c565b91507f455243313135353a2069647320616e6420616d6f756e7473206c656e6774682060008301527f6d69736d617463680000000000000000000000000000000000000000000000006020830152604082019050919050565b6000612bce60218361314c565b91507f455243313135353a206d696e7420746f20746865207a65726f2061646472657360008301527f73000000000000000000000000000000000000000000000000000000000000006020830152604082019050919050565b612c30816132ba565b82525050565b612c3f816132ba565b82525050565b600060a082019050612c5a6000830188612648565b612c676020830187612648565b8181036040830152612c798186612657565b90508181036060830152612c8d8185612657565b90508181036080830152612ca181846126d3565b90509695505050505050565b600060a082019050612cc26000830188612648565b612ccf6020830187612648565b612cdc6040830186612c36565b612ce96060830185612c36565b8181036080830152612cfb81846126d3565b90509695505050505050565b6000604082019050612d1c6000830185612648565b612d296020830184612c36565b9392505050565b60006020820190508181036000830152612d4a8184612657565b905092915050565b60006040820190508181036000830152612d6c8185612657565b90508181036020830152612d808184612657565b90509392505050565b6000602082019050612d9e60008301846126b5565b92915050565b6000602082019050612db960008301846126c4565b92915050565b60006020820190508181036000830152612dd9818461270c565b905092915050565b60006020820190508181036000830152612dfa81612745565b9050919050565b60006020820190508181036000830152612e1a816127ab565b9050919050565b60006020820190508181036000830152612e3a81612811565b9050919050565b60006020820190508181036000830152612e5a81612877565b9050919050565b60006020820190508181036000830152612e7a816128dd565b9050919050565b60006020820190508181036000830152612e9a8161291d565b9050919050565b60006020820190508181036000830152612eba81612983565b9050919050565b60006020820190508181036000830152612eda816129e9565b9050919050565b60006020820190508181036000830152612efa81612a29565b9050919050565b60006020820190508181036000830152612f1a81612a8f565b9050919050565b60006020820190508181036000830152612f3a81612af5565b9050919050565b60006020820190508181036000830152612f5a81612b5b565b9050919050565b60006020820190508181036000830152612f7a81612bc1565b9050919050565b6000602082019050612f966000830184612c36565b92915050565b6000606082019050612fb16000830186612c36565b8181036020830152612fc3818561270c565b9050612fd26040830184612639565b949350505050565b6000604082019050612fef6000830185612c36565b612ffc6020830184612c36565b9392505050565b6000604051905081810181811067ffffffffffffffff8211171561302a5761302961340e565b5b8060405250919050565b600067ffffffffffffffff82111561304f5761304e61340e565b5b602082029050602081019050919050565b600067ffffffffffffffff82111561307b5761307a61340e565b5b602082029050602081019050919050565b600067ffffffffffffffff8211156130a7576130a661340e565b5b601f19601f8301169050602081019050919050565b600067ffffffffffffffff8211156130d7576130d661340e565b5b601f19601f8301169050602081019050919050565b6000819050602082019050919050565b600081519050919050565b600081519050919050565b600081519050919050565b6000602082019050919050565b600082825260208201905092915050565b600082825260208201905092915050565b600082825260208201905092915050565b6000613168826132ba565b9150613173836132ba565b9250827fffffffffffffffffffffffffffffffffffffffffffffffffffffffffffffffff038211156131a8576131a7613381565b5b828201905092915050565b60006131be826132ba565b91506131c9836132ba565b9250826131d9576131d86133b0565b5b828204905092915050565b60006131ef826132ba565b91506131fa836132ba565b9250817fffffffffffffffffffffffffffffffffffffffffffffffffffffffffffffffff048311821515161561323357613232613381565b5b828202905092915050565b60006132498261329a565b9050919050565b600061325b8261329a565b9050919050565b60008115159050919050565b60007fffffffff0000000000000000000000000000000000000000000000000000000082169050919050565b600073ffffffffffffffffffffffffffffffffffffffff82169050919050565b6000819050919050565b82818337600083830152505050565b60005b838110156132f15780820151818401526020810190506132d6565b83811115613300576000848401525b50505050565b6000600282049050600182168061331e57607f821691505b60208210811415613332576133316133df565b5b50919050565b6000613343826132ba565b91507fffffffffffffffffffffffffffffffffffffffffffffffffffffffffffffffff82141561337657613375613381565b5b600182019050919050565b7f4e487b7100000000000000000000000000000000000000000000000000000000600052601160045260246000fd5b7f4e487b7100000000000000000000000000000000000000000000000000000000600052601260045260246000fd5b7f4e487b7100000000000000000000000000000000000000000000000000000000600052602260045260246000fd5b7f4e487b7100000000000000000000000000000000000000000000000000000000600052604160045260246000fd5b6000601f19601f8301169050919050565b60008160e01c9050919050565b600060443d101561346b5761350e565b60046000803e61347c60005161344e565b6308c379a0811461348d575061350e565b60405160043d036004823e80513d602482011167ffffffffffffffff821117156134b95750505061350e565b808201805167ffffffffffffffff8111156134d857505050505061350e565b8060208301013d85018111156134f35750505050505061350e565b6134fc8261343d565b60208401016040528296505050505050505b90565b61351a8161323e565b811461352557600080fd5b50565b61353181613262565b811461353c57600080fd5b50565b6135488161326e565b811461355357600080fd5b50565b61355f816132ba565b811461356a57600080fd5b5056fea2646970667358221220fd9baaeb986d5cd30574cfaa66e39f8c8abd8ee13d02fdd177fe9a6d78b6a22f64736f6c63430008000033",
  "linkReferences": {},
  "deployedLinkReferences": {}
}