{
  "_format": "hh-sol-artifact-1",
  "contractName": "MintBook",
  "sourceName": "contracts/mintBook.sol",
  "abi": [
    {
      "inputs": [],
      "stateMutability": "nonpayable",
      "type": "constructor"
    },
    {
      "anonymous": false,
      "inputs": [
        {
          "indexed": true,
          "internalType": "address",
          "name": "account",
          "type": "address"
        },
        {
          "indexed": true,
          "internalType": "address",
          "name": "operator",
          "type": "address"
        },
        {
          "indexed": false,
          "internalType": "bool",
          "name": "approved",
          "type": "bool"
        }
      ],
      "name": "ApprovalForAll",
      "type": "event"
    },
    {
      "anonymous": false,
      "inputs": [
        {
          "indexed": true,
          "internalType": "address",
          "name": "operator",
          "type": "address"
        },
        {
          "indexed": true,
          "internalType": "address",
          "name": "from",
          "type": "address"
        },
        {
          "indexed": true,
          "internalType": "address",
          "name": "to",
          "type": "address"
        },
        {
          "indexed": false,
          "internalType": "uint256[]",
          "name": "ids",
          "type": "uint256[]"
        },
        {
          "indexed": false,
          "internalType": "uint256[]",
          "name": "values",
          "type": "uint256[]"
        }
      ],
      "name": "TransferBatch",
      "type": "event"
    },
    {
      "anonymous": false,
      "inputs": [
        {
          "indexed": true,
          "internalType": "address",
          "name": "operator",
          "type": "address"
        },
        {
          "indexed": true,
          "internalType": "address",
          "name": "from",
          "type": "address"
        },
        {
          "indexed": true,
          "internalType": "address",
          "name": "to",
          "type": "address"
        },
        {
          "indexed": false,
          "internalType": "uint256",
          "name": "id",
          "type": "uint256"
        },
        {
          "indexed": false,
          "internalType": "uint256",
          "name": "value",
          "type": "uint256"
        }
      ],
      "name": "TransferSingle",
      "type": "event"
    },
    {
      "anonymous": false,
      "inputs": [
        {
          "indexed": false,
          "internalType": "string",
          "name": "value",
          "type": "string"
        },
        {
          "indexed": true,
          "internalType": "uint256",
          "name": "id",
          "type": "uint256"
        }
      ],
      "name": "URI",
      "type": "event"
    },
    {
      "inputs": [
        {
          "internalType": "address",
          "name": "account",
          "type": "address"
        },
        {
          "internalType": "uint256",
          "name": "id",
          "type": "uint256"
        }
      ],
      "name": "balanceOf",
      "outputs": [
        {
          "internalType": "uint256",
          "name": "",
          "type": "uint256"
        }
      ],
      "stateMutability": "view",
      "type": "function"
    },
    {
      "inputs": [
        {
          "internalType": "address[]",
          "name": "accounts",
          "type": "address[]"
        },
        {
          "internalType": "uint256[]",
          "name": "ids",
          "type": "uint256[]"
        }
      ],
      "name": "balanceOfBatch",
      "outputs": [
        {
          "internalType": "uint256[]",
          "name": "",
          "type": "uint256[]"
        }
      ],
      "stateMutability": "view",
      "type": "function"
    },
    {
      "inputs": [],
      "name": "baseURI",
      "outputs": [
        {
          "internalType": "string",
          "name": "",
          "type": "string"
        }
      ],
      "stateMutability": "view",
      "type": "function"
    },
    {
      "inputs": [],
      "name": "bookIds",
      "outputs": [
        {
          "internalType": "uint256",
          "name": "_value",
          "type": "uint256"
        }
      ],
      "stateMutability": "view",
      "type": "function"
    },
    {
      "inputs": [
        {
          "internalType": "address",
          "name": "account",
          "type": "address"
        },
        {
          "internalType": "address",
          "name": "operator",
          "type": "address"
        }
      ],
      "name": "isApprovedForAll",
      "outputs": [
        {
          "internalType": "bool",
          "name": "",
          "type": "bool"
        }
      ],
      "stateMutability": "view",
      "type": "function"
    },
    {
      "inputs": [
        {
          "internalType": "uint256",
          "name": "quantity",
          "type": "uint256"
        },
        {
          "internalType": "string",
          "name": "title",
          "type": "string"
        }
      ],
      "name": "mintABook",
      "outputs": [
        {
          "internalType": "uint256",
          "name": "",
          "type": "uint256"
        }
      ],
      "stateMutability": "nonpayable",
      "type": "function"
    },
    {
      "inputs": [
        {
          "internalType": "address",
          "name": "from",
          "type": "address"
        },
        {
          "internalType": "address",
          "name": "to",
          "type": "address"
        },
        {
          "internalType": "uint256[]",
          "name": "ids",
          "type": "uint256[]"
        },
        {
          "internalType": "uint256[]",
          "name": "amounts",
          "type": "uint256[]"
        },
        {
          "internalType": "bytes",
          "name": "data",
          "type": "bytes"
        }
      ],
      "name": "safeBatchTransferFrom",
      "outputs": [],
      "stateMutability": "nonpayable",
      "type": "function"
    },
    {
      "inputs": [
        {
          "internalType": "address",
          "name": "from",
          "type": "address"
        },
        {
          "internalType": "address",
          "name": "to",
          "type": "address"
        },
        {
          "internalType": "uint256",
          "name": "id",
          "type": "uint256"
        },
        {
          "internalType": "uint256",
          "name": "amount",
          "type": "uint256"
        },
        {
          "internalType": "bytes",
          "name": "data",
          "type": "bytes"
        }
      ],
      "name": "safeTransferFrom",
      "outputs": [],
      "stateMutability": "nonpayable",
      "type": "function"
    },
    {
      "inputs": [
        {
          "internalType": "address",
          "name": "operator",
          "type": "address"
        },
        {
          "internalType": "bool",
          "name": "approved",
          "type": "bool"
        }
      ],
      "name": "setApprovalForAll",
      "outputs": [],
      "stateMutability": "nonpayable",
      "type": "function"
    },
    {
      "inputs": [
        {
          "internalType": "string",
          "name": "_baseURIParam",
          "type": "string"
        }
      ],
      "name": "setBaseURI",
      "outputs": [],
      "stateMutability": "nonpayable",
      "type": "function"
    },
    {
      "inputs": [
        {
          "internalType": "bytes4",
          "name": "interfaceId",
          "type": "bytes4"
        }
      ],
      "name": "supportsInterface",
      "outputs": [
        {
          "internalType": "bool",
          "name": "",
          "type": "bool"
        }
      ],
      "stateMutability": "view",
      "type": "function"
    },
    {
      "inputs": [
        {
          "internalType": "uint256",
          "name": "",
          "type": "uint256"
        }
      ],
      "name": "uri",
      "outputs": [
        {
          "internalType": "string",
          "name": "",
          "type": "string"
        }
      ],
      "stateMutability": "view",
      "type": "function"
    }
  ],
  "bytecode": "0x60806040523480156200001157600080fd5b506040518060200160405280600081525062000033816200003a60201b60201c565b506200016b565b80600290805190602001906200005292919062000056565b5050565b828054620000649062000106565b90600052602060002090601f016020900481019282620000885760008555620000d4565b82601f10620000a357805160ff1916838001178555620000d4565b82800160010185558215620000d4579182015b82811115620000d3578251825591602001919060010190620000b6565b5b509050620000e39190620000e7565b5090565b5b8082111562000102576000816000905550600101620000e8565b5090565b600060028204905060018216806200011f57607f821691505b602082108114156200013657620001356200013c565b5b50919050565b7f4e487b7100000000000000000000000000000000000000000000000000000000600052602260045260246000fd5b612ca1806200017b6000396000f3fe608060405234801561001057600080fd5b50600436106100b35760003560e01c806355f804b31161007157806355f804b3146101b25780636c0360eb146101ce57806383c205c8146101ec578063a22cb4651461021c578063e985e9c514610238578063f242432a14610268576100b3565b8062fdd58e146100b857806301ffc9a7146100e85780630e89341c146101185780632eb2c2d61461014857806348e3f0eb146101645780634e1273f414610182575b600080fd5b6100d260048036038101906100cd9190611d46565b610284565b6040516100df919061277e565b60405180910390f35b61010260048036038101906100fd9190611dee565b61034d565b60405161010f91906125e1565b60405180910390f35b610132600480360381019061012d9190611e81565b61042f565b60405161013f91906125fc565b60405180910390f35b610162600480360381019061015d9190611bbc565b6104c3565b005b61016c610564565b604051610179919061277e565b60405180910390f35b61019c60048036038101906101979190611d82565b610570565b6040516101a99190612588565b60405180910390f35b6101cc60048036038101906101c79190611e40565b610721565b005b6101d661073b565b6040516101e391906125fc565b60405180910390f35b61020660048036038101906102019190611eaa565b6107c9565b604051610213919061277e565b60405180910390f35b61023660048036038101906102319190611d0a565b61085a565b005b610252600480360381019061024d9190611b80565b610870565b60405161025f91906125e1565b60405180910390f35b610282600480360381019061027d9190611c7b565b610904565b005b60008073ffffffffffffffffffffffffffffffffffffffff168373ffffffffffffffffffffffffffffffffffffffff1614156102f5576040517f08c379a00000000000000000000000000000000000000000000000000000000081526004016102ec9061265e565b60405180910390fd5b60008083815260200190815260200160002060008473ffffffffffffffffffffffffffffffffffffffff1673ffffffffffffffffffffffffffffffffffffffff16815260200190815260200160002054905092915050565b60007fd9b67a26000000000000000000000000000000000000000000000000000000007bffffffffffffffffffffffffffffffffffffffffffffffffffffffff1916827bffffffffffffffffffffffffffffffffffffffffffffffffffffffff1916148061041857507f0e89341c000000000000000000000000000000000000000000000000000000007bffffffffffffffffffffffffffffffffffffffffffffffffffffffff1916827bffffffffffffffffffffffffffffffffffffffffffffffffffffffff1916145b806104285750610427826109a5565b5b9050919050565b60606002805461043e90612a33565b80601f016020809104026020016040519081016040528092919081815260200182805461046a90612a33565b80156104b75780601f1061048c576101008083540402835291602001916104b7565b820191906000526020600020905b81548152906001019060200180831161049a57829003601f168201915b50505050509050919050565b6104cb610a0f565b73ffffffffffffffffffffffffffffffffffffffff168573ffffffffffffffffffffffffffffffffffffffff16148061051157506105108561050b610a0f565b610870565b5b610550576040517f08c379a0000000000000000000000000000000000000000000000000000000008152600401610547906126be565b60405180910390fd5b61055d8585858585610a17565b5050505050565b60038060000154905081565b606081518351146105b6576040517f08c379a00000000000000000000000000000000000000000000000000000000081526004016105ad9061271e565b60405180910390fd5b6000835167ffffffffffffffff8111156105f9577f4e487b7100000000000000000000000000000000000000000000000000000000600052604160045260246000fd5b6040519080825280602002602001820160405280156106275781602001602082028036833780820191505090505b50905060005b8451811015610716576106c0858281518110610672577f4e487b7100000000000000000000000000000000000000000000000000000000600052603260045260246000fd5b60200260200101518583815181106106b3577f4e487b7100000000000000000000000000000000000000000000000000000000600052603260045260246000fd5b6020026020010151610284565b8282815181106106f9577f4e487b7100000000000000000000000000000000000000000000000000000000600052603260045260246000fd5b6020026020010181815250508061070f90612a65565b905061062d565b508091505092915050565b80600490805190602001906107379291906117a1565b5050565b6004805461074890612a33565b80601f016020809104026020016040519081016040528092919081815260200182805461077490612a33565b80156107c15780601f10610796576101008083540402835291602001916107c1565b820191906000526020600020905b8154815290600101906020018083116107a457829003601f168201915b505050505081565b6000806107d66003610d77565b905080600585856040516107eb9291906124ad565b90815260200160405180910390208190555060046006600083815260200190815260200160002090805461081e90612a33565b610829929190611827565b5061084533828760405180602001604052806000815250610d85565b61084f6003610f1b565b809150509392505050565b61086c610865610a0f565b8383610f31565b5050565b6000600160008473ffffffffffffffffffffffffffffffffffffffff1673ffffffffffffffffffffffffffffffffffffffff16815260200190815260200160002060008373ffffffffffffffffffffffffffffffffffffffff1673ffffffffffffffffffffffffffffffffffffffff16815260200190815260200160002060009054906101000a900460ff16905092915050565b61090c610a0f565b73ffffffffffffffffffffffffffffffffffffffff168573ffffffffffffffffffffffffffffffffffffffff16148061095257506109518561094c610a0f565b610870565b5b610991576040517f08c379a00000000000000000000000000000000000000000000000000000000081526004016109889061267e565b60405180910390fd5b61099e858585858561109e565b5050505050565b60007f01ffc9a7000000000000000000000000000000000000000000000000000000007bffffffffffffffffffffffffffffffffffffffffffffffffffffffff1916827bffffffffffffffffffffffffffffffffffffffffffffffffffffffff1916149050919050565b600033905090565b8151835114610a5b576040517f08c379a0000000000000000000000000000000000000000000000000000000008152600401610a529061273e565b60405180910390fd5b600073ffffffffffffffffffffffffffffffffffffffff168473ffffffffffffffffffffffffffffffffffffffff161415610acb576040517f08c379a0000000000000000000000000000000000000000000000000000000008152600401610ac29061269e565b60405180910390fd5b6000610ad5610a0f565b9050610ae5818787878787611320565b60005b8451811015610ce2576000858281518110610b2c577f4e487b7100000000000000000000000000000000000000000000000000000000600052603260045260246000fd5b602002602001015190506000858381518110610b71577f4e487b7100000000000000000000000000000000000000000000000000000000600052603260045260246000fd5b60200260200101519050600080600084815260200190815260200160002060008b73ffffffffffffffffffffffffffffffffffffffff1673ffffffffffffffffffffffffffffffffffffffff16815260200190815260200160002054905081811015610c12576040517f08c379a0000000000000000000000000000000000000000000000000000000008152600401610c09906126de565b60405180910390fd5b81810360008085815260200190815260200160002060008c73ffffffffffffffffffffffffffffffffffffffff1673ffffffffffffffffffffffffffffffffffffffff168152602001908152602001600020819055508160008085815260200190815260200160002060008b73ffffffffffffffffffffffffffffffffffffffff1673ffffffffffffffffffffffffffffffffffffffff1681526020019081526020016000206000828254610cc79190612927565b9250508190555050505080610cdb90612a65565b9050610ae8565b508473ffffffffffffffffffffffffffffffffffffffff168673ffffffffffffffffffffffffffffffffffffffff168273ffffffffffffffffffffffffffffffffffffffff167f4a39dc06d4c0dbc64b70af90fd698a233a518aa5d07e595d983b8c0526c8f7fb8787604051610d599291906125aa565b60405180910390a4610d6f818787878787611328565b505050505050565b600081600001549050919050565b600073ffffffffffffffffffffffffffffffffffffffff168473ffffffffffffffffffffffffffffffffffffffff161415610df5576040517f08c379a0000000000000000000000000000000000000000000000000000000008152600401610dec9061275e565b60405180910390fd5b6000610dff610a0f565b9050610e2081600087610e11886114f8565b610e1a886114f8565b87611320565b8260008086815260200190815260200160002060008773ffffffffffffffffffffffffffffffffffffffff1673ffffffffffffffffffffffffffffffffffffffff1681526020019081526020016000206000828254610e7f9190612927565b925050819055508473ffffffffffffffffffffffffffffffffffffffff16600073ffffffffffffffffffffffffffffffffffffffff168273ffffffffffffffffffffffffffffffffffffffff167fc3d58168c5ae7397731d063d5bbf3d657854427343f4c083240f7aacaa2d0f628787604051610efd929190612799565b60405180910390a4610f14816000878787876115be565b5050505050565b6001816000016000828254019250508190555050565b8173ffffffffffffffffffffffffffffffffffffffff168373ffffffffffffffffffffffffffffffffffffffff161415610fa0576040517f08c379a0000000000000000000000000000000000000000000000000000000008152600401610f97906126fe565b60405180910390fd5b80600160008573ffffffffffffffffffffffffffffffffffffffff1673ffffffffffffffffffffffffffffffffffffffff16815260200190815260200160002060008473ffffffffffffffffffffffffffffffffffffffff1673ffffffffffffffffffffffffffffffffffffffff16815260200190815260200160002060006101000a81548160ff0219169083151502179055508173ffffffffffffffffffffffffffffffffffffffff168373ffffffffffffffffffffffffffffffffffffffff167f17307eab39ab6107e8899845ad3d59bd9653f200f220920489ca2b5937696c318360405161109191906125e1565b60405180910390a3505050565b600073ffffffffffffffffffffffffffffffffffffffff168473ffffffffffffffffffffffffffffffffffffffff16141561110e576040517f08c379a00000000000000000000000000000000000000000000000000000000081526004016111059061269e565b60405180910390fd5b6000611118610a0f565b9050611138818787611129886114f8565b611132886114f8565b87611320565b600080600086815260200190815260200160002060008873ffffffffffffffffffffffffffffffffffffffff1673ffffffffffffffffffffffffffffffffffffffff168152602001908152602001600020549050838110156111cf576040517f08c379a00000000000000000000000000000000000000000000000000000000081526004016111c6906126de565b60405180910390fd5b83810360008087815260200190815260200160002060008973ffffffffffffffffffffffffffffffffffffffff1673ffffffffffffffffffffffffffffffffffffffff168152602001908152602001600020819055508360008087815260200190815260200160002060008873ffffffffffffffffffffffffffffffffffffffff1673ffffffffffffffffffffffffffffffffffffffff16815260200190815260200160002060008282546112849190612927565b925050819055508573ffffffffffffffffffffffffffffffffffffffff168773ffffffffffffffffffffffffffffffffffffffff168373ffffffffffffffffffffffffffffffffffffffff167fc3d58168c5ae7397731d063d5bbf3d657854427343f4c083240f7aacaa2d0f628888604051611301929190612799565b60405180910390a46113178288888888886115be565b50505050505050565b505050505050565b6113478473ffffffffffffffffffffffffffffffffffffffff1661178e565b156114f0578373ffffffffffffffffffffffffffffffffffffffff1663bc197c8187878686866040518663ffffffff1660e01b815260040161138d9594939291906124c6565b602060405180830381600087803b1580156113a757600080fd5b505af19250505080156113d857506040513d601f19601f820116820180604052508101906113d59190611e17565b60015b611467576113e4612b59565b806113ef575061142c565b806040517f08c379a000000000000000000000000000000000000000000000000000000000815260040161142391906125fc565b60405180910390fd5b6040517f08c379a000000000000000000000000000000000000000000000000000000000815260040161145e9061261e565b60405180910390fd5b63bc197c8160e01b7bffffffffffffffffffffffffffffffffffffffffffffffffffffffff1916817bffffffffffffffffffffffffffffffffffffffffffffffffffffffff1916146114ee576040517f08c379a00000000000000000000000000000000000000000000000000000000081526004016114e59061263e565b60405180910390fd5b505b505050505050565b60606000600167ffffffffffffffff81111561153d577f4e487b7100000000000000000000000000000000000000000000000000000000600052604160045260246000fd5b60405190808252806020026020018201604052801561156b5781602001602082028036833780820191505090505b50905082816000815181106115a9577f4e487b7100000000000000000000000000000000000000000000000000000000600052603260045260246000fd5b60200260200101818152505080915050919050565b6115dd8473ffffffffffffffffffffffffffffffffffffffff1661178e565b15611786578373ffffffffffffffffffffffffffffffffffffffff1663f23a6e6187878686866040518663ffffffff1660e01b815260040161162395949392919061252e565b602060405180830381600087803b15801561163d57600080fd5b505af192505050801561166e57506040513d601f19601f8201168201806040525081019061166b9190611e17565b60015b6116fd5761167a612b59565b8061168557506116c2565b806040517f08c379a00000000000000000000000000000000000000000000000000000000081526004016116b991906125fc565b60405180910390fd5b6040517f08c379a00000000000000000000000000000000000000000000000000000000081526004016116f49061261e565b60405180910390fd5b63f23a6e6160e01b7bffffffffffffffffffffffffffffffffffffffffffffffffffffffff1916817bffffffffffffffffffffffffffffffffffffffffffffffffffffffff191614611784576040517f08c379a000000000000000000000000000000000000000000000000000000000815260040161177b9061263e565b60405180910390fd5b505b505050505050565b600080823b905060008111915050919050565b8280546117ad90612a33565b90600052602060002090601f0160209004810192826117cf5760008555611816565b82601f106117e857805160ff1916838001178555611816565b82800160010185558215611816579182015b828111156118155782518255916020019190600101906117fa565b5b50905061182391906118b4565b5090565b82805461183390612a33565b90600052602060002090601f01602090048101928261185557600085556118a3565b82601f1061186657805485556118a3565b828001600101855582156118a357600052602060002091601f016020900482015b828111156118a2578254825591600101919060010190611887565b5b5090506118b091906118b4565b5090565b5b808211156118cd5760008160009055506001016118b5565b5090565b60006118e46118df846127f3565b6127c2565b9050808382526020820190508285602086028201111561190357600080fd5b60005b8581101561193357816119198882611a25565b845260208401935060208301925050600181019050611906565b5050509392505050565b600061195061194b8461281f565b6127c2565b9050808382526020820190508285602086028201111561196f57600080fd5b60005b8581101561199f57816119858882611b6b565b845260208401935060208301925050600181019050611972565b5050509392505050565b60006119bc6119b78461284b565b6127c2565b9050828152602081018484840111156119d457600080fd5b6119df8482856129f1565b509392505050565b60006119fa6119f58461287b565b6127c2565b905082815260208101848484011115611a1257600080fd5b611a1d8482856129f1565b509392505050565b600081359050611a3481612c0f565b92915050565b600082601f830112611a4b57600080fd5b8135611a5b8482602086016118d1565b91505092915050565b600082601f830112611a7557600080fd5b8135611a8584826020860161193d565b91505092915050565b600081359050611a9d81612c26565b92915050565b600081359050611ab281612c3d565b92915050565b600081519050611ac781612c3d565b92915050565b600082601f830112611ade57600080fd5b8135611aee8482602086016119a9565b91505092915050565b60008083601f840112611b0957600080fd5b8235905067ffffffffffffffff811115611b2257600080fd5b602083019150836001820283011115611b3a57600080fd5b9250929050565b600082601f830112611b5257600080fd5b8135611b628482602086016119e7565b91505092915050565b600081359050611b7a81612c54565b92915050565b60008060408385031215611b9357600080fd5b6000611ba185828601611a25565b9250506020611bb285828601611a25565b9150509250929050565b600080600080600060a08688031215611bd457600080fd5b6000611be288828901611a25565b9550506020611bf388828901611a25565b945050604086013567ffffffffffffffff811115611c1057600080fd5b611c1c88828901611a64565b935050606086013567ffffffffffffffff811115611c3957600080fd5b611c4588828901611a64565b925050608086013567ffffffffffffffff811115611c6257600080fd5b611c6e88828901611acd565b9150509295509295909350565b600080600080600060a08688031215611c9357600080fd5b6000611ca188828901611a25565b9550506020611cb288828901611a25565b9450506040611cc388828901611b6b565b9350506060611cd488828901611b6b565b925050608086013567ffffffffffffffff811115611cf157600080fd5b611cfd88828901611acd565b9150509295509295909350565b60008060408385031215611d1d57600080fd5b6000611d2b85828601611a25565b9250506020611d3c85828601611a8e565b9150509250929050565b60008060408385031215611d5957600080fd5b6000611d6785828601611a25565b9250506020611d7885828601611b6b565b9150509250929050565b60008060408385031215611d9557600080fd5b600083013567ffffffffffffffff811115611daf57600080fd5b611dbb85828601611a3a565b925050602083013567ffffffffffffffff811115611dd857600080fd5b611de485828601611a64565b9150509250929050565b600060208284031215611e0057600080fd5b6000611e0e84828501611aa3565b91505092915050565b600060208284031215611e2957600080fd5b6000611e3784828501611ab8565b91505092915050565b600060208284031215611e5257600080fd5b600082013567ffffffffffffffff811115611e6c57600080fd5b611e7884828501611b41565b91505092915050565b600060208284031215611e9357600080fd5b6000611ea184828501611b6b565b91505092915050565b600080600060408486031215611ebf57600080fd5b6000611ecd86828701611b6b565b935050602084013567ffffffffffffffff811115611eea57600080fd5b611ef686828701611af7565b92509250509250925092565b6000611f0e838361248f565b60208301905092915050565b611f238161297d565b82525050565b6000611f34826128bb565b611f3e81856128e9565b9350611f49836128ab565b8060005b83811015611f7a578151611f618882611f02565b9750611f6c836128dc565b925050600181019050611f4d565b5085935050505092915050565b611f908161298f565b82525050565b6000611fa1826128c6565b611fab81856128fa565b9350611fbb818560208601612a00565b611fc481612b3b565b840191505092915050565b6000611fdb838561291c565b9350611fe88385846129f1565b82840190509392505050565b6000611fff826128d1565b612009818561290b565b9350612019818560208601612a00565b61202281612b3b565b840191505092915050565b600061203a60348361290b565b91507f455243313135353a207472616e7366657220746f206e6f6e204552433131353560008301527f526563656976657220696d706c656d656e7465720000000000000000000000006020830152604082019050919050565b60006120a060288361290b565b91507f455243313135353a204552433131353552656365697665722072656a6563746560008301527f6420746f6b656e730000000000000000000000000000000000000000000000006020830152604082019050919050565b6000612106602b8361290b565b91507f455243313135353a2062616c616e636520717565727920666f7220746865207a60008301527f65726f20616464726573730000000000000000000000000000000000000000006020830152604082019050919050565b600061216c60298361290b565b91507f455243313135353a2063616c6c6572206973206e6f74206f776e6572206e6f7260008301527f20617070726f76656400000000000000000000000000000000000000000000006020830152604082019050919050565b60006121d260258361290b565b91507f455243313135353a207472616e7366657220746f20746865207a65726f20616460008301527f64726573730000000000000000000000000000000000000000000000000000006020830152604082019050919050565b600061223860328361290b565b91507f455243313135353a207472616e736665722063616c6c6572206973206e6f742060008301527f6f776e6572206e6f7220617070726f76656400000000000000000000000000006020830152604082019050919050565b600061229e602a8361290b565b91507f455243313135353a20696e73756666696369656e742062616c616e636520666f60008301527f72207472616e73666572000000000000000000000000000000000000000000006020830152604082019050919050565b600061230460298361290b565b91507f455243313135353a2073657474696e6720617070726f76616c2073746174757360008301527f20666f722073656c6600000000000000000000000000000000000000000000006020830152604082019050919050565b600061236a60298361290b565b91507f455243313135353a206163636f756e747320616e6420696473206c656e67746860008301527f206d69736d6174636800000000000000000000000000000000000000000000006020830152604082019050919050565b60006123d060288361290b565b91507f455243313135353a2069647320616e6420616d6f756e7473206c656e6774682060008301527f6d69736d617463680000000000000000000000000000000000000000000000006020830152604082019050919050565b600061243660218361290b565b91507f455243313135353a206d696e7420746f20746865207a65726f2061646472657360008301527f73000000000000000000000000000000000000000000000000000000000000006020830152604082019050919050565b612498816129e7565b82525050565b6124a7816129e7565b82525050565b60006124ba828486611fcf565b91508190509392505050565b600060a0820190506124db6000830188611f1a565b6124e86020830187611f1a565b81810360408301526124fa8186611f29565b9050818103606083015261250e8185611f29565b905081810360808301526125228184611f96565b90509695505050505050565b600060a0820190506125436000830188611f1a565b6125506020830187611f1a565b61255d604083018661249e565b61256a606083018561249e565b818103608083015261257c8184611f96565b90509695505050505050565b600060208201905081810360008301526125a28184611f29565b905092915050565b600060408201905081810360008301526125c48185611f29565b905081810360208301526125d88184611f29565b90509392505050565b60006020820190506125f66000830184611f87565b92915050565b600060208201905081810360008301526126168184611ff4565b905092915050565b600060208201905081810360008301526126378161202d565b9050919050565b6000602082019050818103600083015261265781612093565b9050919050565b60006020820190508181036000830152612677816120f9565b9050919050565b600060208201905081810360008301526126978161215f565b9050919050565b600060208201905081810360008301526126b7816121c5565b9050919050565b600060208201905081810360008301526126d78161222b565b9050919050565b600060208201905081810360008301526126f781612291565b9050919050565b60006020820190508181036000830152612717816122f7565b9050919050565b600060208201905081810360008301526127378161235d565b9050919050565b60006020820190508181036000830152612757816123c3565b9050919050565b6000602082019050818103600083015261277781612429565b9050919050565b6000602082019050612793600083018461249e565b92915050565b60006040820190506127ae600083018561249e565b6127bb602083018461249e565b9392505050565b6000604051905081810181811067ffffffffffffffff821117156127e9576127e8612b0c565b5b8060405250919050565b600067ffffffffffffffff82111561280e5761280d612b0c565b5b602082029050602081019050919050565b600067ffffffffffffffff82111561283a57612839612b0c565b5b602082029050602081019050919050565b600067ffffffffffffffff82111561286657612865612b0c565b5b601f19601f8301169050602081019050919050565b600067ffffffffffffffff82111561289657612895612b0c565b5b601f19601f8301169050602081019050919050565b6000819050602082019050919050565b600081519050919050565b600081519050919050565b600081519050919050565b6000602082019050919050565b600082825260208201905092915050565b600082825260208201905092915050565b600082825260208201905092915050565b600081905092915050565b6000612932826129e7565b915061293d836129e7565b9250827fffffffffffffffffffffffffffffffffffffffffffffffffffffffffffffffff0382111561297257612971612aae565b5b828201905092915050565b6000612988826129c7565b9050919050565b60008115159050919050565b60007fffffffff0000000000000000000000000000000000000000000000000000000082169050919050565b600073ffffffffffffffffffffffffffffffffffffffff82169050919050565b6000819050919050565b82818337600083830152505050565b60005b83811015612a1e578082015181840152602081019050612a03565b83811115612a2d576000848401525b50505050565b60006002820490506001821680612a4b57607f821691505b60208210811415612a5f57612a5e612add565b5b50919050565b6000612a70826129e7565b91507fffffffffffffffffffffffffffffffffffffffffffffffffffffffffffffffff821415612aa357612aa2612aae565b5b600182019050919050565b7f4e487b7100000000000000000000000000000000000000000000000000000000600052601160045260246000fd5b7f4e487b7100000000000000000000000000000000000000000000000000000000600052602260045260246000fd5b7f4e487b7100000000000000000000000000000000000000000000000000000000600052604160045260246000fd5b6000601f19601f8301169050919050565b60008160e01c9050919050565b600060443d1015612b6957612c0c565b60046000803e612b7a600051612b4c565b6308c379a08114612b8b5750612c0c565b60405160043d036004823e80513d602482011167ffffffffffffffff82111715612bb757505050612c0c565b808201805167ffffffffffffffff811115612bd6575050505050612c0c565b8060208301013d8501811115612bf157505050505050612c0c565b612bfa82612b3b565b60208401016040528296505050505050505b90565b612c188161297d565b8114612c2357600080fd5b50565b612c2f8161298f565b8114612c3a57600080fd5b50565b612c468161299b565b8114612c5157600080fd5b50565b612c5d816129e7565b8114612c6857600080fd5b5056fea2646970667358221220de8e38669b7befac43e28ed042209a9d10e5c4bc02eb3e44fe153e599c15dc5d64736f6c63430008000033",
  "linkReferences": {},
  "deployedLinkReferences": {}
}