{
  "_format": "hh-sol-artifact-1",
  "contractName": "MintBook",
  "sourceName": "contracts/mintBook.sol",
  "abi": [
    {
      "inputs": [],
      "stateMutability": "nonpayable",
      "type": "constructor"
    },
    {
      "anonymous": false,
      "inputs": [
        {
          "indexed": true,
          "internalType": "address",
          "name": "account",
          "type": "address"
        },
        {
          "indexed": true,
          "internalType": "address",
          "name": "operator",
          "type": "address"
        },
        {
          "indexed": false,
          "internalType": "bool",
          "name": "approved",
          "type": "bool"
        }
      ],
      "name": "ApprovalForAll",
      "type": "event"
    },
    {
      "anonymous": false,
      "inputs": [
        {
          "indexed": true,
          "internalType": "address",
          "name": "operator",
          "type": "address"
        },
        {
          "indexed": true,
          "internalType": "address",
          "name": "from",
          "type": "address"
        },
        {
          "indexed": true,
          "internalType": "address",
          "name": "to",
          "type": "address"
        },
        {
          "indexed": false,
          "internalType": "uint256[]",
          "name": "ids",
          "type": "uint256[]"
        },
        {
          "indexed": false,
          "internalType": "uint256[]",
          "name": "values",
          "type": "uint256[]"
        }
      ],
      "name": "TransferBatch",
      "type": "event"
    },
    {
      "anonymous": false,
      "inputs": [
        {
          "indexed": true,
          "internalType": "address",
          "name": "operator",
          "type": "address"
        },
        {
          "indexed": true,
          "internalType": "address",
          "name": "from",
          "type": "address"
        },
        {
          "indexed": true,
          "internalType": "address",
          "name": "to",
          "type": "address"
        },
        {
          "indexed": false,
          "internalType": "uint256",
          "name": "id",
          "type": "uint256"
        },
        {
          "indexed": false,
          "internalType": "uint256",
          "name": "value",
          "type": "uint256"
        }
      ],
      "name": "TransferSingle",
      "type": "event"
    },
    {
      "anonymous": false,
      "inputs": [
        {
          "indexed": false,
          "internalType": "string",
          "name": "value",
          "type": "string"
        },
        {
          "indexed": true,
          "internalType": "uint256",
          "name": "id",
          "type": "uint256"
        }
      ],
      "name": "URI",
      "type": "event"
    },
    {
      "inputs": [
        {
          "internalType": "address",
          "name": "account",
          "type": "address"
        },
        {
          "internalType": "uint256",
          "name": "id",
          "type": "uint256"
        }
      ],
      "name": "balanceOf",
      "outputs": [
        {
          "internalType": "uint256",
          "name": "",
          "type": "uint256"
        }
      ],
      "stateMutability": "view",
      "type": "function"
    },
    {
      "inputs": [
        {
          "internalType": "address[]",
          "name": "accounts",
          "type": "address[]"
        },
        {
          "internalType": "uint256[]",
          "name": "ids",
          "type": "uint256[]"
        }
      ],
      "name": "balanceOfBatch",
      "outputs": [
        {
          "internalType": "uint256[]",
          "name": "",
          "type": "uint256[]"
        }
      ],
      "stateMutability": "view",
      "type": "function"
    },
    {
      "inputs": [],
      "name": "baseURI",
      "outputs": [
        {
          "internalType": "string",
          "name": "",
          "type": "string"
        }
      ],
      "stateMutability": "view",
      "type": "function"
    },
    {
      "inputs": [],
      "name": "bookIds",
      "outputs": [
        {
          "internalType": "uint256",
          "name": "_value",
          "type": "uint256"
        }
      ],
      "stateMutability": "view",
      "type": "function"
    },
    {
      "inputs": [
        {
          "internalType": "uint256",
          "name": "",
          "type": "uint256"
        }
      ],
      "name": "booksURI",
      "outputs": [
        {
          "internalType": "string",
          "name": "",
          "type": "string"
        }
      ],
      "stateMutability": "view",
      "type": "function"
    },
    {
      "inputs": [
        {
          "internalType": "address",
          "name": "account",
          "type": "address"
        },
        {
          "internalType": "address",
          "name": "operator",
          "type": "address"
        }
      ],
      "name": "isApprovedForAll",
      "outputs": [
        {
          "internalType": "bool",
          "name": "",
          "type": "bool"
        }
      ],
      "stateMutability": "view",
      "type": "function"
    },
    {
      "inputs": [
        {
          "internalType": "uint256",
          "name": "quantity",
          "type": "uint256"
        },
        {
          "internalType": "string",
          "name": "URI",
          "type": "string"
        }
      ],
      "name": "mintABook",
      "outputs": [
        {
          "internalType": "uint256",
          "name": "",
          "type": "uint256"
        }
      ],
      "stateMutability": "nonpayable",
      "type": "function"
    },
    {
      "inputs": [
        {
          "internalType": "address",
          "name": "from",
          "type": "address"
        },
        {
          "internalType": "address",
          "name": "to",
          "type": "address"
        },
        {
          "internalType": "uint256[]",
          "name": "ids",
          "type": "uint256[]"
        },
        {
          "internalType": "uint256[]",
          "name": "amounts",
          "type": "uint256[]"
        },
        {
          "internalType": "bytes",
          "name": "data",
          "type": "bytes"
        }
      ],
      "name": "safeBatchTransferFrom",
      "outputs": [],
      "stateMutability": "nonpayable",
      "type": "function"
    },
    {
      "inputs": [
        {
          "internalType": "address",
          "name": "from",
          "type": "address"
        },
        {
          "internalType": "address",
          "name": "to",
          "type": "address"
        },
        {
          "internalType": "uint256",
          "name": "id",
          "type": "uint256"
        },
        {
          "internalType": "uint256",
          "name": "amount",
          "type": "uint256"
        },
        {
          "internalType": "bytes",
          "name": "data",
          "type": "bytes"
        }
      ],
      "name": "safeTransferFrom",
      "outputs": [],
      "stateMutability": "nonpayable",
      "type": "function"
    },
    {
      "inputs": [
        {
          "internalType": "address",
          "name": "operator",
          "type": "address"
        },
        {
          "internalType": "bool",
          "name": "approved",
          "type": "bool"
        }
      ],
      "name": "setApprovalForAll",
      "outputs": [],
      "stateMutability": "nonpayable",
      "type": "function"
    },
    {
      "inputs": [
        {
          "internalType": "bytes4",
          "name": "interfaceId",
          "type": "bytes4"
        }
      ],
      "name": "supportsInterface",
      "outputs": [
        {
          "internalType": "bool",
          "name": "",
          "type": "bool"
        }
      ],
      "stateMutability": "view",
      "type": "function"
    },
    {
      "inputs": [
        {
          "internalType": "uint256",
          "name": "_tokenId",
          "type": "uint256"
        }
      ],
      "name": "tokenURI",
      "outputs": [
        {
          "internalType": "string",
          "name": "",
          "type": "string"
        }
      ],
      "stateMutability": "view",
      "type": "function"
    },
    {
      "inputs": [
        {
          "internalType": "uint256",
          "name": "",
          "type": "uint256"
        }
      ],
      "name": "uri",
      "outputs": [
        {
          "internalType": "string",
          "name": "",
          "type": "string"
        }
      ],
      "stateMutability": "view",
      "type": "function"
    }
  ],
  "bytecode": "0x60806040523480156200001157600080fd5b506040518060200160405280600081525062000033816200003a60201b60201c565b506200016b565b80600290805190602001906200005292919062000056565b5050565b828054620000649062000106565b90600052602060002090601f016020900481019282620000885760008555620000d4565b82601f10620000a357805160ff1916838001178555620000d4565b82800160010185558215620000d4579182015b82811115620000d3578251825591602001919060010190620000b6565b5b509050620000e39190620000e7565b5090565b5b8082111562000102576000816000905550600101620000e8565b5090565b600060028204905060018216806200011f57607f821691505b602082108114156200013657620001356200013c565b5b50919050565b7f4e487b7100000000000000000000000000000000000000000000000000000000600052602260045260246000fd5b612c9b806200017b6000396000f3fe608060405234801561001057600080fd5b50600436106100ce5760003560e01c80634e1273f41161008c578063a22cb46511610066578063a22cb4651461024b578063c87b56dd14610267578063e985e9c514610297578063f242432a146102c7576100ce565b80634e1273f4146101cd5780636c0360eb146101fd57806383c205c81461021b576100ce565b8062fdd58e146100d357806301ffc9a7146101035780630e89341c146101335780631120dd68146101635780632eb2c2d61461019357806348e3f0eb146101af575b600080fd5b6100ed60048036038101906100e89190611dce565b6102e3565b6040516100fa9190612783565b60405180910390f35b61011d60048036038101906101189190611e76565b6103ac565b60405161012a91906125e6565b60405180910390f35b61014d60048036038101906101489190611ec8565b61048e565b60405161015a9190612601565b60405180910390f35b61017d60048036038101906101789190611ec8565b610522565b60405161018a9190612601565b60405180910390f35b6101ad60048036038101906101a89190611c44565b6105c2565b005b6101b7610663565b6040516101c49190612783565b60405180910390f35b6101e760048036038101906101e29190611e0a565b61066f565b6040516101f4919061258d565b60405180910390f35b610205610820565b6040516102129190612601565b60405180910390f35b61023560048036038101906102309190611ef1565b6108ae565b6040516102429190612783565b60405180910390f35b61026560048036038101906102609190611d92565b610914565b005b610281600480360381019061027c9190611ec8565b61092a565b60405161028e9190612601565b60405180910390f35b6102b160048036038101906102ac9190611c08565b6109cf565b6040516102be91906125e6565b60405180910390f35b6102e160048036038101906102dc9190611d03565b610a63565b005b60008073ffffffffffffffffffffffffffffffffffffffff168373ffffffffffffffffffffffffffffffffffffffff161415610354576040517f08c379a000000000000000000000000000000000000000000000000000000000815260040161034b90612663565b60405180910390fd5b60008083815260200190815260200160002060008473ffffffffffffffffffffffffffffffffffffffff1673ffffffffffffffffffffffffffffffffffffffff16815260200190815260200160002054905092915050565b60007fd9b67a26000000000000000000000000000000000000000000000000000000007bffffffffffffffffffffffffffffffffffffffffffffffffffffffff1916827bffffffffffffffffffffffffffffffffffffffffffffffffffffffff1916148061047757507f0e89341c000000000000000000000000000000000000000000000000000000007bffffffffffffffffffffffffffffffffffffffffffffffffffffffff1916827bffffffffffffffffffffffffffffffffffffffffffffffffffffffff1916145b80610487575061048682610b04565b5b9050919050565b60606002805461049d90612a2d565b80601f01602080910402602001604051908101604052809291908181526020018280546104c990612a2d565b80156105165780601f106104eb57610100808354040283529160200191610516565b820191906000526020600020905b8154815290600101906020018083116104f957829003601f168201915b50505050509050919050565b6005602052806000526040600020600091509050805461054190612a2d565b80601f016020809104026020016040519081016040528092919081815260200182805461056d90612a2d565b80156105ba5780601f1061058f576101008083540402835291602001916105ba565b820191906000526020600020905b81548152906001019060200180831161059d57829003601f168201915b505050505081565b6105ca610b6e565b73ffffffffffffffffffffffffffffffffffffffff168573ffffffffffffffffffffffffffffffffffffffff161480610610575061060f8561060a610b6e565b6109cf565b5b61064f576040517f08c379a0000000000000000000000000000000000000000000000000000000008152600401610646906126c3565b60405180910390fd5b61065c8585858585610b76565b5050505050565b60038060000154905081565b606081518351146106b5576040517f08c379a00000000000000000000000000000000000000000000000000000000081526004016106ac90612723565b60405180910390fd5b6000835167ffffffffffffffff8111156106f8577f4e487b7100000000000000000000000000000000000000000000000000000000600052604160045260246000fd5b6040519080825280602002602001820160405280156107265781602001602082028036833780820191505090505b50905060005b8451811015610815576107bf858281518110610771577f4e487b7100000000000000000000000000000000000000000000000000000000600052603260045260246000fd5b60200260200101518583815181106107b2577f4e487b7100000000000000000000000000000000000000000000000000000000600052603260045260246000fd5b60200260200101516102e3565b8282815181106107f8577f4e487b7100000000000000000000000000000000000000000000000000000000600052603260045260246000fd5b6020026020010181815250508061080e90612a5f565b905061072c565b508091505092915050565b6004805461082d90612a2d565b80601f016020809104026020016040519081016040528092919081815260200182805461085990612a2d565b80156108a65780601f1061087b576101008083540402835291602001916108a6565b820191906000526020600020905b81548152906001019060200180831161088957829003601f168201915b505050505081565b6000806108bb6003610ed6565b9050826005600083815260200190815260200160002090805190602001906108e4929190611900565b5061090033828660405180602001604052806000815250610ee4565b61090a600361107a565b8091505092915050565b61092661091f610b6e565b8383611090565b5050565b606060056000838152602001908152602001600020805461094a90612a2d565b80601f016020809104026020016040519081016040528092919081815260200182805461097690612a2d565b80156109c35780601f10610998576101008083540402835291602001916109c3565b820191906000526020600020905b8154815290600101906020018083116109a657829003601f168201915b50505050509050919050565b6000600160008473ffffffffffffffffffffffffffffffffffffffff1673ffffffffffffffffffffffffffffffffffffffff16815260200190815260200160002060008373ffffffffffffffffffffffffffffffffffffffff1673ffffffffffffffffffffffffffffffffffffffff16815260200190815260200160002060009054906101000a900460ff16905092915050565b610a6b610b6e565b73ffffffffffffffffffffffffffffffffffffffff168573ffffffffffffffffffffffffffffffffffffffff161480610ab15750610ab085610aab610b6e565b6109cf565b5b610af0576040517f08c379a0000000000000000000000000000000000000000000000000000000008152600401610ae790612683565b60405180910390fd5b610afd85858585856111fd565b5050505050565b60007f01ffc9a7000000000000000000000000000000000000000000000000000000007bffffffffffffffffffffffffffffffffffffffffffffffffffffffff1916827bffffffffffffffffffffffffffffffffffffffffffffffffffffffff1916149050919050565b600033905090565b8151835114610bba576040517f08c379a0000000000000000000000000000000000000000000000000000000008152600401610bb190612743565b60405180910390fd5b600073ffffffffffffffffffffffffffffffffffffffff168473ffffffffffffffffffffffffffffffffffffffff161415610c2a576040517f08c379a0000000000000000000000000000000000000000000000000000000008152600401610c21906126a3565b60405180910390fd5b6000610c34610b6e565b9050610c4481878787878761147f565b60005b8451811015610e41576000858281518110610c8b577f4e487b7100000000000000000000000000000000000000000000000000000000600052603260045260246000fd5b602002602001015190506000858381518110610cd0577f4e487b7100000000000000000000000000000000000000000000000000000000600052603260045260246000fd5b60200260200101519050600080600084815260200190815260200160002060008b73ffffffffffffffffffffffffffffffffffffffff1673ffffffffffffffffffffffffffffffffffffffff16815260200190815260200160002054905081811015610d71576040517f08c379a0000000000000000000000000000000000000000000000000000000008152600401610d68906126e3565b60405180910390fd5b81810360008085815260200190815260200160002060008c73ffffffffffffffffffffffffffffffffffffffff1673ffffffffffffffffffffffffffffffffffffffff168152602001908152602001600020819055508160008085815260200190815260200160002060008b73ffffffffffffffffffffffffffffffffffffffff1673ffffffffffffffffffffffffffffffffffffffff1681526020019081526020016000206000828254610e269190612921565b9250508190555050505080610e3a90612a5f565b9050610c47565b508473ffffffffffffffffffffffffffffffffffffffff168673ffffffffffffffffffffffffffffffffffffffff168273ffffffffffffffffffffffffffffffffffffffff167f4a39dc06d4c0dbc64b70af90fd698a233a518aa5d07e595d983b8c0526c8f7fb8787604051610eb89291906125af565b60405180910390a4610ece818787878787611487565b505050505050565b600081600001549050919050565b600073ffffffffffffffffffffffffffffffffffffffff168473ffffffffffffffffffffffffffffffffffffffff161415610f54576040517f08c379a0000000000000000000000000000000000000000000000000000000008152600401610f4b90612763565b60405180910390fd5b6000610f5e610b6e565b9050610f7f81600087610f7088611657565b610f7988611657565b8761147f565b8260008086815260200190815260200160002060008773ffffffffffffffffffffffffffffffffffffffff1673ffffffffffffffffffffffffffffffffffffffff1681526020019081526020016000206000828254610fde9190612921565b925050819055508473ffffffffffffffffffffffffffffffffffffffff16600073ffffffffffffffffffffffffffffffffffffffff168273ffffffffffffffffffffffffffffffffffffffff167fc3d58168c5ae7397731d063d5bbf3d657854427343f4c083240f7aacaa2d0f62878760405161105c92919061279e565b60405180910390a46110738160008787878761171d565b5050505050565b6001816000016000828254019250508190555050565b8173ffffffffffffffffffffffffffffffffffffffff168373ffffffffffffffffffffffffffffffffffffffff1614156110ff576040517f08c379a00000000000000000000000000000000000000000000000000000000081526004016110f690612703565b60405180910390fd5b80600160008573ffffffffffffffffffffffffffffffffffffffff1673ffffffffffffffffffffffffffffffffffffffff16815260200190815260200160002060008473ffffffffffffffffffffffffffffffffffffffff1673ffffffffffffffffffffffffffffffffffffffff16815260200190815260200160002060006101000a81548160ff0219169083151502179055508173ffffffffffffffffffffffffffffffffffffffff168373ffffffffffffffffffffffffffffffffffffffff167f17307eab39ab6107e8899845ad3d59bd9653f200f220920489ca2b5937696c31836040516111f091906125e6565b60405180910390a3505050565b600073ffffffffffffffffffffffffffffffffffffffff168473ffffffffffffffffffffffffffffffffffffffff16141561126d576040517f08c379a0000000000000000000000000000000000000000000000000000000008152600401611264906126a3565b60405180910390fd5b6000611277610b6e565b905061129781878761128888611657565b61129188611657565b8761147f565b600080600086815260200190815260200160002060008873ffffffffffffffffffffffffffffffffffffffff1673ffffffffffffffffffffffffffffffffffffffff1681526020019081526020016000205490508381101561132e576040517f08c379a0000000000000000000000000000000000000000000000000000000008152600401611325906126e3565b60405180910390fd5b83810360008087815260200190815260200160002060008973ffffffffffffffffffffffffffffffffffffffff1673ffffffffffffffffffffffffffffffffffffffff168152602001908152602001600020819055508360008087815260200190815260200160002060008873ffffffffffffffffffffffffffffffffffffffff1673ffffffffffffffffffffffffffffffffffffffff16815260200190815260200160002060008282546113e39190612921565b925050819055508573ffffffffffffffffffffffffffffffffffffffff168773ffffffffffffffffffffffffffffffffffffffff168373ffffffffffffffffffffffffffffffffffffffff167fc3d58168c5ae7397731d063d5bbf3d657854427343f4c083240f7aacaa2d0f62888860405161146092919061279e565b60405180910390a461147682888888888861171d565b50505050505050565b505050505050565b6114a68473ffffffffffffffffffffffffffffffffffffffff166118ed565b1561164f578373ffffffffffffffffffffffffffffffffffffffff1663bc197c8187878686866040518663ffffffff1660e01b81526004016114ec9594939291906124cb565b602060405180830381600087803b15801561150657600080fd5b505af192505050801561153757506040513d601f19601f820116820180604052508101906115349190611e9f565b60015b6115c657611543612b53565b8061154e575061158b565b806040517f08c379a00000000000000000000000000000000000000000000000000000000081526004016115829190612601565b60405180910390fd5b6040517f08c379a00000000000000000000000000000000000000000000000000000000081526004016115bd90612623565b60405180910390fd5b63bc197c8160e01b7bffffffffffffffffffffffffffffffffffffffffffffffffffffffff1916817bffffffffffffffffffffffffffffffffffffffffffffffffffffffff19161461164d576040517f08c379a000000000000000000000000000000000000000000000000000000000815260040161164490612643565b60405180910390fd5b505b505050505050565b60606000600167ffffffffffffffff81111561169c577f4e487b7100000000000000000000000000000000000000000000000000000000600052604160045260246000fd5b6040519080825280602002602001820160405280156116ca5781602001602082028036833780820191505090505b5090508281600081518110611708577f4e487b7100000000000000000000000000000000000000000000000000000000600052603260045260246000fd5b60200260200101818152505080915050919050565b61173c8473ffffffffffffffffffffffffffffffffffffffff166118ed565b156118e5578373ffffffffffffffffffffffffffffffffffffffff1663f23a6e6187878686866040518663ffffffff1660e01b8152600401611782959493929190612533565b602060405180830381600087803b15801561179c57600080fd5b505af19250505080156117cd57506040513d601f19601f820116820180604052508101906117ca9190611e9f565b60015b61185c576117d9612b53565b806117e45750611821565b806040517f08c379a00000000000000000000000000000000000000000000000000000000081526004016118189190612601565b60405180910390fd5b6040517f08c379a000000000000000000000000000000000000000000000000000000000815260040161185390612623565b60405180910390fd5b63f23a6e6160e01b7bffffffffffffffffffffffffffffffffffffffffffffffffffffffff1916817bffffffffffffffffffffffffffffffffffffffffffffffffffffffff1916146118e3576040517f08c379a00000000000000000000000000000000000000000000000000000000081526004016118da90612643565b60405180910390fd5b505b505050505050565b600080823b905060008111915050919050565b82805461190c90612a2d565b90600052602060002090601f01602090048101928261192e5760008555611975565b82601f1061194757805160ff1916838001178555611975565b82800160010185558215611975579182015b82811115611974578251825591602001919060010190611959565b5b5090506119829190611986565b5090565b5b8082111561199f576000816000905550600101611987565b5090565b60006119b66119b1846127f8565b6127c7565b905080838252602082019050828560208602820111156119d557600080fd5b60005b85811015611a0557816119eb8882611af7565b8452602084019350602083019250506001810190506119d8565b5050509392505050565b6000611a22611a1d84612824565b6127c7565b90508083825260208201905082856020860282011115611a4157600080fd5b60005b85811015611a715781611a578882611bf3565b845260208401935060208301925050600181019050611a44565b5050509392505050565b6000611a8e611a8984612850565b6127c7565b905082815260208101848484011115611aa657600080fd5b611ab18482856129eb565b509392505050565b6000611acc611ac784612880565b6127c7565b905082815260208101848484011115611ae457600080fd5b611aef8482856129eb565b509392505050565b600081359050611b0681612c09565b92915050565b600082601f830112611b1d57600080fd5b8135611b2d8482602086016119a3565b91505092915050565b600082601f830112611b4757600080fd5b8135611b57848260208601611a0f565b91505092915050565b600081359050611b6f81612c20565b92915050565b600081359050611b8481612c37565b92915050565b600081519050611b9981612c37565b92915050565b600082601f830112611bb057600080fd5b8135611bc0848260208601611a7b565b91505092915050565b600082601f830112611bda57600080fd5b8135611bea848260208601611ab9565b91505092915050565b600081359050611c0281612c4e565b92915050565b60008060408385031215611c1b57600080fd5b6000611c2985828601611af7565b9250506020611c3a85828601611af7565b9150509250929050565b600080600080600060a08688031215611c5c57600080fd5b6000611c6a88828901611af7565b9550506020611c7b88828901611af7565b945050604086013567ffffffffffffffff811115611c9857600080fd5b611ca488828901611b36565b935050606086013567ffffffffffffffff811115611cc157600080fd5b611ccd88828901611b36565b925050608086013567ffffffffffffffff811115611cea57600080fd5b611cf688828901611b9f565b9150509295509295909350565b600080600080600060a08688031215611d1b57600080fd5b6000611d2988828901611af7565b9550506020611d3a88828901611af7565b9450506040611d4b88828901611bf3565b9350506060611d5c88828901611bf3565b925050608086013567ffffffffffffffff811115611d7957600080fd5b611d8588828901611b9f565b9150509295509295909350565b60008060408385031215611da557600080fd5b6000611db385828601611af7565b9250506020611dc485828601611b60565b9150509250929050565b60008060408385031215611de157600080fd5b6000611def85828601611af7565b9250506020611e0085828601611bf3565b9150509250929050565b60008060408385031215611e1d57600080fd5b600083013567ffffffffffffffff811115611e3757600080fd5b611e4385828601611b0c565b925050602083013567ffffffffffffffff811115611e6057600080fd5b611e6c85828601611b36565b9150509250929050565b600060208284031215611e8857600080fd5b6000611e9684828501611b75565b91505092915050565b600060208284031215611eb157600080fd5b6000611ebf84828501611b8a565b91505092915050565b600060208284031215611eda57600080fd5b6000611ee884828501611bf3565b91505092915050565b60008060408385031215611f0457600080fd5b6000611f1285828601611bf3565b925050602083013567ffffffffffffffff811115611f2f57600080fd5b611f3b85828601611bc9565b9150509250929050565b6000611f5183836124ad565b60208301905092915050565b611f6681612977565b82525050565b6000611f77826128c0565b611f8181856128ee565b9350611f8c836128b0565b8060005b83811015611fbd578151611fa48882611f45565b9750611faf836128e1565b925050600181019050611f90565b5085935050505092915050565b611fd381612989565b82525050565b6000611fe4826128cb565b611fee81856128ff565b9350611ffe8185602086016129fa565b61200781612b35565b840191505092915050565b600061201d826128d6565b6120278185612910565b93506120378185602086016129fa565b61204081612b35565b840191505092915050565b6000612058603483612910565b91507f455243313135353a207472616e7366657220746f206e6f6e204552433131353560008301527f526563656976657220696d706c656d656e7465720000000000000000000000006020830152604082019050919050565b60006120be602883612910565b91507f455243313135353a204552433131353552656365697665722072656a6563746560008301527f6420746f6b656e730000000000000000000000000000000000000000000000006020830152604082019050919050565b6000612124602b83612910565b91507f455243313135353a2062616c616e636520717565727920666f7220746865207a60008301527f65726f20616464726573730000000000000000000000000000000000000000006020830152604082019050919050565b600061218a602983612910565b91507f455243313135353a2063616c6c6572206973206e6f74206f776e6572206e6f7260008301527f20617070726f76656400000000000000000000000000000000000000000000006020830152604082019050919050565b60006121f0602583612910565b91507f455243313135353a207472616e7366657220746f20746865207a65726f20616460008301527f64726573730000000000000000000000000000000000000000000000000000006020830152604082019050919050565b6000612256603283612910565b91507f455243313135353a207472616e736665722063616c6c6572206973206e6f742060008301527f6f776e6572206e6f7220617070726f76656400000000000000000000000000006020830152604082019050919050565b60006122bc602a83612910565b91507f455243313135353a20696e73756666696369656e742062616c616e636520666f60008301527f72207472616e73666572000000000000000000000000000000000000000000006020830152604082019050919050565b6000612322602983612910565b91507f455243313135353a2073657474696e6720617070726f76616c2073746174757360008301527f20666f722073656c6600000000000000000000000000000000000000000000006020830152604082019050919050565b6000612388602983612910565b91507f455243313135353a206163636f756e747320616e6420696473206c656e67746860008301527f206d69736d6174636800000000000000000000000000000000000000000000006020830152604082019050919050565b60006123ee602883612910565b91507f455243313135353a2069647320616e6420616d6f756e7473206c656e6774682060008301527f6d69736d617463680000000000000000000000000000000000000000000000006020830152604082019050919050565b6000612454602183612910565b91507f455243313135353a206d696e7420746f20746865207a65726f2061646472657360008301527f73000000000000000000000000000000000000000000000000000000000000006020830152604082019050919050565b6124b6816129e1565b82525050565b6124c5816129e1565b82525050565b600060a0820190506124e06000830188611f5d565b6124ed6020830187611f5d565b81810360408301526124ff8186611f6c565b905081810360608301526125138185611f6c565b905081810360808301526125278184611fd9565b90509695505050505050565b600060a0820190506125486000830188611f5d565b6125556020830187611f5d565b61256260408301866124bc565b61256f60608301856124bc565b81810360808301526125818184611fd9565b90509695505050505050565b600060208201905081810360008301526125a78184611f6c565b905092915050565b600060408201905081810360008301526125c98185611f6c565b905081810360208301526125dd8184611f6c565b90509392505050565b60006020820190506125fb6000830184611fca565b92915050565b6000602082019050818103600083015261261b8184612012565b905092915050565b6000602082019050818103600083015261263c8161204b565b9050919050565b6000602082019050818103600083015261265c816120b1565b9050919050565b6000602082019050818103600083015261267c81612117565b9050919050565b6000602082019050818103600083015261269c8161217d565b9050919050565b600060208201905081810360008301526126bc816121e3565b9050919050565b600060208201905081810360008301526126dc81612249565b9050919050565b600060208201905081810360008301526126fc816122af565b9050919050565b6000602082019050818103600083015261271c81612315565b9050919050565b6000602082019050818103600083015261273c8161237b565b9050919050565b6000602082019050818103600083015261275c816123e1565b9050919050565b6000602082019050818103600083015261277c81612447565b9050919050565b600060208201905061279860008301846124bc565b92915050565b60006040820190506127b360008301856124bc565b6127c060208301846124bc565b9392505050565b6000604051905081810181811067ffffffffffffffff821117156127ee576127ed612b06565b5b8060405250919050565b600067ffffffffffffffff82111561281357612812612b06565b5b602082029050602081019050919050565b600067ffffffffffffffff82111561283f5761283e612b06565b5b602082029050602081019050919050565b600067ffffffffffffffff82111561286b5761286a612b06565b5b601f19601f8301169050602081019050919050565b600067ffffffffffffffff82111561289b5761289a612b06565b5b601f19601f8301169050602081019050919050565b6000819050602082019050919050565b600081519050919050565b600081519050919050565b600081519050919050565b6000602082019050919050565b600082825260208201905092915050565b600082825260208201905092915050565b600082825260208201905092915050565b600061292c826129e1565b9150612937836129e1565b9250827fffffffffffffffffffffffffffffffffffffffffffffffffffffffffffffffff0382111561296c5761296b612aa8565b5b828201905092915050565b6000612982826129c1565b9050919050565b60008115159050919050565b60007fffffffff0000000000000000000000000000000000000000000000000000000082169050919050565b600073ffffffffffffffffffffffffffffffffffffffff82169050919050565b6000819050919050565b82818337600083830152505050565b60005b83811015612a185780820151818401526020810190506129fd565b83811115612a27576000848401525b50505050565b60006002820490506001821680612a4557607f821691505b60208210811415612a5957612a58612ad7565b5b50919050565b6000612a6a826129e1565b91507fffffffffffffffffffffffffffffffffffffffffffffffffffffffffffffffff821415612a9d57612a9c612aa8565b5b600182019050919050565b7f4e487b7100000000000000000000000000000000000000000000000000000000600052601160045260246000fd5b7f4e487b7100000000000000000000000000000000000000000000000000000000600052602260045260246000fd5b7f4e487b7100000000000000000000000000000000000000000000000000000000600052604160045260246000fd5b6000601f19601f8301169050919050565b60008160e01c9050919050565b600060443d1015612b6357612c06565b60046000803e612b74600051612b46565b6308c379a08114612b855750612c06565b60405160043d036004823e80513d602482011167ffffffffffffffff82111715612bb157505050612c06565b808201805167ffffffffffffffff811115612bd0575050505050612c06565b8060208301013d8501811115612beb57505050505050612c06565b612bf482612b35565b60208401016040528296505050505050505b90565b612c1281612977565b8114612c1d57600080fd5b50565b612c2981612989565b8114612c3457600080fd5b50565b612c4081612995565b8114612c4b57600080fd5b50565b612c57816129e1565b8114612c6257600080fd5b5056fea2646970667358221220f77661a073f35b37c974cdd811049713110030da7a530578316807aef93e04da64736f6c63430008000033",
  "linkReferences": {},
  "deployedLinkReferences": {}
}