{
  "_format": "hh-sol-artifact-1",
  "contractName": "MintBook",
  "sourceName": "contracts/mintBook.sol",
  "abi": [
    {
      "inputs": [],
      "stateMutability": "nonpayable",
      "type": "constructor"
    },
    {
      "anonymous": false,
      "inputs": [
        {
          "indexed": true,
          "internalType": "address",
          "name": "account",
          "type": "address"
        },
        {
          "indexed": true,
          "internalType": "address",
          "name": "operator",
          "type": "address"
        },
        {
          "indexed": false,
          "internalType": "bool",
          "name": "approved",
          "type": "bool"
        }
      ],
      "name": "ApprovalForAll",
      "type": "event"
    },
    {
      "anonymous": false,
      "inputs": [
        {
          "indexed": true,
          "internalType": "address",
          "name": "operator",
          "type": "address"
        },
        {
          "indexed": true,
          "internalType": "address",
          "name": "from",
          "type": "address"
        },
        {
          "indexed": true,
          "internalType": "address",
          "name": "to",
          "type": "address"
        },
        {
          "indexed": false,
          "internalType": "uint256[]",
          "name": "ids",
          "type": "uint256[]"
        },
        {
          "indexed": false,
          "internalType": "uint256[]",
          "name": "values",
          "type": "uint256[]"
        }
      ],
      "name": "TransferBatch",
      "type": "event"
    },
    {
      "anonymous": false,
      "inputs": [
        {
          "indexed": true,
          "internalType": "address",
          "name": "operator",
          "type": "address"
        },
        {
          "indexed": true,
          "internalType": "address",
          "name": "from",
          "type": "address"
        },
        {
          "indexed": true,
          "internalType": "address",
          "name": "to",
          "type": "address"
        },
        {
          "indexed": false,
          "internalType": "uint256",
          "name": "id",
          "type": "uint256"
        },
        {
          "indexed": false,
          "internalType": "uint256",
          "name": "value",
          "type": "uint256"
        }
      ],
      "name": "TransferSingle",
      "type": "event"
    },
    {
      "anonymous": false,
      "inputs": [
        {
          "indexed": false,
          "internalType": "string",
          "name": "value",
          "type": "string"
        },
        {
          "indexed": true,
          "internalType": "uint256",
          "name": "id",
          "type": "uint256"
        }
      ],
      "name": "URI",
      "type": "event"
    },
    {
      "inputs": [
        {
          "internalType": "address",
          "name": "account",
          "type": "address"
        },
        {
          "internalType": "uint256",
          "name": "id",
          "type": "uint256"
        }
      ],
      "name": "balanceOf",
      "outputs": [
        {
          "internalType": "uint256",
          "name": "",
          "type": "uint256"
        }
      ],
      "stateMutability": "view",
      "type": "function"
    },
    {
      "inputs": [
        {
          "internalType": "address[]",
          "name": "accounts",
          "type": "address[]"
        },
        {
          "internalType": "uint256[]",
          "name": "ids",
          "type": "uint256[]"
        }
      ],
      "name": "balanceOfBatch",
      "outputs": [
        {
          "internalType": "uint256[]",
          "name": "",
          "type": "uint256[]"
        }
      ],
      "stateMutability": "view",
      "type": "function"
    },
    {
      "inputs": [],
      "name": "balanceOfEth",
      "outputs": [
        {
          "internalType": "uint256",
          "name": "",
          "type": "uint256"
        }
      ],
      "stateMutability": "view",
      "type": "function"
    },
    {
      "inputs": [],
      "name": "baseURI",
      "outputs": [
        {
          "internalType": "string",
          "name": "",
          "type": "string"
        }
      ],
      "stateMutability": "view",
      "type": "function"
    },
    {
      "inputs": [],
      "name": "bookIds",
      "outputs": [
        {
          "internalType": "uint256",
          "name": "_value",
          "type": "uint256"
        }
      ],
      "stateMutability": "view",
      "type": "function"
    },
    {
      "inputs": [
        {
          "internalType": "uint256",
          "name": "",
          "type": "uint256"
        }
      ],
      "name": "books",
      "outputs": [
        {
          "internalType": "uint256",
          "name": "price",
          "type": "uint256"
        },
        {
          "internalType": "string",
          "name": "URI",
          "type": "string"
        },
        {
          "internalType": "address payable",
          "name": "author",
          "type": "address"
        }
      ],
      "stateMutability": "view",
      "type": "function"
    },
    {
      "inputs": [
        {
          "internalType": "uint256",
          "name": "_bookId",
          "type": "uint256"
        }
      ],
      "name": "buy",
      "outputs": [
        {
          "internalType": "bool",
          "name": "",
          "type": "bool"
        }
      ],
      "stateMutability": "payable",
      "type": "function"
    },
    {
      "inputs": [
        {
          "internalType": "address",
          "name": "user",
          "type": "address"
        }
      ],
      "name": "getIds",
      "outputs": [
        {
          "internalType": "uint256[]",
          "name": "",
          "type": "uint256[]"
        }
      ],
      "stateMutability": "view",
      "type": "function"
    },
    {
      "inputs": [
        {
          "internalType": "address",
          "name": "account",
          "type": "address"
        },
        {
          "internalType": "address",
          "name": "operator",
          "type": "address"
        }
      ],
      "name": "isApprovedForAll",
      "outputs": [
        {
          "internalType": "bool",
          "name": "",
          "type": "bool"
        }
      ],
      "stateMutability": "view",
      "type": "function"
    },
    {
      "inputs": [
        {
          "internalType": "uint256",
          "name": "_quantity",
          "type": "uint256"
        },
        {
          "internalType": "string",
          "name": "_URI",
          "type": "string"
        },
        {
          "internalType": "uint256",
          "name": "_price",
          "type": "uint256"
        }
      ],
      "name": "mintABook",
      "outputs": [
        {
          "internalType": "uint256",
          "name": "",
          "type": "uint256"
        }
      ],
      "stateMutability": "nonpayable",
      "type": "function"
    },
    {
      "inputs": [
        {
          "internalType": "address",
          "name": "",
          "type": "address"
        },
        {
          "internalType": "address",
          "name": "",
          "type": "address"
        },
        {
          "internalType": "uint256[]",
          "name": "",
          "type": "uint256[]"
        },
        {
          "internalType": "uint256[]",
          "name": "",
          "type": "uint256[]"
        },
        {
          "internalType": "bytes",
          "name": "",
          "type": "bytes"
        }
      ],
      "name": "onERC1155BatchReceived",
      "outputs": [
        {
          "internalType": "bytes4",
          "name": "",
          "type": "bytes4"
        }
      ],
      "stateMutability": "nonpayable",
      "type": "function"
    },
    {
      "inputs": [
        {
          "internalType": "address",
          "name": "",
          "type": "address"
        },
        {
          "internalType": "address",
          "name": "",
          "type": "address"
        },
        {
          "internalType": "uint256",
          "name": "",
          "type": "uint256"
        },
        {
          "internalType": "uint256",
          "name": "",
          "type": "uint256"
        },
        {
          "internalType": "bytes",
          "name": "",
          "type": "bytes"
        }
      ],
      "name": "onERC1155Received",
      "outputs": [
        {
          "internalType": "bytes4",
          "name": "",
          "type": "bytes4"
        }
      ],
      "stateMutability": "nonpayable",
      "type": "function"
    },
    {
      "inputs": [
        {
          "internalType": "address",
          "name": "from",
          "type": "address"
        },
        {
          "internalType": "address",
          "name": "to",
          "type": "address"
        },
        {
          "internalType": "uint256[]",
          "name": "ids",
          "type": "uint256[]"
        },
        {
          "internalType": "uint256[]",
          "name": "amounts",
          "type": "uint256[]"
        },
        {
          "internalType": "bytes",
          "name": "data",
          "type": "bytes"
        }
      ],
      "name": "safeBatchTransferFrom",
      "outputs": [],
      "stateMutability": "nonpayable",
      "type": "function"
    },
    {
      "inputs": [
        {
          "internalType": "address",
          "name": "from",
          "type": "address"
        },
        {
          "internalType": "address",
          "name": "to",
          "type": "address"
        },
        {
          "internalType": "uint256",
          "name": "id",
          "type": "uint256"
        },
        {
          "internalType": "uint256",
          "name": "amount",
          "type": "uint256"
        },
        {
          "internalType": "bytes",
          "name": "data",
          "type": "bytes"
        }
      ],
      "name": "safeTransferFrom",
      "outputs": [],
      "stateMutability": "nonpayable",
      "type": "function"
    },
    {
      "inputs": [
        {
          "internalType": "address",
          "name": "operator",
          "type": "address"
        },
        {
          "internalType": "bool",
          "name": "approved",
          "type": "bool"
        }
      ],
      "name": "setApprovalForAll",
      "outputs": [],
      "stateMutability": "nonpayable",
      "type": "function"
    },
    {
      "inputs": [
        {
          "internalType": "bytes4",
          "name": "interfaceId",
          "type": "bytes4"
        }
      ],
      "name": "supportsInterface",
      "outputs": [
        {
          "internalType": "bool",
          "name": "",
          "type": "bool"
        }
      ],
      "stateMutability": "view",
      "type": "function"
    },
    {
      "inputs": [
        {
          "internalType": "uint256",
          "name": "_tokenId",
          "type": "uint256"
        }
      ],
      "name": "tokenURI",
      "outputs": [
        {
          "internalType": "string",
          "name": "",
          "type": "string"
        }
      ],
      "stateMutability": "view",
      "type": "function"
    },
    {
      "inputs": [
        {
          "internalType": "uint256",
          "name": "",
          "type": "uint256"
        }
      ],
      "name": "uri",
      "outputs": [
        {
          "internalType": "string",
          "name": "",
          "type": "string"
        }
      ],
      "stateMutability": "view",
      "type": "function"
    },
    {
      "stateMutability": "payable",
      "type": "receive"
    }
  ],
  "bytecode": "0x60806040523480156200001157600080fd5b506040518060200160405280600081525062000033816200003a60201b60201c565b506200016b565b80600290805190602001906200005292919062000056565b5050565b828054620000649062000106565b90600052602060002090601f016020900481019282620000885760008555620000d4565b82601f10620000a357805160ff1916838001178555620000d4565b82800160010185558215620000d4579182015b82811115620000d3578251825591602001919060010190620000b6565b5b509050620000e39190620000e7565b5090565b5b8082111562000102576000816000905550600101620000e8565b5090565b600060028204905060018216806200011f57607f821691505b602082108114156200013657620001356200013c565b5b50919050565b7f4e487b7100000000000000000000000000000000000000000000000000000000600052602260045260246000fd5b6134eb806200017b6000396000f3fe60806040526004361061010c5760003560e01c80636874404611610095578063c87b56dd11610064578063c87b56dd146103d5578063d96a094a14610412578063e985e9c514610442578063f23a6e611461047f578063f242432a146104bc57610113565b806368744046146103055780636c0360eb14610344578063a22cb4651461036f578063bc197c811461039857610113565b80632671b0d8116100dc5780632671b0d8146101fa5780632eb2c2d61461023757806348e3f0eb146102605780634e1273f41461028b5780634fc3c4fc146102c857610113565b8062fdd58e1461011857806301ffc9a71461015557806306048fdb146101925780630e89341c146101bd57610113565b3661011357005b600080fd5b34801561012457600080fd5b5061013f600480360381019061013a9190612408565b6104e5565b60405161014c9190612ec9565b60405180910390f35b34801561016157600080fd5b5061017c600480360381019061017791906124b0565b6105ae565b6040516101899190612cd1565b60405180910390f35b34801561019e57600080fd5b506101a76105c0565b6040516101b49190612ec9565b60405180910390f35b3480156101c957600080fd5b506101e460048036038101906101df9190612502565b6105c8565b6040516101f19190612d07565b60405180910390f35b34801561020657600080fd5b50610221600480360381019061021c9190612219565b61065c565b60405161022e9190612c78565b60405180910390f35b34801561024357600080fd5b5061025e6004803603810190610259919061227e565b6106f3565b005b34801561026c57600080fd5b50610275610794565b6040516102829190612ec9565b60405180910390f35b34801561029757600080fd5b506102b260048036038101906102ad9190612444565b6107a0565b6040516102bf9190612c78565b60405180910390f35b3480156102d457600080fd5b506102ef60048036038101906102ea919061252b565b610951565b6040516102fc9190612ec9565b60405180910390f35b34801561031157600080fd5b5061032c60048036038101906103279190612502565b610a50565b60405161033b93929190612ee4565b60405180910390f35b34801561035057600080fd5b50610359610b22565b6040516103669190612d07565b60405180910390f35b34801561037b57600080fd5b50610396600480360381019061039191906123cc565b610bb0565b005b3480156103a457600080fd5b506103bf60048036038101906103ba919061227e565b610bc6565b6040516103cc9190612cec565b60405180910390f35b3480156103e157600080fd5b506103fc60048036038101906103f79190612502565b610bdb565b6040516104099190612d07565b60405180910390f35b61042c60048036038101906104279190612502565b610c83565b6040516104399190612cd1565b60405180910390f35b34801561044e57600080fd5b5061046960048036038101906104649190612242565b610e6f565b6040516104769190612cd1565b60405180910390f35b34801561048b57600080fd5b506104a660048036038101906104a1919061233d565b610f03565b6040516104b39190612cec565b60405180910390f35b3480156104c857600080fd5b506104e360048036038101906104de919061233d565b610f18565b005b60008073ffffffffffffffffffffffffffffffffffffffff168373ffffffffffffffffffffffffffffffffffffffff161415610556576040517f08c379a000000000000000000000000000000000000000000000000000000000815260040161054d90612d69565b60405180910390fd5b60008083815260200190815260200160002060008473ffffffffffffffffffffffffffffffffffffffff1673ffffffffffffffffffffffffffffffffffffffff16815260200190815260200160002054905092915050565b60006105b982610fb9565b9050919050565b600047905090565b6060600280546105d79061324e565b80601f01602080910402602001604051908101604052809291908181526020018280546106039061324e565b80156106505780601f1061062557610100808354040283529160200191610650565b820191906000526020600020905b81548152906001019060200180831161063357829003601f168201915b50505050509050919050565b6060600660008373ffffffffffffffffffffffffffffffffffffffff1673ffffffffffffffffffffffffffffffffffffffff1681526020019081526020016000208054806020026020016040519081016040528092919081815260200182805480156106e757602002820191906000526020600020905b8154815260200190600101908083116106d3575b50505050509050919050565b6106fb611033565b73ffffffffffffffffffffffffffffffffffffffff168573ffffffffffffffffffffffffffffffffffffffff16148061074157506107408561073b611033565b610e6f565b5b610780576040517f08c379a000000000000000000000000000000000000000000000000000000000815260040161077790612de9565b60405180910390fd5b61078d858585858561103b565b5050505050565b60038060000154905081565b606081518351146107e6576040517f08c379a00000000000000000000000000000000000000000000000000000000081526004016107dd90612e69565b60405180910390fd5b6000835167ffffffffffffffff811115610829577f4e487b7100000000000000000000000000000000000000000000000000000000600052604160045260246000fd5b6040519080825280602002602001820160405280156108575781602001602082028036833780820191505090505b50905060005b8451811015610946576108f08582815181106108a2577f4e487b7100000000000000000000000000000000000000000000000000000000600052603260045260246000fd5b60200260200101518583815181106108e3577f4e487b7100000000000000000000000000000000000000000000000000000000600052603260045260246000fd5b60200260200101516104e5565b828281518110610929577f4e487b7100000000000000000000000000000000000000000000000000000000600052603260045260246000fd5b6020026020010181815250508061093f90613280565b905061085d565b508091505092915050565b60008061095e600361139b565b905060405180606001604052808481526020018581526020013373ffffffffffffffffffffffffffffffffffffffff16815250600560008381526020019081526020016000206000820151816000015560208201518160010190805190602001906109ca929190611f11565b5060408201518160020160006101000a81548173ffffffffffffffffffffffffffffffffffffffff021916908373ffffffffffffffffffffffffffffffffffffffff160217905550905050610a30308287604051806020016040528060008152506113a9565b610a3b306001610bb0565b610a45600361153f565b809150509392505050565b6005602052806000526040600020600091509050806000015490806001018054610a799061324e565b80601f0160208091040260200160405190810160405280929190818152602001828054610aa59061324e565b8015610af25780601f10610ac757610100808354040283529160200191610af2565b820191906000526020600020905b815481529060010190602001808311610ad557829003601f168201915b5050505050908060020160009054906101000a900473ffffffffffffffffffffffffffffffffffffffff16905083565b60048054610b2f9061324e565b80601f0160208091040260200160405190810160405280929190818152602001828054610b5b9061324e565b8015610ba85780601f10610b7d57610100808354040283529160200191610ba8565b820191906000526020600020905b815481529060010190602001808311610b8b57829003601f168201915b505050505081565b610bc2610bbb611033565b8383611555565b5050565b600063bc197c8160e01b905095945050505050565b6060600560008381526020019081526020016000206001018054610bfe9061324e565b80601f0160208091040260200160405190810160405280929190818152602001828054610c2a9061324e565b8015610c775780601f10610c4c57610100808354040283529160200191610c77565b820191906000526020600020905b815481529060010190602001808311610c5a57829003601f168201915b50505050509050919050565b60006005600083815260200190815260200160002060000154341015610cde576040517f08c379a0000000000000000000000000000000000000000000000000000000008152600401610cd590612da9565b60405180910390fd5b600073ffffffffffffffffffffffffffffffffffffffff163373ffffffffffffffffffffffffffffffffffffffff161415610d4e576040517f08c379a0000000000000000000000000000000000000000000000000000000008152600401610d4590612e09565b60405180910390fd5b610d6b3033846001604051806020016040528060008152506116c2565b600660003373ffffffffffffffffffffffffffffffffffffffff1673ffffffffffffffffffffffffffffffffffffffff1681526020019081526020016000208290806001815401808255809150506001900390600052602060002001600090919091909150556005600083815260200190815260200160002060020160009054906101000a900473ffffffffffffffffffffffffffffffffffffffff1673ffffffffffffffffffffffffffffffffffffffff166108fc6064606234610e30919061312c565b610e3a91906130fb565b9081150290604051600060405180830381858888f19350505050158015610e65573d6000803e3d6000fd5b5060019050919050565b6000600160008473ffffffffffffffffffffffffffffffffffffffff1673ffffffffffffffffffffffffffffffffffffffff16815260200190815260200160002060008373ffffffffffffffffffffffffffffffffffffffff1673ffffffffffffffffffffffffffffffffffffffff16815260200190815260200160002060009054906101000a900460ff16905092915050565b600063f23a6e6160e01b905095945050505050565b610f20611033565b73ffffffffffffffffffffffffffffffffffffffff168573ffffffffffffffffffffffffffffffffffffffff161480610f665750610f6585610f60611033565b610e6f565b5b610fa5576040517f08c379a0000000000000000000000000000000000000000000000000000000008152600401610f9c90612d89565b60405180910390fd5b610fb285858585856116c2565b5050505050565b60007f4e2312e0000000000000000000000000000000000000000000000000000000007bffffffffffffffffffffffffffffffffffffffffffffffffffffffff1916827bffffffffffffffffffffffffffffffffffffffffffffffffffffffff1916148061102c575061102b82611944565b5b9050919050565b600033905090565b815183511461107f576040517f08c379a000000000000000000000000000000000000000000000000000000000815260040161107690612e89565b60405180910390fd5b600073ffffffffffffffffffffffffffffffffffffffff168473ffffffffffffffffffffffffffffffffffffffff1614156110ef576040517f08c379a00000000000000000000000000000000000000000000000000000000081526004016110e690612dc9565b60405180910390fd5b60006110f9611033565b9050611109818787878787611a26565b60005b8451811015611306576000858281518110611150577f4e487b7100000000000000000000000000000000000000000000000000000000600052603260045260246000fd5b602002602001015190506000858381518110611195577f4e487b7100000000000000000000000000000000000000000000000000000000600052603260045260246000fd5b60200260200101519050600080600084815260200190815260200160002060008b73ffffffffffffffffffffffffffffffffffffffff1673ffffffffffffffffffffffffffffffffffffffff16815260200190815260200160002054905081811015611236576040517f08c379a000000000000000000000000000000000000000000000000000000000815260040161122d90612e29565b60405180910390fd5b81810360008085815260200190815260200160002060008c73ffffffffffffffffffffffffffffffffffffffff1673ffffffffffffffffffffffffffffffffffffffff168152602001908152602001600020819055508160008085815260200190815260200160002060008b73ffffffffffffffffffffffffffffffffffffffff1673ffffffffffffffffffffffffffffffffffffffff16815260200190815260200160002060008282546112eb91906130a5565b92505081905550505050806112ff90613280565b905061110c565b508473ffffffffffffffffffffffffffffffffffffffff168673ffffffffffffffffffffffffffffffffffffffff168273ffffffffffffffffffffffffffffffffffffffff167f4a39dc06d4c0dbc64b70af90fd698a233a518aa5d07e595d983b8c0526c8f7fb878760405161137d929190612c9a565b60405180910390a4611393818787878787611a2e565b505050505050565b600081600001549050919050565b600073ffffffffffffffffffffffffffffffffffffffff168473ffffffffffffffffffffffffffffffffffffffff161415611419576040517f08c379a000000000000000000000000000000000000000000000000000000000815260040161141090612ea9565b60405180910390fd5b6000611423611033565b90506114448160008761143588611bfe565b61143e88611bfe565b87611a26565b8260008086815260200190815260200160002060008773ffffffffffffffffffffffffffffffffffffffff1673ffffffffffffffffffffffffffffffffffffffff16815260200190815260200160002060008282546114a391906130a5565b925050819055508473ffffffffffffffffffffffffffffffffffffffff16600073ffffffffffffffffffffffffffffffffffffffff168273ffffffffffffffffffffffffffffffffffffffff167fc3d58168c5ae7397731d063d5bbf3d657854427343f4c083240f7aacaa2d0f628787604051611521929190612f22565b60405180910390a461153881600087878787611cc4565b5050505050565b6001816000016000828254019250508190555050565b8173ffffffffffffffffffffffffffffffffffffffff168373ffffffffffffffffffffffffffffffffffffffff1614156115c4576040517f08c379a00000000000000000000000000000000000000000000000000000000081526004016115bb90612e49565b60405180910390fd5b80600160008573ffffffffffffffffffffffffffffffffffffffff1673ffffffffffffffffffffffffffffffffffffffff16815260200190815260200160002060008473ffffffffffffffffffffffffffffffffffffffff1673ffffffffffffffffffffffffffffffffffffffff16815260200190815260200160002060006101000a81548160ff0219169083151502179055508173ffffffffffffffffffffffffffffffffffffffff168373ffffffffffffffffffffffffffffffffffffffff167f17307eab39ab6107e8899845ad3d59bd9653f200f220920489ca2b5937696c31836040516116b59190612cd1565b60405180910390a3505050565b600073ffffffffffffffffffffffffffffffffffffffff168473ffffffffffffffffffffffffffffffffffffffff161415611732576040517f08c379a000000000000000000000000000000000000000000000000000000000815260040161172990612dc9565b60405180910390fd5b600061173c611033565b905061175c81878761174d88611bfe565b61175688611bfe565b87611a26565b600080600086815260200190815260200160002060008873ffffffffffffffffffffffffffffffffffffffff1673ffffffffffffffffffffffffffffffffffffffff168152602001908152602001600020549050838110156117f3576040517f08c379a00000000000000000000000000000000000000000000000000000000081526004016117ea90612e29565b60405180910390fd5b83810360008087815260200190815260200160002060008973ffffffffffffffffffffffffffffffffffffffff1673ffffffffffffffffffffffffffffffffffffffff168152602001908152602001600020819055508360008087815260200190815260200160002060008873ffffffffffffffffffffffffffffffffffffffff1673ffffffffffffffffffffffffffffffffffffffff16815260200190815260200160002060008282546118a891906130a5565b925050819055508573ffffffffffffffffffffffffffffffffffffffff168773ffffffffffffffffffffffffffffffffffffffff168373ffffffffffffffffffffffffffffffffffffffff167fc3d58168c5ae7397731d063d5bbf3d657854427343f4c083240f7aacaa2d0f628888604051611925929190612f22565b60405180910390a461193b828888888888611cc4565b50505050505050565b60007fd9b67a26000000000000000000000000000000000000000000000000000000007bffffffffffffffffffffffffffffffffffffffffffffffffffffffff1916827bffffffffffffffffffffffffffffffffffffffffffffffffffffffff19161480611a0f57507f0e89341c000000000000000000000000000000000000000000000000000000007bffffffffffffffffffffffffffffffffffffffffffffffffffffffff1916827bffffffffffffffffffffffffffffffffffffffffffffffffffffffff1916145b80611a1f5750611a1e82611e94565b5b9050919050565b505050505050565b611a4d8473ffffffffffffffffffffffffffffffffffffffff16611efe565b15611bf6578373ffffffffffffffffffffffffffffffffffffffff1663bc197c8187878686866040518663ffffffff1660e01b8152600401611a93959493929190612bb6565b602060405180830381600087803b158015611aad57600080fd5b505af1925050508015611ade57506040513d601f19601f82011682018060405250810190611adb91906124d9565b60015b611b6d57611aea6133a3565b80611af55750611b32565b806040517f08c379a0000000000000000000000000000000000000000000000000000000008152600401611b299190612d07565b60405180910390fd5b6040517f08c379a0000000000000000000000000000000000000000000000000000000008152600401611b6490612d29565b60405180910390fd5b63bc197c8160e01b7bffffffffffffffffffffffffffffffffffffffffffffffffffffffff1916817bffffffffffffffffffffffffffffffffffffffffffffffffffffffff191614611bf4576040517f08c379a0000000000000000000000000000000000000000000000000000000008152600401611beb90612d49565b60405180910390fd5b505b505050505050565b60606000600167ffffffffffffffff811115611c43577f4e487b7100000000000000000000000000000000000000000000000000000000600052604160045260246000fd5b604051908082528060200260200182016040528015611c715781602001602082028036833780820191505090505b5090508281600081518110611caf577f4e487b7100000000000000000000000000000000000000000000000000000000600052603260045260246000fd5b60200260200101818152505080915050919050565b611ce38473ffffffffffffffffffffffffffffffffffffffff16611efe565b15611e8c578373ffffffffffffffffffffffffffffffffffffffff1663f23a6e6187878686866040518663ffffffff1660e01b8152600401611d29959493929190612c1e565b602060405180830381600087803b158015611d4357600080fd5b505af1925050508015611d7457506040513d601f19601f82011682018060405250810190611d7191906124d9565b60015b611e0357611d806133a3565b80611d8b5750611dc8565b806040517f08c379a0000000000000000000000000000000000000000000000000000000008152600401611dbf9190612d07565b60405180910390fd5b6040517f08c379a0000000000000000000000000000000000000000000000000000000008152600401611dfa90612d29565b60405180910390fd5b63f23a6e6160e01b7bffffffffffffffffffffffffffffffffffffffffffffffffffffffff1916817bffffffffffffffffffffffffffffffffffffffffffffffffffffffff191614611e8a576040517f08c379a0000000000000000000000000000000000000000000000000000000008152600401611e8190612d49565b60405180910390fd5b505b505050505050565b60007f01ffc9a7000000000000000000000000000000000000000000000000000000007bffffffffffffffffffffffffffffffffffffffffffffffffffffffff1916827bffffffffffffffffffffffffffffffffffffffffffffffffffffffff1916149050919050565b600080823b905060008111915050919050565b828054611f1d9061324e565b90600052602060002090601f016020900481019282611f3f5760008555611f86565b82601f10611f5857805160ff1916838001178555611f86565b82800160010185558215611f86579182015b82811115611f85578251825591602001919060010190611f6a565b5b509050611f939190611f97565b5090565b5b80821115611fb0576000816000905550600101611f98565b5090565b6000611fc7611fc284612f7c565b612f4b565b90508083825260208201905082856020860282011115611fe657600080fd5b60005b858110156120165781611ffc8882612108565b845260208401935060208301925050600181019050611fe9565b5050509392505050565b600061203361202e84612fa8565b612f4b565b9050808382526020820190508285602086028201111561205257600080fd5b60005b8581101561208257816120688882612204565b845260208401935060208301925050600181019050612055565b5050509392505050565b600061209f61209a84612fd4565b612f4b565b9050828152602081018484840111156120b757600080fd5b6120c284828561320c565b509392505050565b60006120dd6120d884613004565b612f4b565b9050828152602081018484840111156120f557600080fd5b61210084828561320c565b509392505050565b60008135905061211781613459565b92915050565b600082601f83011261212e57600080fd5b813561213e848260208601611fb4565b91505092915050565b600082601f83011261215857600080fd5b8135612168848260208601612020565b91505092915050565b60008135905061218081613470565b92915050565b60008135905061219581613487565b92915050565b6000815190506121aa81613487565b92915050565b600082601f8301126121c157600080fd5b81356121d184826020860161208c565b91505092915050565b600082601f8301126121eb57600080fd5b81356121fb8482602086016120ca565b91505092915050565b6000813590506122138161349e565b92915050565b60006020828403121561222b57600080fd5b600061223984828501612108565b91505092915050565b6000806040838503121561225557600080fd5b600061226385828601612108565b925050602061227485828601612108565b9150509250929050565b600080600080600060a0868803121561229657600080fd5b60006122a488828901612108565b95505060206122b588828901612108565b945050604086013567ffffffffffffffff8111156122d257600080fd5b6122de88828901612147565b935050606086013567ffffffffffffffff8111156122fb57600080fd5b61230788828901612147565b925050608086013567ffffffffffffffff81111561232457600080fd5b612330888289016121b0565b9150509295509295909350565b600080600080600060a0868803121561235557600080fd5b600061236388828901612108565b955050602061237488828901612108565b945050604061238588828901612204565b935050606061239688828901612204565b925050608086013567ffffffffffffffff8111156123b357600080fd5b6123bf888289016121b0565b9150509295509295909350565b600080604083850312156123df57600080fd5b60006123ed85828601612108565b92505060206123fe85828601612171565b9150509250929050565b6000806040838503121561241b57600080fd5b600061242985828601612108565b925050602061243a85828601612204565b9150509250929050565b6000806040838503121561245757600080fd5b600083013567ffffffffffffffff81111561247157600080fd5b61247d8582860161211d565b925050602083013567ffffffffffffffff81111561249a57600080fd5b6124a685828601612147565b9150509250929050565b6000602082840312156124c257600080fd5b60006124d084828501612186565b91505092915050565b6000602082840312156124eb57600080fd5b60006124f98482850161219b565b91505092915050565b60006020828403121561251457600080fd5b600061252284828501612204565b91505092915050565b60008060006060848603121561254057600080fd5b600061254e86828701612204565b935050602084013567ffffffffffffffff81111561256b57600080fd5b612577868287016121da565b925050604061258886828701612204565b9150509250925092565b600061259e8383612b98565b60208301905092915050565b6125b381613198565b82525050565b6125c281613186565b82525050565b60006125d382613044565b6125dd8185613072565b93506125e883613034565b8060005b838110156126195781516126008882612592565b975061260b83613065565b9250506001810190506125ec565b5085935050505092915050565b61262f816131aa565b82525050565b61263e816131b6565b82525050565b600061264f8261304f565b6126598185613083565b935061266981856020860161321b565b61267281613385565b840191505092915050565b60006126888261305a565b6126928185613094565b93506126a281856020860161321b565b6126ab81613385565b840191505092915050565b60006126c3603483613094565b91507f455243313135353a207472616e7366657220746f206e6f6e204552433131353560008301527f526563656976657220696d706c656d656e7465720000000000000000000000006020830152604082019050919050565b6000612729602883613094565b91507f455243313135353a204552433131353552656365697665722072656a6563746560008301527f6420746f6b656e730000000000000000000000000000000000000000000000006020830152604082019050919050565b600061278f602b83613094565b91507f455243313135353a2062616c616e636520717565727920666f7220746865207a60008301527f65726f20616464726573730000000000000000000000000000000000000000006020830152604082019050919050565b60006127f5602983613094565b91507f455243313135353a2063616c6c6572206973206e6f74206f776e6572206e6f7260008301527f20617070726f76656400000000000000000000000000000000000000000000006020830152604082019050919050565b600061285b600e83613094565b91507f4e6f7420656e6f756768206574680000000000000000000000000000000000006000830152602082019050919050565b600061289b602583613094565b91507f455243313135353a207472616e7366657220746f20746865207a65726f20616460008301527f64726573730000000000000000000000000000000000000000000000000000006020830152604082019050919050565b6000612901603283613094565b91507f455243313135353a207472616e736665722063616c6c6572206973206e6f742060008301527f6f776e6572206e6f7220617070726f76656400000000000000000000000000006020830152604082019050919050565b6000612967601883613094565b91507f43616e6e6f742068617665207a65726f206164647265737300000000000000006000830152602082019050919050565b60006129a7602a83613094565b91507f455243313135353a20696e73756666696369656e742062616c616e636520666f60008301527f72207472616e73666572000000000000000000000000000000000000000000006020830152604082019050919050565b6000612a0d602983613094565b91507f455243313135353a2073657474696e6720617070726f76616c2073746174757360008301527f20666f722073656c6600000000000000000000000000000000000000000000006020830152604082019050919050565b6000612a73602983613094565b91507f455243313135353a206163636f756e747320616e6420696473206c656e67746860008301527f206d69736d6174636800000000000000000000000000000000000000000000006020830152604082019050919050565b6000612ad9602883613094565b91507f455243313135353a2069647320616e6420616d6f756e7473206c656e6774682060008301527f6d69736d617463680000000000000000000000000000000000000000000000006020830152604082019050919050565b6000612b3f602183613094565b91507f455243313135353a206d696e7420746f20746865207a65726f2061646472657360008301527f73000000000000000000000000000000000000000000000000000000000000006020830152604082019050919050565b612ba181613202565b82525050565b612bb081613202565b82525050565b600060a082019050612bcb60008301886125b9565b612bd860208301876125b9565b8181036040830152612bea81866125c8565b90508181036060830152612bfe81856125c8565b90508181036080830152612c128184612644565b90509695505050505050565b600060a082019050612c3360008301886125b9565b612c4060208301876125b9565b612c4d6040830186612ba7565b612c5a6060830185612ba7565b8181036080830152612c6c8184612644565b90509695505050505050565b60006020820190508181036000830152612c9281846125c8565b905092915050565b60006040820190508181036000830152612cb481856125c8565b90508181036020830152612cc881846125c8565b90509392505050565b6000602082019050612ce66000830184612626565b92915050565b6000602082019050612d016000830184612635565b92915050565b60006020820190508181036000830152612d21818461267d565b905092915050565b60006020820190508181036000830152612d42816126b6565b9050919050565b60006020820190508181036000830152612d628161271c565b9050919050565b60006020820190508181036000830152612d8281612782565b9050919050565b60006020820190508181036000830152612da2816127e8565b9050919050565b60006020820190508181036000830152612dc28161284e565b9050919050565b60006020820190508181036000830152612de28161288e565b9050919050565b60006020820190508181036000830152612e02816128f4565b9050919050565b60006020820190508181036000830152612e228161295a565b9050919050565b60006020820190508181036000830152612e428161299a565b9050919050565b60006020820190508181036000830152612e6281612a00565b9050919050565b60006020820190508181036000830152612e8281612a66565b9050919050565b60006020820190508181036000830152612ea281612acc565b9050919050565b60006020820190508181036000830152612ec281612b32565b9050919050565b6000602082019050612ede6000830184612ba7565b92915050565b6000606082019050612ef96000830186612ba7565b8181036020830152612f0b818561267d565b9050612f1a60408301846125aa565b949350505050565b6000604082019050612f376000830185612ba7565b612f446020830184612ba7565b9392505050565b6000604051905081810181811067ffffffffffffffff82111715612f7257612f71613356565b5b8060405250919050565b600067ffffffffffffffff821115612f9757612f96613356565b5b602082029050602081019050919050565b600067ffffffffffffffff821115612fc357612fc2613356565b5b602082029050602081019050919050565b600067ffffffffffffffff821115612fef57612fee613356565b5b601f19601f8301169050602081019050919050565b600067ffffffffffffffff82111561301f5761301e613356565b5b601f19601f8301169050602081019050919050565b6000819050602082019050919050565b600081519050919050565b600081519050919050565b600081519050919050565b6000602082019050919050565b600082825260208201905092915050565b600082825260208201905092915050565b600082825260208201905092915050565b60006130b082613202565b91506130bb83613202565b9250827fffffffffffffffffffffffffffffffffffffffffffffffffffffffffffffffff038211156130f0576130ef6132c9565b5b828201905092915050565b600061310682613202565b915061311183613202565b925082613121576131206132f8565b5b828204905092915050565b600061313782613202565b915061314283613202565b9250817fffffffffffffffffffffffffffffffffffffffffffffffffffffffffffffffff048311821515161561317b5761317a6132c9565b5b828202905092915050565b6000613191826131e2565b9050919050565b60006131a3826131e2565b9050919050565b60008115159050919050565b60007fffffffff0000000000000000000000000000000000000000000000000000000082169050919050565b600073ffffffffffffffffffffffffffffffffffffffff82169050919050565b6000819050919050565b82818337600083830152505050565b60005b8381101561323957808201518184015260208101905061321e565b83811115613248576000848401525b50505050565b6000600282049050600182168061326657607f821691505b6020821081141561327a57613279613327565b5b50919050565b600061328b82613202565b91507fffffffffffffffffffffffffffffffffffffffffffffffffffffffffffffffff8214156132be576132bd6132c9565b5b600182019050919050565b7f4e487b7100000000000000000000000000000000000000000000000000000000600052601160045260246000fd5b7f4e487b7100000000000000000000000000000000000000000000000000000000600052601260045260246000fd5b7f4e487b7100000000000000000000000000000000000000000000000000000000600052602260045260246000fd5b7f4e487b7100000000000000000000000000000000000000000000000000000000600052604160045260246000fd5b6000601f19601f8301169050919050565b60008160e01c9050919050565b600060443d10156133b357613456565b60046000803e6133c4600051613396565b6308c379a081146133d55750613456565b60405160043d036004823e80513d602482011167ffffffffffffffff8211171561340157505050613456565b808201805167ffffffffffffffff811115613420575050505050613456565b8060208301013d850181111561343b57505050505050613456565b61344482613385565b60208401016040528296505050505050505b90565b61346281613186565b811461346d57600080fd5b50565b613479816131aa565b811461348457600080fd5b50565b613490816131b6565b811461349b57600080fd5b50565b6134a781613202565b81146134b257600080fd5b5056fea2646970667358221220bba252578cbfde1f5ce9bcd2bd265408f51182d1fac9b02d1567f027b1c6df1364736f6c63430008000033",
  "linkReferences": {},
  "deployedLinkReferences": {}
}