{
  "_format": "hh-sol-artifact-1",
  "contractName": "AthenaeumDAO",
  "sourceName": "contracts/athenaumDAO.sol",
  "abi": [
    {
      "inputs": [],
      "stateMutability": "nonpayable",
      "type": "constructor"
    },
    {
      "inputs": [
        {
          "internalType": "address",
          "name": "",
          "type": "address"
        }
      ],
      "name": "balance",
      "outputs": [
        {
          "internalType": "uint256",
          "name": "",
          "type": "uint256"
        }
      ],
      "stateMutability": "view",
      "type": "function"
    },
    {
      "inputs": [],
      "name": "bookMintAddress",
      "outputs": [
        {
          "internalType": "address",
          "name": "",
          "type": "address"
        }
      ],
      "stateMutability": "view",
      "type": "function"
    },
    {
      "inputs": [
        {
          "internalType": "uint256",
          "name": "_amount",
          "type": "uint256"
        }
      ],
      "name": "deposit",
      "outputs": [],
      "stateMutability": "payable",
      "type": "function"
    },
    {
      "inputs": [
        {
          "internalType": "address",
          "name": "_address",
          "type": "address"
        }
      ],
      "name": "setBookMintContract",
      "outputs": [],
      "stateMutability": "nonpayable",
      "type": "function"
    },
    {
      "inputs": [
        {
          "internalType": "uint256",
          "name": "_amount",
          "type": "uint256"
        }
      ],
      "name": "withdraw",
      "outputs": [],
      "stateMutability": "nonpayable",
      "type": "function"
    },
    {
      "stateMutability": "payable",
      "type": "receive"
    }
  ],
  "bytecode": "0x608060405234801561001057600080fd5b5033600160006101000a81548173ffffffffffffffffffffffffffffffffffffffff021916908373ffffffffffffffffffffffffffffffffffffffff160217905550610858806100616000396000f3fe60806040526004361061004e5760003560e01c80632e1a7d4d1461005a5780637979772a14610083578063b6b55f25146100ac578063e1fde799146100c8578063e3d670d7146100f357610055565b3661005557005b600080fd5b34801561006657600080fd5b50610081600480360381019061007c9190610551565b610130565b005b34801561008f57600080fd5b506100aa60048036038101906100a59190610528565b6102ef565b005b6100c660048036038101906100c19190610551565b61038c565b005b3480156100d457600080fd5b506100dd6104c2565b6040516100ea9190610658565b60405180910390f35b3480156100ff57600080fd5b5061011a60048036038101906101159190610528565b6104e6565b60405161012791906106d3565b60405180910390f35b600160009054906101000a900473ffffffffffffffffffffffffffffffffffffffff1673ffffffffffffffffffffffffffffffffffffffff163373ffffffffffffffffffffffffffffffffffffffff161461018a57600080fd5b600081116101cd576040517f08c379a00000000000000000000000000000000000000000000000000000000081526004016101c490610693565b60405180910390fd5b600260003373ffffffffffffffffffffffffffffffffffffffff1673ffffffffffffffffffffffffffffffffffffffff1681526020019081526020016000205481111561024f576040517f08c379a0000000000000000000000000000000000000000000000000000000008152600401610246906106b3565b60405180910390fd5b3373ffffffffffffffffffffffffffffffffffffffff166108fc829081150290604051600060405180830381858888f19350505050158015610295573d6000803e3d6000fd5b5080600260003373ffffffffffffffffffffffffffffffffffffffff1673ffffffffffffffffffffffffffffffffffffffff16815260200190815260200160002060008282546102e59190610755565b9250508190555050565b600160009054906101000a900473ffffffffffffffffffffffffffffffffffffffff1673ffffffffffffffffffffffffffffffffffffffff163373ffffffffffffffffffffffffffffffffffffffff161461034957600080fd5b806000806101000a81548173ffffffffffffffffffffffffffffffffffffffff021916908373ffffffffffffffffffffffffffffffffffffffff16021790555050565b60008054906101000a900473ffffffffffffffffffffffffffffffffffffffff1673ffffffffffffffffffffffffffffffffffffffff163373ffffffffffffffffffffffffffffffffffffffff16146103e457600080fd5b60008111610427576040517f08c379a000000000000000000000000000000000000000000000000000000000815260040161041e90610693565b60405180910390fd5b803414610469576040517f08c379a000000000000000000000000000000000000000000000000000000000815260040161046090610673565b60405180910390fd5b80600260003373ffffffffffffffffffffffffffffffffffffffff1673ffffffffffffffffffffffffffffffffffffffff16815260200190815260200160002060008282546104b891906106ff565b9250508190555050565b60008054906101000a900473ffffffffffffffffffffffffffffffffffffffff1681565b60026020528060005260406000206000915090505481565b60008135905061050d816107f4565b92915050565b6000813590506105228161080b565b92915050565b60006020828403121561053a57600080fd5b6000610548848285016104fe565b91505092915050565b60006020828403121561056357600080fd5b600061057184828501610513565b91505092915050565b61058381610789565b82525050565b6000610596601a836106ee565b91507f6574682073686f756c6420657175616c20746f20616d6f756e740000000000006000830152602082019050919050565b60006105d66012836106ee565b91507f456e7465722076616c696420616d6f756e7400000000000000000000000000006000830152602082019050919050565b6000610616601a836106ee565b91507f5769746864726177616c20616d6f756e7420746f6f20686967680000000000006000830152602082019050919050565b610652816107bb565b82525050565b600060208201905061066d600083018461057a565b92915050565b6000602082019050818103600083015261068c81610589565b9050919050565b600060208201905081810360008301526106ac816105c9565b9050919050565b600060208201905081810360008301526106cc81610609565b9050919050565b60006020820190506106e86000830184610649565b92915050565b600082825260208201905092915050565b600061070a826107bb565b9150610715836107bb565b9250827fffffffffffffffffffffffffffffffffffffffffffffffffffffffffffffffff0382111561074a576107496107c5565b5b828201905092915050565b6000610760826107bb565b915061076b836107bb565b92508282101561077e5761077d6107c5565b5b828203905092915050565b60006107948261079b565b9050919050565b600073ffffffffffffffffffffffffffffffffffffffff82169050919050565b6000819050919050565b7f4e487b7100000000000000000000000000000000000000000000000000000000600052601160045260246000fd5b6107fd81610789565b811461080857600080fd5b50565b610814816107bb565b811461081f57600080fd5b5056fea2646970667358221220b7fc6106259d96535f0b3dc0c060c5718900f049dcf19e817a513298a51189a664736f6c63430008000033",
  "linkReferences": {},
  "deployedLinkReferences": {}
}