{
  "_format": "hh-sol-artifact-1",
  "contractName": "AthenaeumDAO",
  "sourceName": "contracts/athenaumDAO.sol",
  "abi": [
    {
      "inputs": [],
      "stateMutability": "nonpayable",
      "type": "constructor"
    },
    {
      "inputs": [
        {
          "internalType": "address",
          "name": "",
          "type": "address"
        }
      ],
      "name": "balance",
      "outputs": [
        {
          "internalType": "uint256",
          "name": "",
          "type": "uint256"
        }
      ],
      "stateMutability": "view",
      "type": "function"
    },
    {
      "inputs": [],
      "name": "bookMintAddress",
      "outputs": [
        {
          "internalType": "address",
          "name": "",
          "type": "address"
        }
      ],
      "stateMutability": "view",
      "type": "function"
    },
    {
      "inputs": [
        {
          "internalType": "uint256",
          "name": "_amount",
          "type": "uint256"
        }
      ],
      "name": "deposit",
      "outputs": [],
      "stateMutability": "payable",
      "type": "function"
    },
    {
      "inputs": [
        {
          "internalType": "address",
          "name": "_address",
          "type": "address"
        }
      ],
      "name": "setBookMintContract",
      "outputs": [],
      "stateMutability": "nonpayable",
      "type": "function"
    },
    {
      "inputs": [
        {
          "internalType": "uint256",
          "name": "_amount",
          "type": "uint256"
        }
      ],
      "name": "withdraw",
      "outputs": [],
      "stateMutability": "nonpayable",
      "type": "function"
    }
  ],
  "bytecode": "0x608060405234801561001057600080fd5b5033600160006101000a81548173ffffffffffffffffffffffffffffffffffffffff021916908373ffffffffffffffffffffffffffffffffffffffff16021790555061084d806100616000396000f3fe60806040526004361061004a5760003560e01c80632e1a7d4d1461004f5780637979772a14610078578063b6b55f25146100a1578063e1fde799146100bd578063e3d670d7146100e8575b600080fd5b34801561005b57600080fd5b5061007660048036038101906100719190610546565b610125565b005b34801561008457600080fd5b5061009f600480360381019061009a919061051d565b6102e4565b005b6100bb60048036038101906100b69190610546565b610381565b005b3480156100c957600080fd5b506100d26104b7565b6040516100df919061064d565b60405180910390f35b3480156100f457600080fd5b5061010f600480360381019061010a919061051d565b6104db565b60405161011c91906106c8565b60405180910390f35b600160009054906101000a900473ffffffffffffffffffffffffffffffffffffffff1673ffffffffffffffffffffffffffffffffffffffff163373ffffffffffffffffffffffffffffffffffffffff161461017f57600080fd5b600081116101c2576040517f08c379a00000000000000000000000000000000000000000000000000000000081526004016101b990610688565b60405180910390fd5b600260003373ffffffffffffffffffffffffffffffffffffffff1673ffffffffffffffffffffffffffffffffffffffff16815260200190815260200160002054811115610244576040517f08c379a000000000000000000000000000000000000000000000000000000000815260040161023b906106a8565b60405180910390fd5b3373ffffffffffffffffffffffffffffffffffffffff166108fc829081150290604051600060405180830381858888f1935050505015801561028a573d6000803e3d6000fd5b5080600260003373ffffffffffffffffffffffffffffffffffffffff1673ffffffffffffffffffffffffffffffffffffffff16815260200190815260200160002060008282546102da919061074a565b9250508190555050565b600160009054906101000a900473ffffffffffffffffffffffffffffffffffffffff1673ffffffffffffffffffffffffffffffffffffffff163373ffffffffffffffffffffffffffffffffffffffff161461033e57600080fd5b806000806101000a81548173ffffffffffffffffffffffffffffffffffffffff021916908373ffffffffffffffffffffffffffffffffffffffff16021790555050565b60008054906101000a900473ffffffffffffffffffffffffffffffffffffffff1673ffffffffffffffffffffffffffffffffffffffff163373ffffffffffffffffffffffffffffffffffffffff16146103d957600080fd5b6000811161041c576040517f08c379a000000000000000000000000000000000000000000000000000000000815260040161041390610688565b60405180910390fd5b80341461045e576040517f08c379a000000000000000000000000000000000000000000000000000000000815260040161045590610668565b60405180910390fd5b80600260003373ffffffffffffffffffffffffffffffffffffffff1673ffffffffffffffffffffffffffffffffffffffff16815260200190815260200160002060008282546104ad91906106f4565b9250508190555050565b60008054906101000a900473ffffffffffffffffffffffffffffffffffffffff1681565b60026020528060005260406000206000915090505481565b600081359050610502816107e9565b92915050565b60008135905061051781610800565b92915050565b60006020828403121561052f57600080fd5b600061053d848285016104f3565b91505092915050565b60006020828403121561055857600080fd5b600061056684828501610508565b91505092915050565b6105788161077e565b82525050565b600061058b601a836106e3565b91507f6574682073686f756c6420657175616c20746f20616d6f756e740000000000006000830152602082019050919050565b60006105cb6012836106e3565b91507f456e7465722076616c696420616d6f756e7400000000000000000000000000006000830152602082019050919050565b600061060b601a836106e3565b91507f5769746864726177616c20616d6f756e7420746f6f20686967680000000000006000830152602082019050919050565b610647816107b0565b82525050565b6000602082019050610662600083018461056f565b92915050565b600060208201905081810360008301526106818161057e565b9050919050565b600060208201905081810360008301526106a1816105be565b9050919050565b600060208201905081810360008301526106c1816105fe565b9050919050565b60006020820190506106dd600083018461063e565b92915050565b600082825260208201905092915050565b60006106ff826107b0565b915061070a836107b0565b9250827fffffffffffffffffffffffffffffffffffffffffffffffffffffffffffffffff0382111561073f5761073e6107ba565b5b828201905092915050565b6000610755826107b0565b9150610760836107b0565b925082821015610773576107726107ba565b5b828203905092915050565b600061078982610790565b9050919050565b600073ffffffffffffffffffffffffffffffffffffffff82169050919050565b6000819050919050565b7f4e487b7100000000000000000000000000000000000000000000000000000000600052601160045260246000fd5b6107f28161077e565b81146107fd57600080fd5b50565b610809816107b0565b811461081457600080fd5b5056fea26469706673582212205570a7cbea169013884156f01d36e1f1721941c6888a5d3cd745e019ee48310b64736f6c63430008000033",
  "linkReferences": {},
  "deployedLinkReferences": {}
}