{
  "_format": "hh-sol-artifact-1",
  "contractName": "BookToken",
  "sourceName": "contracts/bookToken.sol",
  "abi": [
    {
      "inputs": [],
      "stateMutability": "nonpayable",
      "type": "constructor"
    },
    {
      "anonymous": false,
      "inputs": [
        {
          "indexed": true,
          "internalType": "address",
          "name": "owner",
          "type": "address"
        },
        {
          "indexed": true,
          "internalType": "address",
          "name": "spender",
          "type": "address"
        },
        {
          "indexed": false,
          "internalType": "uint256",
          "name": "value",
          "type": "uint256"
        }
      ],
      "name": "Approval",
      "type": "event"
    },
    {
      "anonymous": false,
      "inputs": [
        {
          "indexed": true,
          "internalType": "address",
          "name": "from",
          "type": "address"
        },
        {
          "indexed": true,
          "internalType": "address",
          "name": "to",
          "type": "address"
        },
        {
          "indexed": false,
          "internalType": "uint256",
          "name": "value",
          "type": "uint256"
        }
      ],
      "name": "Transfer",
      "type": "event"
    },
    {
      "inputs": [
        {
          "internalType": "address",
          "name": "owner",
          "type": "address"
        },
        {
          "internalType": "address",
          "name": "spender",
          "type": "address"
        }
      ],
      "name": "allowance",
      "outputs": [
        {
          "internalType": "uint256",
          "name": "",
          "type": "uint256"
        }
      ],
      "stateMutability": "view",
      "type": "function"
    },
    {
      "inputs": [
        {
          "internalType": "address",
          "name": "spender",
          "type": "address"
        },
        {
          "internalType": "uint256",
          "name": "amount",
          "type": "uint256"
        }
      ],
      "name": "approve",
      "outputs": [
        {
          "internalType": "bool",
          "name": "",
          "type": "bool"
        }
      ],
      "stateMutability": "nonpayable",
      "type": "function"
    },
    {
      "inputs": [
        {
          "internalType": "address",
          "name": "account",
          "type": "address"
        }
      ],
      "name": "balanceOf",
      "outputs": [
        {
          "internalType": "uint256",
          "name": "",
          "type": "uint256"
        }
      ],
      "stateMutability": "view",
      "type": "function"
    },
    {
      "inputs": [],
      "name": "dao",
      "outputs": [
        {
          "internalType": "address",
          "name": "",
          "type": "address"
        }
      ],
      "stateMutability": "view",
      "type": "function"
    },
    {
      "inputs": [],
      "name": "decimals",
      "outputs": [
        {
          "internalType": "uint8",
          "name": "",
          "type": "uint8"
        }
      ],
      "stateMutability": "view",
      "type": "function"
    },
    {
      "inputs": [
        {
          "internalType": "address",
          "name": "spender",
          "type": "address"
        },
        {
          "internalType": "uint256",
          "name": "subtractedValue",
          "type": "uint256"
        }
      ],
      "name": "decreaseAllowance",
      "outputs": [
        {
          "internalType": "bool",
          "name": "",
          "type": "bool"
        }
      ],
      "stateMutability": "nonpayable",
      "type": "function"
    },
    {
      "inputs": [],
      "name": "distributeInitial",
      "outputs": [],
      "stateMutability": "nonpayable",
      "type": "function"
    },
    {
      "inputs": [],
      "name": "getMintBookContract",
      "outputs": [
        {
          "internalType": "address",
          "name": "",
          "type": "address"
        }
      ],
      "stateMutability": "view",
      "type": "function"
    },
    {
      "inputs": [
        {
          "internalType": "address",
          "name": "spender",
          "type": "address"
        },
        {
          "internalType": "uint256",
          "name": "addedValue",
          "type": "uint256"
        }
      ],
      "name": "increaseAllowance",
      "outputs": [
        {
          "internalType": "bool",
          "name": "",
          "type": "bool"
        }
      ],
      "stateMutability": "nonpayable",
      "type": "function"
    },
    {
      "inputs": [
        {
          "internalType": "uint256",
          "name": "_amount",
          "type": "uint256"
        },
        {
          "internalType": "address",
          "name": "_receiver",
          "type": "address"
        }
      ],
      "name": "mintForBookBuyer",
      "outputs": [],
      "stateMutability": "nonpayable",
      "type": "function"
    },
    {
      "inputs": [],
      "name": "name",
      "outputs": [
        {
          "internalType": "string",
          "name": "",
          "type": "string"
        }
      ],
      "stateMutability": "view",
      "type": "function"
    },
    {
      "inputs": [
        {
          "internalType": "address",
          "name": "_address",
          "type": "address"
        }
      ],
      "name": "setDaoContract",
      "outputs": [],
      "stateMutability": "nonpayable",
      "type": "function"
    },
    {
      "inputs": [
        {
          "internalType": "address",
          "name": "_address",
          "type": "address"
        }
      ],
      "name": "setMintBookContract",
      "outputs": [],
      "stateMutability": "nonpayable",
      "type": "function"
    },
    {
      "inputs": [],
      "name": "symbol",
      "outputs": [
        {
          "internalType": "string",
          "name": "",
          "type": "string"
        }
      ],
      "stateMutability": "view",
      "type": "function"
    },
    {
      "inputs": [],
      "name": "totalSupply",
      "outputs": [
        {
          "internalType": "uint256",
          "name": "",
          "type": "uint256"
        }
      ],
      "stateMutability": "view",
      "type": "function"
    },
    {
      "inputs": [
        {
          "internalType": "address",
          "name": "recipient",
          "type": "address"
        },
        {
          "internalType": "uint256",
          "name": "amount",
          "type": "uint256"
        }
      ],
      "name": "transfer",
      "outputs": [
        {
          "internalType": "bool",
          "name": "",
          "type": "bool"
        }
      ],
      "stateMutability": "nonpayable",
      "type": "function"
    },
    {
      "inputs": [
        {
          "internalType": "address",
          "name": "sender",
          "type": "address"
        },
        {
          "internalType": "address",
          "name": "recipient",
          "type": "address"
        },
        {
          "internalType": "uint256",
          "name": "amount",
          "type": "uint256"
        }
      ],
      "name": "transferFrom",
      "outputs": [
        {
          "internalType": "bool",
          "name": "",
          "type": "bool"
        }
      ],
      "stateMutability": "nonpayable",
      "type": "function"
    },
    {
      "stateMutability": "payable",
      "type": "receive"
    }
  ],
  "bytecode": "0x6080604052736d310e272ebf24f97942c517b7a4c5e251d1745c600760006101000a81548173ffffffffffffffffffffffffffffffffffffffff021916908373ffffffffffffffffffffffffffffffffffffffff1602179055503480156200006657600080fd5b506040518060400160405280600381526020017f424f4300000000000000000000000000000000000000000000000000000000008152506040518060400160405280600381526020017f424f4300000000000000000000000000000000000000000000000000000000008152508160039080519060200190620000eb9291906200035d565b508060049080519060200190620001049291906200035d565b50505033600660006101000a81548173ffffffffffffffffffffffffffffffffffffffff021916908373ffffffffffffffffffffffffffffffffffffffff1602179055506b019d971e4fe8401e7400000060058190555073b66f8d3b872c9217503c7c1eb8a0be4a74c956ce600960006101000a81548173ffffffffffffffffffffffffffffffffffffffff021916908373ffffffffffffffffffffffffffffffffffffffff16021790555073a9d611a2be63b0ab559cdc9938ef4fe03d78ac53600a60006101000a81548173ffffffffffffffffffffffffffffffffffffffff021916908373ffffffffffffffffffffffffffffffffffffffff1602179055507356b03168fe9e6d8cecbc08d5742d0fb53c43697d600b60006101000a81548173ffffffffffffffffffffffffffffffffffffffff021916908373ffffffffffffffffffffffffffffffffffffffff16021790555073f426238081859800897a412b10043aadddf2117e600c60006101000a81548173ffffffffffffffffffffffffffffffffffffffff021916908373ffffffffffffffffffffffffffffffffffffffff1602179055507336b28dd1bf3a9328b0ce8b4e376fd1c4c99d23ba600d60006101000a81548173ffffffffffffffffffffffffffffffffffffffff021916908373ffffffffffffffffffffffffffffffffffffffff160217905550600a6005546200031591906200040d565b600e819055506005600e546200032c91906200040d565b600e81905550600a600960055462000345919062000445565b6200035191906200040d565b600f8190555062000573565b8280546200036b90620004b0565b90600052602060002090601f0160209004810192826200038f5760008555620003db565b82601f10620003aa57805160ff1916838001178555620003db565b82800160010185558215620003db579182015b82811115620003da578251825591602001919060010190620003bd565b5b509050620003ea9190620003ee565b5090565b5b8082111562000409576000816000905550600101620003ef565b5090565b60006200041a82620004a6565b91506200042783620004a6565b9250826200043a576200043962000515565b5b828204905092915050565b60006200045282620004a6565b91506200045f83620004a6565b9250817fffffffffffffffffffffffffffffffffffffffffffffffffffffffffffffffff04831182151516156200049b576200049a620004e6565b5b828202905092915050565b6000819050919050565b60006002820490506001821680620004c957607f821691505b60208210811415620004e057620004df62000544565b5b50919050565b7f4e487b7100000000000000000000000000000000000000000000000000000000600052601160045260246000fd5b7f4e487b7100000000000000000000000000000000000000000000000000000000600052601260045260246000fd5b7f4e487b7100000000000000000000000000000000000000000000000000000000600052602260045260246000fd5b611afc80620005836000396000f3fe6080604052600436106101025760003560e01c806342142dca11610095578063a457c2d711610064578063a457c2d714610354578063a9059cbb14610391578063c2af4723146103ce578063d11fb90a146103f9578063dd62ed3e1461041057610109565b806342142dca1461029a57806370a08231146102c35780638fb582851461030057806395d89b411461032957610109565b806323b872dd116100d157806323b872dd146101ca578063313ce5671461020757806339509351146102325780634162169f1461026f57610109565b806306fdde031461010e578063095ea7b31461013957806318160ddd146101765780631af48768146101a157610109565b3661010957005b600080fd5b34801561011a57600080fd5b5061012361044d565b60405161013091906117a5565b60405180910390f35b34801561014557600080fd5b50610160600480360381019061015b9190611378565b6104df565b60405161016d919061178a565b60405180910390f35b34801561018257600080fd5b5061018b6104fd565b60405161019891906118c7565b60405180910390f35b3480156101ad57600080fd5b506101c860048036038101906101c391906112c4565b610507565b005b3480156101d657600080fd5b506101f160048036038101906101ec9190611329565b6105a5565b6040516101fe919061178a565b60405180910390f35b34801561021357600080fd5b5061021c61069d565b60405161022991906118e2565b60405180910390f35b34801561023e57600080fd5b5061025960048036038101906102549190611378565b6106a6565b604051610266919061178a565b60405180910390f35b34801561027b57600080fd5b50610284610752565b604051610291919061176f565b60405180910390f35b3480156102a657600080fd5b506102c160048036038101906102bc91906113b4565b610778565b005b3480156102cf57600080fd5b506102ea60048036038101906102e591906112c4565b6107e0565b6040516102f791906118c7565b60405180910390f35b34801561030c57600080fd5b50610327600480360381019061032291906112c4565b610828565b005b34801561033557600080fd5b5061033e6108c6565b60405161034b91906117a5565b60405180910390f35b34801561036057600080fd5b5061037b60048036038101906103769190611378565b610958565b604051610388919061178a565b60405180910390f35b34801561039d57600080fd5b506103b860048036038101906103b39190611378565b610a43565b6040516103c5919061178a565b60405180910390f35b3480156103da57600080fd5b506103e3610a61565b6040516103f0919061176f565b60405180910390f35b34801561040557600080fd5b5061040e610ae5565b005b34801561041c57600080fd5b50610437600480360381019061043291906112ed565b610c55565b60405161044491906118c7565b60405180910390f35b60606003805461045c906119f7565b80601f0160208091040260200160405190810160405280929190818152602001828054610488906119f7565b80156104d55780601f106104aa576101008083540402835291602001916104d5565b820191906000526020600020905b8154815290600101906020018083116104b857829003601f168201915b5050505050905090565b60006104f36104ec610cdc565b8484610ce4565b6001905092915050565b6000600254905090565b600660009054906101000a900473ffffffffffffffffffffffffffffffffffffffff1673ffffffffffffffffffffffffffffffffffffffff163373ffffffffffffffffffffffffffffffffffffffff161461056157600080fd5b80600760006101000a81548173ffffffffffffffffffffffffffffffffffffffff021916908373ffffffffffffffffffffffffffffffffffffffff16021790555050565b60006105b2848484610eaf565b6000600160008673ffffffffffffffffffffffffffffffffffffffff1673ffffffffffffffffffffffffffffffffffffffff16815260200190815260200160002060006105fd610cdc565b73ffffffffffffffffffffffffffffffffffffffff1673ffffffffffffffffffffffffffffffffffffffff1681526020019081526020016000205490508281101561067d576040517f08c379a000000000000000000000000000000000000000000000000000000000815260040161067490611827565b60405180910390fd5b61069185610689610cdc565b858403610ce4565b60019150509392505050565b60006012905090565b60006107486106b3610cdc565b8484600160006106c1610cdc565b73ffffffffffffffffffffffffffffffffffffffff1673ffffffffffffffffffffffffffffffffffffffff16815260200190815260200160002060008873ffffffffffffffffffffffffffffffffffffffff1673ffffffffffffffffffffffffffffffffffffffff168152602001908152602001600020546107439190611919565b610ce4565b6001905092915050565b600860009054906101000a900473ffffffffffffffffffffffffffffffffffffffff1681565b600760009054906101000a900473ffffffffffffffffffffffffffffffffffffffff1673ffffffffffffffffffffffffffffffffffffffff163373ffffffffffffffffffffffffffffffffffffffff16146107d257600080fd5b6107dc8183611130565b5050565b60008060008373ffffffffffffffffffffffffffffffffffffffff1673ffffffffffffffffffffffffffffffffffffffff168152602001908152602001600020549050919050565b600660009054906101000a900473ffffffffffffffffffffffffffffffffffffffff1673ffffffffffffffffffffffffffffffffffffffff163373ffffffffffffffffffffffffffffffffffffffff161461088257600080fd5b80600860006101000a81548173ffffffffffffffffffffffffffffffffffffffff021916908373ffffffffffffffffffffffffffffffffffffffff16021790555050565b6060600480546108d5906119f7565b80601f0160208091040260200160405190810160405280929190818152602001828054610901906119f7565b801561094e5780601f106109235761010080835404028352916020019161094e565b820191906000526020600020905b81548152906001019060200180831161093157829003601f168201915b5050505050905090565b60008060016000610967610cdc565b73ffffffffffffffffffffffffffffffffffffffff1673ffffffffffffffffffffffffffffffffffffffff16815260200190815260200160002060008573ffffffffffffffffffffffffffffffffffffffff1673ffffffffffffffffffffffffffffffffffffffff16815260200190815260200160002054905082811015610a24576040517f08c379a0000000000000000000000000000000000000000000000000000000008152600401610a1b90611887565b60405180910390fd5b610a38610a2f610cdc565b85858403610ce4565b600191505092915050565b6000610a57610a50610cdc565b8484610eaf565b6001905092915050565b6000600660009054906101000a900473ffffffffffffffffffffffffffffffffffffffff1673ffffffffffffffffffffffffffffffffffffffff163373ffffffffffffffffffffffffffffffffffffffff1614610abd57600080fd5b600760009054906101000a900473ffffffffffffffffffffffffffffffffffffffff16905090565b600660009054906101000a900473ffffffffffffffffffffffffffffffffffffffff1673ffffffffffffffffffffffffffffffffffffffff163373ffffffffffffffffffffffffffffffffffffffff1614610b3f57600080fd5b610b6d600960009054906101000a900473ffffffffffffffffffffffffffffffffffffffff16600e54611130565b610b9b600a60009054906101000a900473ffffffffffffffffffffffffffffffffffffffff16600e54611130565b610bc9600b60009054906101000a900473ffffffffffffffffffffffffffffffffffffffff16600e54611130565b610bf7600c60009054906101000a900473ffffffffffffffffffffffffffffffffffffffff16600e54611130565b610c25600d60009054906101000a900473ffffffffffffffffffffffffffffffffffffffff16600e54611130565b610c53600860009054906101000a900473ffffffffffffffffffffffffffffffffffffffff16600f54611130565b565b6000600160008473ffffffffffffffffffffffffffffffffffffffff1673ffffffffffffffffffffffffffffffffffffffff16815260200190815260200160002060008373ffffffffffffffffffffffffffffffffffffffff1673ffffffffffffffffffffffffffffffffffffffff16815260200190815260200160002054905092915050565b600033905090565b600073ffffffffffffffffffffffffffffffffffffffff168373ffffffffffffffffffffffffffffffffffffffff161415610d54576040517f08c379a0000000000000000000000000000000000000000000000000000000008152600401610d4b90611867565b60405180910390fd5b600073ffffffffffffffffffffffffffffffffffffffff168273ffffffffffffffffffffffffffffffffffffffff161415610dc4576040517f08c379a0000000000000000000000000000000000000000000000000000000008152600401610dbb906117e7565b60405180910390fd5b80600160008573ffffffffffffffffffffffffffffffffffffffff1673ffffffffffffffffffffffffffffffffffffffff16815260200190815260200160002060008473ffffffffffffffffffffffffffffffffffffffff1673ffffffffffffffffffffffffffffffffffffffff168152602001908152602001600020819055508173ffffffffffffffffffffffffffffffffffffffff168373ffffffffffffffffffffffffffffffffffffffff167f8c5be1e5ebec7d5bd14f71427d1e84f3dd0314c0f7b2291e5b200ac8c7c3b92583604051610ea291906118c7565b60405180910390a3505050565b600073ffffffffffffffffffffffffffffffffffffffff168373ffffffffffffffffffffffffffffffffffffffff161415610f1f576040517f08c379a0000000000000000000000000000000000000000000000000000000008152600401610f1690611847565b60405180910390fd5b600073ffffffffffffffffffffffffffffffffffffffff168273ffffffffffffffffffffffffffffffffffffffff161415610f8f576040517f08c379a0000000000000000000000000000000000000000000000000000000008152600401610f86906117c7565b60405180910390fd5b610f9a838383611290565b60008060008573ffffffffffffffffffffffffffffffffffffffff1673ffffffffffffffffffffffffffffffffffffffff16815260200190815260200160002054905081811015611020576040517f08c379a000000000000000000000000000000000000000000000000000000000815260040161101790611807565b60405180910390fd5b8181036000808673ffffffffffffffffffffffffffffffffffffffff1673ffffffffffffffffffffffffffffffffffffffff16815260200190815260200160002081905550816000808573ffffffffffffffffffffffffffffffffffffffff1673ffffffffffffffffffffffffffffffffffffffff16815260200190815260200160002060008282546110b39190611919565b925050819055508273ffffffffffffffffffffffffffffffffffffffff168473ffffffffffffffffffffffffffffffffffffffff167fddf252ad1be2c89b69c2b068fc378daa952ba7f163c4a11628f55a4df523b3ef8460405161111791906118c7565b60405180910390a361112a848484611295565b50505050565b600073ffffffffffffffffffffffffffffffffffffffff168273ffffffffffffffffffffffffffffffffffffffff1614156111a0576040517f08c379a0000000000000000000000000000000000000000000000000000000008152600401611197906118a7565b60405180910390fd5b6111ac60008383611290565b80600260008282546111be9190611919565b92505081905550806000808473ffffffffffffffffffffffffffffffffffffffff1673ffffffffffffffffffffffffffffffffffffffff16815260200190815260200160002060008282546112139190611919565b925050819055508173ffffffffffffffffffffffffffffffffffffffff16600073ffffffffffffffffffffffffffffffffffffffff167fddf252ad1be2c89b69c2b068fc378daa952ba7f163c4a11628f55a4df523b3ef8360405161127891906118c7565b60405180910390a361128c60008383611295565b5050565b505050565b505050565b6000813590506112a981611a98565b92915050565b6000813590506112be81611aaf565b92915050565b6000602082840312156112d657600080fd5b60006112e48482850161129a565b91505092915050565b6000806040838503121561130057600080fd5b600061130e8582860161129a565b925050602061131f8582860161129a565b9150509250929050565b60008060006060848603121561133e57600080fd5b600061134c8682870161129a565b935050602061135d8682870161129a565b925050604061136e868287016112af565b9150509250925092565b6000806040838503121561138b57600080fd5b60006113998582860161129a565b92505060206113aa858286016112af565b9150509250929050565b600080604083850312156113c757600080fd5b60006113d5858286016112af565b92505060206113e68582860161129a565b9150509250929050565b6113f98161196f565b82525050565b61140881611981565b82525050565b6000611419826118fd565b6114238185611908565b93506114338185602086016119c4565b61143c81611a87565b840191505092915050565b6000611454602383611908565b91507f45524332303a207472616e7366657220746f20746865207a65726f206164647260008301527f65737300000000000000000000000000000000000000000000000000000000006020830152604082019050919050565b60006114ba602283611908565b91507f45524332303a20617070726f766520746f20746865207a65726f20616464726560008301527f73730000000000000000000000000000000000000000000000000000000000006020830152604082019050919050565b6000611520602683611908565b91507f45524332303a207472616e7366657220616d6f756e742065786365656473206260008301527f616c616e636500000000000000000000000000000000000000000000000000006020830152604082019050919050565b6000611586602883611908565b91507f45524332303a207472616e7366657220616d6f756e742065786365656473206160008301527f6c6c6f77616e63650000000000000000000000000000000000000000000000006020830152604082019050919050565b60006115ec602583611908565b91507f45524332303a207472616e736665722066726f6d20746865207a65726f20616460008301527f64726573730000000000000000000000000000000000000000000000000000006020830152604082019050919050565b6000611652602483611908565b91507f45524332303a20617070726f76652066726f6d20746865207a65726f2061646460008301527f72657373000000000000000000000000000000000000000000000000000000006020830152604082019050919050565b60006116b8602583611908565b91507f45524332303a2064656372656173656420616c6c6f77616e63652062656c6f7760008301527f207a65726f0000000000000000000000000000000000000000000000000000006020830152604082019050919050565b600061171e601f83611908565b91507f45524332303a206d696e7420746f20746865207a65726f2061646472657373006000830152602082019050919050565b61175a816119ad565b82525050565b611769816119b7565b82525050565b600060208201905061178460008301846113f0565b92915050565b600060208201905061179f60008301846113ff565b92915050565b600060208201905081810360008301526117bf818461140e565b905092915050565b600060208201905081810360008301526117e081611447565b9050919050565b60006020820190508181036000830152611800816114ad565b9050919050565b6000602082019050818103600083015261182081611513565b9050919050565b6000602082019050818103600083015261184081611579565b9050919050565b60006020820190508181036000830152611860816115df565b9050919050565b6000602082019050818103600083015261188081611645565b9050919050565b600060208201905081810360008301526118a0816116ab565b9050919050565b600060208201905081810360008301526118c081611711565b9050919050565b60006020820190506118dc6000830184611751565b92915050565b60006020820190506118f76000830184611760565b92915050565b600081519050919050565b600082825260208201905092915050565b6000611924826119ad565b915061192f836119ad565b9250827fffffffffffffffffffffffffffffffffffffffffffffffffffffffffffffffff0382111561196457611963611a29565b5b828201905092915050565b600061197a8261198d565b9050919050565b60008115159050919050565b600073ffffffffffffffffffffffffffffffffffffffff82169050919050565b6000819050919050565b600060ff82169050919050565b60005b838110156119e25780820151818401526020810190506119c7565b838111156119f1576000848401525b50505050565b60006002820490506001821680611a0f57607f821691505b60208210811415611a2357611a22611a58565b5b50919050565b7f4e487b7100000000000000000000000000000000000000000000000000000000600052601160045260246000fd5b7f4e487b7100000000000000000000000000000000000000000000000000000000600052602260045260246000fd5b6000601f19601f8301169050919050565b611aa18161196f565b8114611aac57600080fd5b50565b611ab8816119ad565b8114611ac357600080fd5b5056fea2646970667358221220d733776c6275f1191a669e70fd21f00c9373c4ec9f3d719f32002f514a8732e164736f6c63430008000033",
  "linkReferences": {},
  "deployedLinkReferences": {}
}