{
  "_format": "hh-sol-artifact-1",
  "contractName": "BookToken",
  "sourceName": "contracts/bookToken.sol",
  "abi": [
    {
      "inputs": [],
      "stateMutability": "nonpayable",
      "type": "constructor"
    },
    {
      "anonymous": false,
      "inputs": [
        {
          "indexed": true,
          "internalType": "address",
          "name": "owner",
          "type": "address"
        },
        {
          "indexed": true,
          "internalType": "address",
          "name": "spender",
          "type": "address"
        },
        {
          "indexed": false,
          "internalType": "uint256",
          "name": "value",
          "type": "uint256"
        }
      ],
      "name": "Approval",
      "type": "event"
    },
    {
      "anonymous": false,
      "inputs": [
        {
          "indexed": true,
          "internalType": "address",
          "name": "from",
          "type": "address"
        },
        {
          "indexed": true,
          "internalType": "address",
          "name": "to",
          "type": "address"
        },
        {
          "indexed": false,
          "internalType": "uint256",
          "name": "value",
          "type": "uint256"
        }
      ],
      "name": "Transfer",
      "type": "event"
    },
    {
      "inputs": [
        {
          "internalType": "address",
          "name": "owner",
          "type": "address"
        },
        {
          "internalType": "address",
          "name": "spender",
          "type": "address"
        }
      ],
      "name": "allowance",
      "outputs": [
        {
          "internalType": "uint256",
          "name": "",
          "type": "uint256"
        }
      ],
      "stateMutability": "view",
      "type": "function"
    },
    {
      "inputs": [
        {
          "internalType": "address",
          "name": "spender",
          "type": "address"
        },
        {
          "internalType": "uint256",
          "name": "amount",
          "type": "uint256"
        }
      ],
      "name": "approve",
      "outputs": [
        {
          "internalType": "bool",
          "name": "",
          "type": "bool"
        }
      ],
      "stateMutability": "nonpayable",
      "type": "function"
    },
    {
      "inputs": [
        {
          "internalType": "address",
          "name": "account",
          "type": "address"
        }
      ],
      "name": "balanceOf",
      "outputs": [
        {
          "internalType": "uint256",
          "name": "",
          "type": "uint256"
        }
      ],
      "stateMutability": "view",
      "type": "function"
    },
    {
      "inputs": [],
      "name": "decimals",
      "outputs": [
        {
          "internalType": "uint8",
          "name": "",
          "type": "uint8"
        }
      ],
      "stateMutability": "view",
      "type": "function"
    },
    {
      "inputs": [
        {
          "internalType": "address",
          "name": "spender",
          "type": "address"
        },
        {
          "internalType": "uint256",
          "name": "subtractedValue",
          "type": "uint256"
        }
      ],
      "name": "decreaseAllowance",
      "outputs": [
        {
          "internalType": "bool",
          "name": "",
          "type": "bool"
        }
      ],
      "stateMutability": "nonpayable",
      "type": "function"
    },
    {
      "inputs": [],
      "name": "getMintBookContract",
      "outputs": [
        {
          "internalType": "address",
          "name": "",
          "type": "address"
        }
      ],
      "stateMutability": "view",
      "type": "function"
    },
    {
      "inputs": [
        {
          "internalType": "address",
          "name": "spender",
          "type": "address"
        },
        {
          "internalType": "uint256",
          "name": "addedValue",
          "type": "uint256"
        }
      ],
      "name": "increaseAllowance",
      "outputs": [
        {
          "internalType": "bool",
          "name": "",
          "type": "bool"
        }
      ],
      "stateMutability": "nonpayable",
      "type": "function"
    },
    {
      "inputs": [
        {
          "internalType": "uint256",
          "name": "_amount",
          "type": "uint256"
        },
        {
          "internalType": "address",
          "name": "_receiver",
          "type": "address"
        }
      ],
      "name": "mintForBookBuyer",
      "outputs": [],
      "stateMutability": "nonpayable",
      "type": "function"
    },
    {
      "inputs": [],
      "name": "name",
      "outputs": [
        {
          "internalType": "string",
          "name": "",
          "type": "string"
        }
      ],
      "stateMutability": "view",
      "type": "function"
    },
    {
      "inputs": [
        {
          "internalType": "address",
          "name": "_address",
          "type": "address"
        }
      ],
      "name": "setMintBookContract",
      "outputs": [],
      "stateMutability": "nonpayable",
      "type": "function"
    },
    {
      "inputs": [],
      "name": "symbol",
      "outputs": [
        {
          "internalType": "string",
          "name": "",
          "type": "string"
        }
      ],
      "stateMutability": "view",
      "type": "function"
    },
    {
      "inputs": [],
      "name": "totalSupply",
      "outputs": [
        {
          "internalType": "uint256",
          "name": "",
          "type": "uint256"
        }
      ],
      "stateMutability": "view",
      "type": "function"
    },
    {
      "inputs": [
        {
          "internalType": "address",
          "name": "recipient",
          "type": "address"
        },
        {
          "internalType": "uint256",
          "name": "amount",
          "type": "uint256"
        }
      ],
      "name": "transfer",
      "outputs": [
        {
          "internalType": "bool",
          "name": "",
          "type": "bool"
        }
      ],
      "stateMutability": "nonpayable",
      "type": "function"
    },
    {
      "inputs": [
        {
          "internalType": "address",
          "name": "sender",
          "type": "address"
        },
        {
          "internalType": "address",
          "name": "recipient",
          "type": "address"
        },
        {
          "internalType": "uint256",
          "name": "amount",
          "type": "uint256"
        }
      ],
      "name": "transferFrom",
      "outputs": [
        {
          "internalType": "bool",
          "name": "",
          "type": "bool"
        }
      ],
      "stateMutability": "nonpayable",
      "type": "function"
    },
    {
      "stateMutability": "payable",
      "type": "receive"
    }
  ],
  "bytecode": "0x60806040523480156200001157600080fd5b506040518060400160405280600481526020017f426f6f6b000000000000000000000000000000000000000000000000000000008152506040518060400160405280600481526020017f426f6f6b00000000000000000000000000000000000000000000000000000000815250816003908051906020019062000096929190620002d1565b508060049080519060200190620000af929190620002d1565b50505033600660006101000a81548173ffffffffffffffffffffffffffffffffffffffff021916908373ffffffffffffffffffffffffffffffffffffffff1602179055506b019d971e4fe8401e74000000600581905550600073b66f8d3b872c9217503c7c1eb8a0be4a74c956ce90506000600a60055462000132919062000481565b90506200014682826200014e60201b60201c565b505062000586565b600073ffffffffffffffffffffffffffffffffffffffff168273ffffffffffffffffffffffffffffffffffffffff161415620001c1576040517f08c379a0000000000000000000000000000000000000000000000000000000008152600401620001b890620003d4565b60405180910390fd5b620001d560008383620002c760201b60201c565b8060026000828254620001e9919062000424565b92505081905550806000808473ffffffffffffffffffffffffffffffffffffffff1673ffffffffffffffffffffffffffffffffffffffff168152602001908152602001600020600082825462000240919062000424565b925050819055508173ffffffffffffffffffffffffffffffffffffffff16600073ffffffffffffffffffffffffffffffffffffffff167fddf252ad1be2c89b69c2b068fc378daa952ba7f163c4a11628f55a4df523b3ef83604051620002a79190620003f6565b60405180910390a3620002c360008383620002cc60201b60201c565b5050565b505050565b505050565b828054620002df90620004c3565b90600052602060002090601f0160209004810192826200030357600085556200034f565b82601f106200031e57805160ff19168380011785556200034f565b828001600101855582156200034f579182015b828111156200034e57825182559160200191906001019062000331565b5b5090506200035e919062000362565b5090565b5b808211156200037d57600081600090555060010162000363565b5090565b600062000390601f8362000413565b91507f45524332303a206d696e7420746f20746865207a65726f2061646472657373006000830152602082019050919050565b620003ce81620004b9565b82525050565b60006020820190508181036000830152620003ef8162000381565b9050919050565b60006020820190506200040d6000830184620003c3565b92915050565b600082825260208201905092915050565b60006200043182620004b9565b91506200043e83620004b9565b9250827fffffffffffffffffffffffffffffffffffffffffffffffffffffffffffffffff03821115620004765762000475620004f9565b5b828201905092915050565b60006200048e82620004b9565b91506200049b83620004b9565b925082620004ae57620004ad62000528565b5b828204905092915050565b6000819050919050565b60006002820490506001821680620004dc57607f821691505b60208210811415620004f357620004f262000557565b5b50919050565b7f4e487b7100000000000000000000000000000000000000000000000000000000600052601160045260246000fd5b7f4e487b7100000000000000000000000000000000000000000000000000000000600052601260045260246000fd5b7f4e487b7100000000000000000000000000000000000000000000000000000000600052602260045260246000fd5b61183c80620005966000396000f3fe6080604052600436106100e15760003560e01c806342142dca1161007f578063a457c2d711610059578063a457c2d7146102df578063a9059cbb1461031c578063c2af472314610359578063dd62ed3e14610384576100e8565b806342142dca1461024e57806370a082311461027757806395d89b41146102b4576100e8565b80631af48768116100bb5780631af487681461018057806323b872dd146101a9578063313ce567146101e65780633950935114610211576100e8565b806306fdde03146100ed578063095ea7b31461011857806318160ddd14610155576100e8565b366100e857005b600080fd5b3480156100f957600080fd5b506101026103c1565b60405161010f91906114e5565b60405180910390f35b34801561012457600080fd5b5061013f600480360381019061013a91906110b8565b610453565b60405161014c91906114ca565b60405180910390f35b34801561016157600080fd5b5061016a610471565b6040516101779190611607565b60405180910390f35b34801561018c57600080fd5b506101a760048036038101906101a29190611004565b61047b565b005b3480156101b557600080fd5b506101d060048036038101906101cb9190611069565b610519565b6040516101dd91906114ca565b60405180910390f35b3480156101f257600080fd5b506101fb610611565b6040516102089190611622565b60405180910390f35b34801561021d57600080fd5b50610238600480360381019061023391906110b8565b61061a565b60405161024591906114ca565b60405180910390f35b34801561025a57600080fd5b50610275600480360381019061027091906110f4565b6106c6565b005b34801561028357600080fd5b5061029e60048036038101906102999190611004565b61072e565b6040516102ab9190611607565b60405180910390f35b3480156102c057600080fd5b506102c9610776565b6040516102d691906114e5565b60405180910390f35b3480156102eb57600080fd5b50610306600480360381019061030191906110b8565b610808565b60405161031391906114ca565b60405180910390f35b34801561032857600080fd5b50610343600480360381019061033e91906110b8565b6108f3565b60405161035091906114ca565b60405180910390f35b34801561036557600080fd5b5061036e610911565b60405161037b91906114af565b60405180910390f35b34801561039057600080fd5b506103ab60048036038101906103a6919061102d565b610995565b6040516103b89190611607565b60405180910390f35b6060600380546103d090611737565b80601f01602080910402602001604051908101604052809291908181526020018280546103fc90611737565b80156104495780601f1061041e57610100808354040283529160200191610449565b820191906000526020600020905b81548152906001019060200180831161042c57829003601f168201915b5050505050905090565b6000610467610460610a1c565b8484610a24565b6001905092915050565b6000600254905090565b600660009054906101000a900473ffffffffffffffffffffffffffffffffffffffff1673ffffffffffffffffffffffffffffffffffffffff163373ffffffffffffffffffffffffffffffffffffffff16146104d557600080fd5b80600760006101000a81548173ffffffffffffffffffffffffffffffffffffffff021916908373ffffffffffffffffffffffffffffffffffffffff16021790555050565b6000610526848484610bef565b6000600160008673ffffffffffffffffffffffffffffffffffffffff1673ffffffffffffffffffffffffffffffffffffffff1681526020019081526020016000206000610571610a1c565b73ffffffffffffffffffffffffffffffffffffffff1673ffffffffffffffffffffffffffffffffffffffff168152602001908152602001600020549050828110156105f1576040517f08c379a00000000000000000000000000000000000000000000000000000000081526004016105e890611567565b60405180910390fd5b610605856105fd610a1c565b858403610a24565b60019150509392505050565b60006012905090565b60006106bc610627610a1c565b848460016000610635610a1c565b73ffffffffffffffffffffffffffffffffffffffff1673ffffffffffffffffffffffffffffffffffffffff16815260200190815260200160002060008873ffffffffffffffffffffffffffffffffffffffff1673ffffffffffffffffffffffffffffffffffffffff168152602001908152602001600020546106b79190611659565b610a24565b6001905092915050565b600760009054906101000a900473ffffffffffffffffffffffffffffffffffffffff1673ffffffffffffffffffffffffffffffffffffffff163373ffffffffffffffffffffffffffffffffffffffff161461072057600080fd5b61072a8183610e70565b5050565b60008060008373ffffffffffffffffffffffffffffffffffffffff1673ffffffffffffffffffffffffffffffffffffffff168152602001908152602001600020549050919050565b60606004805461078590611737565b80601f01602080910402602001604051908101604052809291908181526020018280546107b190611737565b80156107fe5780601f106107d3576101008083540402835291602001916107fe565b820191906000526020600020905b8154815290600101906020018083116107e157829003601f168201915b5050505050905090565b60008060016000610817610a1c565b73ffffffffffffffffffffffffffffffffffffffff1673ffffffffffffffffffffffffffffffffffffffff16815260200190815260200160002060008573ffffffffffffffffffffffffffffffffffffffff1673ffffffffffffffffffffffffffffffffffffffff168152602001908152602001600020549050828110156108d4576040517f08c379a00000000000000000000000000000000000000000000000000000000081526004016108cb906115c7565b60405180910390fd5b6108e86108df610a1c565b85858403610a24565b600191505092915050565b6000610907610900610a1c565b8484610bef565b6001905092915050565b6000600660009054906101000a900473ffffffffffffffffffffffffffffffffffffffff1673ffffffffffffffffffffffffffffffffffffffff163373ffffffffffffffffffffffffffffffffffffffff161461096d57600080fd5b600760009054906101000a900473ffffffffffffffffffffffffffffffffffffffff16905090565b6000600160008473ffffffffffffffffffffffffffffffffffffffff1673ffffffffffffffffffffffffffffffffffffffff16815260200190815260200160002060008373ffffffffffffffffffffffffffffffffffffffff1673ffffffffffffffffffffffffffffffffffffffff16815260200190815260200160002054905092915050565b600033905090565b600073ffffffffffffffffffffffffffffffffffffffff168373ffffffffffffffffffffffffffffffffffffffff161415610a94576040517f08c379a0000000000000000000000000000000000000000000000000000000008152600401610a8b906115a7565b60405180910390fd5b600073ffffffffffffffffffffffffffffffffffffffff168273ffffffffffffffffffffffffffffffffffffffff161415610b04576040517f08c379a0000000000000000000000000000000000000000000000000000000008152600401610afb90611527565b60405180910390fd5b80600160008573ffffffffffffffffffffffffffffffffffffffff1673ffffffffffffffffffffffffffffffffffffffff16815260200190815260200160002060008473ffffffffffffffffffffffffffffffffffffffff1673ffffffffffffffffffffffffffffffffffffffff168152602001908152602001600020819055508173ffffffffffffffffffffffffffffffffffffffff168373ffffffffffffffffffffffffffffffffffffffff167f8c5be1e5ebec7d5bd14f71427d1e84f3dd0314c0f7b2291e5b200ac8c7c3b92583604051610be29190611607565b60405180910390a3505050565b600073ffffffffffffffffffffffffffffffffffffffff168373ffffffffffffffffffffffffffffffffffffffff161415610c5f576040517f08c379a0000000000000000000000000000000000000000000000000000000008152600401610c5690611587565b60405180910390fd5b600073ffffffffffffffffffffffffffffffffffffffff168273ffffffffffffffffffffffffffffffffffffffff161415610ccf576040517f08c379a0000000000000000000000000000000000000000000000000000000008152600401610cc690611507565b60405180910390fd5b610cda838383610fd0565b60008060008573ffffffffffffffffffffffffffffffffffffffff1673ffffffffffffffffffffffffffffffffffffffff16815260200190815260200160002054905081811015610d60576040517f08c379a0000000000000000000000000000000000000000000000000000000008152600401610d5790611547565b60405180910390fd5b8181036000808673ffffffffffffffffffffffffffffffffffffffff1673ffffffffffffffffffffffffffffffffffffffff16815260200190815260200160002081905550816000808573ffffffffffffffffffffffffffffffffffffffff1673ffffffffffffffffffffffffffffffffffffffff1681526020019081526020016000206000828254610df39190611659565b925050819055508273ffffffffffffffffffffffffffffffffffffffff168473ffffffffffffffffffffffffffffffffffffffff167fddf252ad1be2c89b69c2b068fc378daa952ba7f163c4a11628f55a4df523b3ef84604051610e579190611607565b60405180910390a3610e6a848484610fd5565b50505050565b600073ffffffffffffffffffffffffffffffffffffffff168273ffffffffffffffffffffffffffffffffffffffff161415610ee0576040517f08c379a0000000000000000000000000000000000000000000000000000000008152600401610ed7906115e7565b60405180910390fd5b610eec60008383610fd0565b8060026000828254610efe9190611659565b92505081905550806000808473ffffffffffffffffffffffffffffffffffffffff1673ffffffffffffffffffffffffffffffffffffffff1681526020019081526020016000206000828254610f539190611659565b925050819055508173ffffffffffffffffffffffffffffffffffffffff16600073ffffffffffffffffffffffffffffffffffffffff167fddf252ad1be2c89b69c2b068fc378daa952ba7f163c4a11628f55a4df523b3ef83604051610fb89190611607565b60405180910390a3610fcc60008383610fd5565b5050565b505050565b505050565b600081359050610fe9816117d8565b92915050565b600081359050610ffe816117ef565b92915050565b60006020828403121561101657600080fd5b600061102484828501610fda565b91505092915050565b6000806040838503121561104057600080fd5b600061104e85828601610fda565b925050602061105f85828601610fda565b9150509250929050565b60008060006060848603121561107e57600080fd5b600061108c86828701610fda565b935050602061109d86828701610fda565b92505060406110ae86828701610fef565b9150509250925092565b600080604083850312156110cb57600080fd5b60006110d985828601610fda565b92505060206110ea85828601610fef565b9150509250929050565b6000806040838503121561110757600080fd5b600061111585828601610fef565b925050602061112685828601610fda565b9150509250929050565b611139816116af565b82525050565b611148816116c1565b82525050565b60006111598261163d565b6111638185611648565b9350611173818560208601611704565b61117c816117c7565b840191505092915050565b6000611194602383611648565b91507f45524332303a207472616e7366657220746f20746865207a65726f206164647260008301527f65737300000000000000000000000000000000000000000000000000000000006020830152604082019050919050565b60006111fa602283611648565b91507f45524332303a20617070726f766520746f20746865207a65726f20616464726560008301527f73730000000000000000000000000000000000000000000000000000000000006020830152604082019050919050565b6000611260602683611648565b91507f45524332303a207472616e7366657220616d6f756e742065786365656473206260008301527f616c616e636500000000000000000000000000000000000000000000000000006020830152604082019050919050565b60006112c6602883611648565b91507f45524332303a207472616e7366657220616d6f756e742065786365656473206160008301527f6c6c6f77616e63650000000000000000000000000000000000000000000000006020830152604082019050919050565b600061132c602583611648565b91507f45524332303a207472616e736665722066726f6d20746865207a65726f20616460008301527f64726573730000000000000000000000000000000000000000000000000000006020830152604082019050919050565b6000611392602483611648565b91507f45524332303a20617070726f76652066726f6d20746865207a65726f2061646460008301527f72657373000000000000000000000000000000000000000000000000000000006020830152604082019050919050565b60006113f8602583611648565b91507f45524332303a2064656372656173656420616c6c6f77616e63652062656c6f7760008301527f207a65726f0000000000000000000000000000000000000000000000000000006020830152604082019050919050565b600061145e601f83611648565b91507f45524332303a206d696e7420746f20746865207a65726f2061646472657373006000830152602082019050919050565b61149a816116ed565b82525050565b6114a9816116f7565b82525050565b60006020820190506114c46000830184611130565b92915050565b60006020820190506114df600083018461113f565b92915050565b600060208201905081810360008301526114ff818461114e565b905092915050565b6000602082019050818103600083015261152081611187565b9050919050565b60006020820190508181036000830152611540816111ed565b9050919050565b6000602082019050818103600083015261156081611253565b9050919050565b60006020820190508181036000830152611580816112b9565b9050919050565b600060208201905081810360008301526115a08161131f565b9050919050565b600060208201905081810360008301526115c081611385565b9050919050565b600060208201905081810360008301526115e0816113eb565b9050919050565b6000602082019050818103600083015261160081611451565b9050919050565b600060208201905061161c6000830184611491565b92915050565b600060208201905061163760008301846114a0565b92915050565b600081519050919050565b600082825260208201905092915050565b6000611664826116ed565b915061166f836116ed565b9250827fffffffffffffffffffffffffffffffffffffffffffffffffffffffffffffffff038211156116a4576116a3611769565b5b828201905092915050565b60006116ba826116cd565b9050919050565b60008115159050919050565b600073ffffffffffffffffffffffffffffffffffffffff82169050919050565b6000819050919050565b600060ff82169050919050565b60005b83811015611722578082015181840152602081019050611707565b83811115611731576000848401525b50505050565b6000600282049050600182168061174f57607f821691505b6020821081141561176357611762611798565b5b50919050565b7f4e487b7100000000000000000000000000000000000000000000000000000000600052601160045260246000fd5b7f4e487b7100000000000000000000000000000000000000000000000000000000600052602260045260246000fd5b6000601f19601f8301169050919050565b6117e1816116af565b81146117ec57600080fd5b50565b6117f8816116ed565b811461180357600080fd5b5056fea2646970667358221220f6273fc4e1acf19abcd527b0af43c2957ca58b38fd4c60c7ffc67478a04737b564736f6c63430008000033",
  "linkReferences": {},
  "deployedLinkReferences": {}
}