{
  "_format": "hh-sol-artifact-1",
  "contractName": "MintBook",
  "sourceName": "contracts/mintBook.sol",
  "abi": [
    {
      "inputs": [],
      "stateMutability": "nonpayable",
      "type": "constructor"
    },
    {
      "anonymous": false,
      "inputs": [
        {
          "indexed": true,
          "internalType": "address",
          "name": "account",
          "type": "address"
        },
        {
          "indexed": true,
          "internalType": "address",
          "name": "operator",
          "type": "address"
        },
        {
          "indexed": false,
          "internalType": "bool",
          "name": "approved",
          "type": "bool"
        }
      ],
      "name": "ApprovalForAll",
      "type": "event"
    },
    {
      "anonymous": false,
      "inputs": [
        {
          "indexed": true,
          "internalType": "address",
          "name": "operator",
          "type": "address"
        },
        {
          "indexed": true,
          "internalType": "address",
          "name": "from",
          "type": "address"
        },
        {
          "indexed": true,
          "internalType": "address",
          "name": "to",
          "type": "address"
        },
        {
          "indexed": false,
          "internalType": "uint256[]",
          "name": "ids",
          "type": "uint256[]"
        },
        {
          "indexed": false,
          "internalType": "uint256[]",
          "name": "values",
          "type": "uint256[]"
        }
      ],
      "name": "TransferBatch",
      "type": "event"
    },
    {
      "anonymous": false,
      "inputs": [
        {
          "indexed": true,
          "internalType": "address",
          "name": "operator",
          "type": "address"
        },
        {
          "indexed": true,
          "internalType": "address",
          "name": "from",
          "type": "address"
        },
        {
          "indexed": true,
          "internalType": "address",
          "name": "to",
          "type": "address"
        },
        {
          "indexed": false,
          "internalType": "uint256",
          "name": "id",
          "type": "uint256"
        },
        {
          "indexed": false,
          "internalType": "uint256",
          "name": "value",
          "type": "uint256"
        }
      ],
      "name": "TransferSingle",
      "type": "event"
    },
    {
      "anonymous": false,
      "inputs": [
        {
          "indexed": false,
          "internalType": "string",
          "name": "value",
          "type": "string"
        },
        {
          "indexed": true,
          "internalType": "uint256",
          "name": "id",
          "type": "uint256"
        }
      ],
      "name": "URI",
      "type": "event"
    },
    {
      "inputs": [
        {
          "internalType": "address",
          "name": "account",
          "type": "address"
        },
        {
          "internalType": "uint256",
          "name": "id",
          "type": "uint256"
        }
      ],
      "name": "balanceOf",
      "outputs": [
        {
          "internalType": "uint256",
          "name": "",
          "type": "uint256"
        }
      ],
      "stateMutability": "view",
      "type": "function"
    },
    {
      "inputs": [
        {
          "internalType": "address[]",
          "name": "accounts",
          "type": "address[]"
        },
        {
          "internalType": "uint256[]",
          "name": "ids",
          "type": "uint256[]"
        }
      ],
      "name": "balanceOfBatch",
      "outputs": [
        {
          "internalType": "uint256[]",
          "name": "",
          "type": "uint256[]"
        }
      ],
      "stateMutability": "view",
      "type": "function"
    },
    {
      "inputs": [],
      "name": "balanceOfEth",
      "outputs": [
        {
          "internalType": "uint256",
          "name": "",
          "type": "uint256"
        }
      ],
      "stateMutability": "view",
      "type": "function"
    },
    {
      "inputs": [],
      "name": "bookIds",
      "outputs": [
        {
          "internalType": "uint256",
          "name": "_value",
          "type": "uint256"
        }
      ],
      "stateMutability": "view",
      "type": "function"
    },
    {
      "inputs": [],
      "name": "bookToken",
      "outputs": [
        {
          "internalType": "address",
          "name": "",
          "type": "address"
        }
      ],
      "stateMutability": "view",
      "type": "function"
    },
    {
      "inputs": [
        {
          "internalType": "uint256",
          "name": "",
          "type": "uint256"
        }
      ],
      "name": "books",
      "outputs": [
        {
          "internalType": "uint256",
          "name": "price",
          "type": "uint256"
        },
        {
          "internalType": "string",
          "name": "URI",
          "type": "string"
        },
        {
          "internalType": "address payable",
          "name": "author",
          "type": "address"
        }
      ],
      "stateMutability": "view",
      "type": "function"
    },
    {
      "inputs": [
        {
          "internalType": "uint256",
          "name": "_bookId",
          "type": "uint256"
        }
      ],
      "name": "buy",
      "outputs": [
        {
          "internalType": "bool",
          "name": "",
          "type": "bool"
        }
      ],
      "stateMutability": "payable",
      "type": "function"
    },
    {
      "inputs": [],
      "name": "dao",
      "outputs": [
        {
          "internalType": "address",
          "name": "",
          "type": "address"
        }
      ],
      "stateMutability": "view",
      "type": "function"
    },
    {
      "inputs": [
        {
          "internalType": "address",
          "name": "user",
          "type": "address"
        }
      ],
      "name": "getIds",
      "outputs": [
        {
          "internalType": "uint256[]",
          "name": "",
          "type": "uint256[]"
        }
      ],
      "stateMutability": "view",
      "type": "function"
    },
    {
      "inputs": [
        {
          "internalType": "address",
          "name": "account",
          "type": "address"
        },
        {
          "internalType": "address",
          "name": "operator",
          "type": "address"
        }
      ],
      "name": "isApprovedForAll",
      "outputs": [
        {
          "internalType": "bool",
          "name": "",
          "type": "bool"
        }
      ],
      "stateMutability": "view",
      "type": "function"
    },
    {
      "inputs": [
        {
          "internalType": "uint256",
          "name": "_quantity",
          "type": "uint256"
        },
        {
          "internalType": "string",
          "name": "_URI",
          "type": "string"
        },
        {
          "internalType": "uint256",
          "name": "_price",
          "type": "uint256"
        }
      ],
      "name": "mintABook",
      "outputs": [
        {
          "internalType": "uint256",
          "name": "",
          "type": "uint256"
        }
      ],
      "stateMutability": "nonpayable",
      "type": "function"
    },
    {
      "inputs": [
        {
          "internalType": "address",
          "name": "",
          "type": "address"
        },
        {
          "internalType": "address",
          "name": "",
          "type": "address"
        },
        {
          "internalType": "uint256[]",
          "name": "",
          "type": "uint256[]"
        },
        {
          "internalType": "uint256[]",
          "name": "",
          "type": "uint256[]"
        },
        {
          "internalType": "bytes",
          "name": "",
          "type": "bytes"
        }
      ],
      "name": "onERC1155BatchReceived",
      "outputs": [
        {
          "internalType": "bytes4",
          "name": "",
          "type": "bytes4"
        }
      ],
      "stateMutability": "nonpayable",
      "type": "function"
    },
    {
      "inputs": [
        {
          "internalType": "address",
          "name": "",
          "type": "address"
        },
        {
          "internalType": "address",
          "name": "",
          "type": "address"
        },
        {
          "internalType": "uint256",
          "name": "",
          "type": "uint256"
        },
        {
          "internalType": "uint256",
          "name": "",
          "type": "uint256"
        },
        {
          "internalType": "bytes",
          "name": "",
          "type": "bytes"
        }
      ],
      "name": "onERC1155Received",
      "outputs": [
        {
          "internalType": "bytes4",
          "name": "",
          "type": "bytes4"
        }
      ],
      "stateMutability": "nonpayable",
      "type": "function"
    },
    {
      "inputs": [
        {
          "internalType": "uint256",
          "name": "_tokenId",
          "type": "uint256"
        },
        {
          "internalType": "uint256",
          "name": "_salePrice",
          "type": "uint256"
        }
      ],
      "name": "royaltyInfo",
      "outputs": [
        {
          "internalType": "address",
          "name": "receiver",
          "type": "address"
        },
        {
          "internalType": "uint256",
          "name": "royaltyAmount",
          "type": "uint256"
        }
      ],
      "stateMutability": "view",
      "type": "function"
    },
    {
      "inputs": [
        {
          "internalType": "address",
          "name": "from",
          "type": "address"
        },
        {
          "internalType": "address",
          "name": "to",
          "type": "address"
        },
        {
          "internalType": "uint256[]",
          "name": "ids",
          "type": "uint256[]"
        },
        {
          "internalType": "uint256[]",
          "name": "amounts",
          "type": "uint256[]"
        },
        {
          "internalType": "bytes",
          "name": "data",
          "type": "bytes"
        }
      ],
      "name": "safeBatchTransferFrom",
      "outputs": [],
      "stateMutability": "nonpayable",
      "type": "function"
    },
    {
      "inputs": [
        {
          "internalType": "address",
          "name": "from",
          "type": "address"
        },
        {
          "internalType": "address",
          "name": "to",
          "type": "address"
        },
        {
          "internalType": "uint256",
          "name": "id",
          "type": "uint256"
        },
        {
          "internalType": "uint256",
          "name": "amount",
          "type": "uint256"
        },
        {
          "internalType": "bytes",
          "name": "data",
          "type": "bytes"
        }
      ],
      "name": "safeTransferFrom",
      "outputs": [],
      "stateMutability": "nonpayable",
      "type": "function"
    },
    {
      "inputs": [
        {
          "internalType": "address",
          "name": "operator",
          "type": "address"
        },
        {
          "internalType": "bool",
          "name": "approved",
          "type": "bool"
        }
      ],
      "name": "setApprovalForAll",
      "outputs": [],
      "stateMutability": "nonpayable",
      "type": "function"
    },
    {
      "inputs": [
        {
          "internalType": "address",
          "name": "_tokenAddress",
          "type": "address"
        }
      ],
      "name": "setBookTokenContract",
      "outputs": [],
      "stateMutability": "nonpayable",
      "type": "function"
    },
    {
      "inputs": [
        {
          "internalType": "address",
          "name": "_address",
          "type": "address"
        }
      ],
      "name": "setDaoContract",
      "outputs": [],
      "stateMutability": "nonpayable",
      "type": "function"
    },
    {
      "inputs": [
        {
          "internalType": "bytes4",
          "name": "interfaceId",
          "type": "bytes4"
        }
      ],
      "name": "supportsInterface",
      "outputs": [
        {
          "internalType": "bool",
          "name": "",
          "type": "bool"
        }
      ],
      "stateMutability": "view",
      "type": "function"
    },
    {
      "inputs": [
        {
          "internalType": "uint256",
          "name": "_tokenId",
          "type": "uint256"
        }
      ],
      "name": "tokenURI",
      "outputs": [
        {
          "internalType": "string",
          "name": "",
          "type": "string"
        }
      ],
      "stateMutability": "view",
      "type": "function"
    },
    {
      "inputs": [
        {
          "internalType": "uint256",
          "name": "",
          "type": "uint256"
        }
      ],
      "name": "uri",
      "outputs": [
        {
          "internalType": "string",
          "name": "",
          "type": "string"
        }
      ],
      "stateMutability": "view",
      "type": "function"
    },
    {
      "stateMutability": "payable",
      "type": "receive"
    }
  ],
  "bytecode": "0x60806040527350d8cdc273368c49106a8b5d3e4f6047f001dfc0600360006101000a81548173ffffffffffffffffffffffffffffffffffffffff021916908373ffffffffffffffffffffffffffffffffffffffff160217905550739bc592f6fa94d2fb98bdb292a6d9cc51daee4b3d600460006101000a81548173ffffffffffffffffffffffffffffffffffffffff021916908373ffffffffffffffffffffffffffffffffffffffff160217905550348015620000bb57600080fd5b5060405180602001604052806000815250620000dd816200012560201b60201c565b5033600560006101000a81548173ffffffffffffffffffffffffffffffffffffffff021916908373ffffffffffffffffffffffffffffffffffffffff16021790555062000256565b80600290805190602001906200013d92919062000141565b5050565b8280546200014f90620001f1565b90600052602060002090601f016020900481019282620001735760008555620001bf565b82601f106200018e57805160ff1916838001178555620001bf565b82800160010185558215620001bf579182015b82811115620001be578251825591602001919060010190620001a1565b5b509050620001ce9190620001d2565b5090565b5b80821115620001ed576000816000905550600101620001d3565b5090565b600060028204905060018216806200020a57607f821691505b6020821081141562000221576200022062000227565b5b50919050565b7f4e487b7100000000000000000000000000000000000000000000000000000000600052602260045260246000fd5b61389b80620002666000396000f3fe6080604052600436106101385760003560e01c806368744046116100ab578063c87b56dd1161006f578063c87b56dd14610493578063c890b6f8146104d0578063d96a094a146104f9578063e985e9c514610529578063f23a6e6114610566578063f242432a146105a35761013f565b8063687440461461039a5780638fb58285146103d9578063a22cb46514610402578063a7caa4fd1461042b578063bc197c81146104565761013f565b80632a55205a116100fd5780632a55205a146102635780632eb2c2d6146102a15780634162169f146102ca57806348e3f0eb146102f55780634e1273f4146103205780634fc3c4fc1461035d5761013f565b8062fdd58e1461014457806301ffc9a71461018157806306048fdb146101be5780630e89341c146101e95780632671b0d8146102265761013f565b3661013f57005b600080fd5b34801561015057600080fd5b5061016b60048036038101906101669190612738565b6105cc565b6040516101789190613279565b60405180910390f35b34801561018d57600080fd5b506101a860048036038101906101a391906127e0565b610695565b6040516101b59190613081565b60405180910390f35b3480156101ca57600080fd5b506101d361070f565b6040516101e09190613279565b60405180910390f35b3480156101f557600080fd5b50610210600480360381019061020b9190612832565b610717565b60405161021d91906130b7565b60405180910390f35b34801561023257600080fd5b5061024d60048036038101906102489190612549565b6107ab565b60405161025a9190613028565b60405180910390f35b34801561026f57600080fd5b5061028a600480360381019061028591906128c2565b610842565b604051610298929190612fff565b60405180910390f35b3480156102ad57600080fd5b506102c860048036038101906102c391906125ae565b6108a8565b005b3480156102d657600080fd5b506102df610949565b6040516102ec9190612f22565b60405180910390f35b34801561030157600080fd5b5061030a61096f565b6040516103179190613279565b60405180910390f35b34801561032c57600080fd5b5061034760048036038101906103429190612774565b61097b565b6040516103549190613028565b60405180910390f35b34801561036957600080fd5b50610384600480360381019061037f919061285b565b610b2c565b6040516103919190613279565b60405180910390f35b3480156103a657600080fd5b506103c160048036038101906103bc9190612832565b610c2b565b6040516103d093929190613294565b60405180910390f35b3480156103e557600080fd5b5061040060048036038101906103fb9190612549565b610cfd565b005b34801561040e57600080fd5b50610429600480360381019061042491906126fc565b610d9b565b005b34801561043757600080fd5b50610440610db1565b60405161044d9190612f22565b60405180910390f35b34801561046257600080fd5b5061047d600480360381019061047891906125ae565b610dd7565b60405161048a919061309c565b60405180910390f35b34801561049f57600080fd5b506104ba60048036038101906104b59190612832565b610dec565b6040516104c791906130b7565b60405180910390f35b3480156104dc57600080fd5b506104f760048036038101906104f29190612549565b610e94565b005b610513600480360381019061050e9190612832565b610f32565b6040516105209190613081565b60405180910390f35b34801561053557600080fd5b50610550600480360381019061054b9190612572565b61119f565b60405161055d9190613081565b60405180910390f35b34801561057257600080fd5b5061058d6004803603810190610588919061266d565b611233565b60405161059a919061309c565b60405180910390f35b3480156105af57600080fd5b506105ca60048036038101906105c5919061266d565b611248565b005b60008073ffffffffffffffffffffffffffffffffffffffff168373ffffffffffffffffffffffffffffffffffffffff16141561063d576040517f08c379a000000000000000000000000000000000000000000000000000000000815260040161063490613119565b60405180910390fd5b60008083815260200190815260200160002060008473ffffffffffffffffffffffffffffffffffffffff1673ffffffffffffffffffffffffffffffffffffffff16815260200190815260200160002054905092915050565b60007f2a55205a000000000000000000000000000000000000000000000000000000007bffffffffffffffffffffffffffffffffffffffffffffffffffffffff1916827bffffffffffffffffffffffffffffffffffffffffffffffffffffffff191614806107085750610707826112e9565b5b9050919050565b600047905090565b606060028054610726906135fe565b80601f0160208091040260200160405190810160405280929190818152602001828054610752906135fe565b801561079f5780601f106107745761010080835404028352916020019161079f565b820191906000526020600020905b81548152906001019060200180831161078257829003601f168201915b50505050509050919050565b6060600860008373ffffffffffffffffffffffffffffffffffffffff1673ffffffffffffffffffffffffffffffffffffffff16815260200190815260200160002080548060200260200160405190810160405280929190818152602001828054801561083657602002820191906000526020600020905b815481526020019060010190808311610822575b50505050509050919050565b60008060006007600086815260200190815260200160002060020160009054906101000a900473ffffffffffffffffffffffffffffffffffffffff169050806127106103e88661089291906134dc565b61089c91906134ab565b92509250509250929050565b6108b0611363565b73ffffffffffffffffffffffffffffffffffffffff168573ffffffffffffffffffffffffffffffffffffffff1614806108f657506108f5856108f0611363565b61119f565b5b610935576040517f08c379a000000000000000000000000000000000000000000000000000000000815260040161092c90613199565b60405180910390fd5b610942858585858561136b565b5050505050565b600360009054906101000a900473ffffffffffffffffffffffffffffffffffffffff1681565b60068060000154905081565b606081518351146109c1576040517f08c379a00000000000000000000000000000000000000000000000000000000081526004016109b890613219565b60405180910390fd5b6000835167ffffffffffffffff811115610a04577f4e487b7100000000000000000000000000000000000000000000000000000000600052604160045260246000fd5b604051908082528060200260200182016040528015610a325781602001602082028036833780820191505090505b50905060005b8451811015610b2157610acb858281518110610a7d577f4e487b7100000000000000000000000000000000000000000000000000000000600052603260045260246000fd5b6020026020010151858381518110610abe577f4e487b7100000000000000000000000000000000000000000000000000000000600052603260045260246000fd5b60200260200101516105cc565b828281518110610b04577f4e487b7100000000000000000000000000000000000000000000000000000000600052603260045260246000fd5b60200260200101818152505080610b1a90613630565b9050610a38565b508091505092915050565b600080610b3960066116cb565b905060405180606001604052808481526020018581526020013373ffffffffffffffffffffffffffffffffffffffff1681525060076000838152602001908152602001600020600082015181600001556020820151816001019080519060200190610ba5929190612241565b5060408201518160020160006101000a81548173ffffffffffffffffffffffffffffffffffffffff021916908373ffffffffffffffffffffffffffffffffffffffff160217905550905050610c0b308287604051806020016040528060008152506116d9565b610c16306001610d9b565b610c20600661186f565b809150509392505050565b6007602052806000526040600020600091509050806000015490806001018054610c54906135fe565b80601f0160208091040260200160405190810160405280929190818152602001828054610c80906135fe565b8015610ccd5780601f10610ca257610100808354040283529160200191610ccd565b820191906000526020600020905b815481529060010190602001808311610cb057829003601f168201915b5050505050908060020160009054906101000a900473ffffffffffffffffffffffffffffffffffffffff16905083565b600560009054906101000a900473ffffffffffffffffffffffffffffffffffffffff1673ffffffffffffffffffffffffffffffffffffffff163373ffffffffffffffffffffffffffffffffffffffff1614610d5757600080fd5b80600360006101000a81548173ffffffffffffffffffffffffffffffffffffffff021916908373ffffffffffffffffffffffffffffffffffffffff16021790555050565b610dad610da6611363565b8383611885565b5050565b600460009054906101000a900473ffffffffffffffffffffffffffffffffffffffff1681565b600063bc197c8160e01b905095945050505050565b6060600760008381526020019081526020016000206001018054610e0f906135fe565b80601f0160208091040260200160405190810160405280929190818152602001828054610e3b906135fe565b8015610e885780601f10610e5d57610100808354040283529160200191610e88565b820191906000526020600020905b815481529060010190602001808311610e6b57829003601f168201915b50505050509050919050565b600560009054906101000a900473ffffffffffffffffffffffffffffffffffffffff1673ffffffffffffffffffffffffffffffffffffffff163373ffffffffffffffffffffffffffffffffffffffff1614610eee57600080fd5b80600460006101000a81548173ffffffffffffffffffffffffffffffffffffffff021916908373ffffffffffffffffffffffffffffffffffffffff16021790555050565b60006007600083815260200190815260200160002060000154341015610f8d576040517f08c379a0000000000000000000000000000000000000000000000000000000008152600401610f8490613159565b60405180910390fd5b600073ffffffffffffffffffffffffffffffffffffffff163373ffffffffffffffffffffffffffffffffffffffff161415610ffd576040517f08c379a0000000000000000000000000000000000000000000000000000000008152600401610ff4906131b9565b60405180910390fd5b61101a3033846001604051806020016040528060008152506119f2565b600860003373ffffffffffffffffffffffffffffffffffffffff1673ffffffffffffffffffffffffffffffffffffffff1681526020019081526020016000208290806001815401808255809150506001900390600052602060002001600090919091909150556007600083815260200190815260200160002060020160009054906101000a900473ffffffffffffffffffffffffffffffffffffffff1673ffffffffffffffffffffffffffffffffffffffff166108fc60646062346110df91906134dc565b6110e991906134ab565b9081150290604051600060405180830381858888f19350505050158015611114573d6000803e3d6000fd5b50600360009054906101000a900473ffffffffffffffffffffffffffffffffffffffff1673ffffffffffffffffffffffffffffffffffffffff166108fc606460023461116091906134dc565b61116a91906134ab565b9081150290604051600060405180830381858888f19350505050158015611195573d6000803e3d6000fd5b5060019050919050565b6000600160008473ffffffffffffffffffffffffffffffffffffffff1673ffffffffffffffffffffffffffffffffffffffff16815260200190815260200160002060008373ffffffffffffffffffffffffffffffffffffffff1673ffffffffffffffffffffffffffffffffffffffff16815260200190815260200160002060009054906101000a900460ff16905092915050565b600063f23a6e6160e01b905095945050505050565b611250611363565b73ffffffffffffffffffffffffffffffffffffffff168573ffffffffffffffffffffffffffffffffffffffff161480611296575061129585611290611363565b61119f565b5b6112d5576040517f08c379a00000000000000000000000000000000000000000000000000000000081526004016112cc90613139565b60405180910390fd5b6112e285858585856119f2565b5050505050565b60007f4e2312e0000000000000000000000000000000000000000000000000000000007bffffffffffffffffffffffffffffffffffffffffffffffffffffffff1916827bffffffffffffffffffffffffffffffffffffffffffffffffffffffff1916148061135c575061135b82611c74565b5b9050919050565b600033905090565b81518351146113af576040517f08c379a00000000000000000000000000000000000000000000000000000000081526004016113a690613239565b60405180910390fd5b600073ffffffffffffffffffffffffffffffffffffffff168473ffffffffffffffffffffffffffffffffffffffff16141561141f576040517f08c379a000000000000000000000000000000000000000000000000000000000815260040161141690613179565b60405180910390fd5b6000611429611363565b9050611439818787878787611d56565b60005b8451811015611636576000858281518110611480577f4e487b7100000000000000000000000000000000000000000000000000000000600052603260045260246000fd5b6020026020010151905060008583815181106114c5577f4e487b7100000000000000000000000000000000000000000000000000000000600052603260045260246000fd5b60200260200101519050600080600084815260200190815260200160002060008b73ffffffffffffffffffffffffffffffffffffffff1673ffffffffffffffffffffffffffffffffffffffff16815260200190815260200160002054905081811015611566576040517f08c379a000000000000000000000000000000000000000000000000000000000815260040161155d906131d9565b60405180910390fd5b81810360008085815260200190815260200160002060008c73ffffffffffffffffffffffffffffffffffffffff1673ffffffffffffffffffffffffffffffffffffffff168152602001908152602001600020819055508160008085815260200190815260200160002060008b73ffffffffffffffffffffffffffffffffffffffff1673ffffffffffffffffffffffffffffffffffffffff168152602001908152602001600020600082825461161b9190613455565b925050819055505050508061162f90613630565b905061143c565b508473ffffffffffffffffffffffffffffffffffffffff168673ffffffffffffffffffffffffffffffffffffffff168273ffffffffffffffffffffffffffffffffffffffff167f4a39dc06d4c0dbc64b70af90fd698a233a518aa5d07e595d983b8c0526c8f7fb87876040516116ad92919061304a565b60405180910390a46116c3818787878787611d5e565b505050505050565b600081600001549050919050565b600073ffffffffffffffffffffffffffffffffffffffff168473ffffffffffffffffffffffffffffffffffffffff161415611749576040517f08c379a000000000000000000000000000000000000000000000000000000000815260040161174090613259565b60405180910390fd5b6000611753611363565b90506117748160008761176588611f2e565b61176e88611f2e565b87611d56565b8260008086815260200190815260200160002060008773ffffffffffffffffffffffffffffffffffffffff1673ffffffffffffffffffffffffffffffffffffffff16815260200190815260200160002060008282546117d39190613455565b925050819055508473ffffffffffffffffffffffffffffffffffffffff16600073ffffffffffffffffffffffffffffffffffffffff168273ffffffffffffffffffffffffffffffffffffffff167fc3d58168c5ae7397731d063d5bbf3d657854427343f4c083240f7aacaa2d0f6287876040516118519291906132d2565b60405180910390a461186881600087878787611ff4565b5050505050565b6001816000016000828254019250508190555050565b8173ffffffffffffffffffffffffffffffffffffffff168373ffffffffffffffffffffffffffffffffffffffff1614156118f4576040517f08c379a00000000000000000000000000000000000000000000000000000000081526004016118eb906131f9565b60405180910390fd5b80600160008573ffffffffffffffffffffffffffffffffffffffff1673ffffffffffffffffffffffffffffffffffffffff16815260200190815260200160002060008473ffffffffffffffffffffffffffffffffffffffff1673ffffffffffffffffffffffffffffffffffffffff16815260200190815260200160002060006101000a81548160ff0219169083151502179055508173ffffffffffffffffffffffffffffffffffffffff168373ffffffffffffffffffffffffffffffffffffffff167f17307eab39ab6107e8899845ad3d59bd9653f200f220920489ca2b5937696c31836040516119e59190613081565b60405180910390a3505050565b600073ffffffffffffffffffffffffffffffffffffffff168473ffffffffffffffffffffffffffffffffffffffff161415611a62576040517f08c379a0000000000000000000000000000000000000000000000000000000008152600401611a5990613179565b60405180910390fd5b6000611a6c611363565b9050611a8c818787611a7d88611f2e565b611a8688611f2e565b87611d56565b600080600086815260200190815260200160002060008873ffffffffffffffffffffffffffffffffffffffff1673ffffffffffffffffffffffffffffffffffffffff16815260200190815260200160002054905083811015611b23576040517f08c379a0000000000000000000000000000000000000000000000000000000008152600401611b1a906131d9565b60405180910390fd5b83810360008087815260200190815260200160002060008973ffffffffffffffffffffffffffffffffffffffff1673ffffffffffffffffffffffffffffffffffffffff168152602001908152602001600020819055508360008087815260200190815260200160002060008873ffffffffffffffffffffffffffffffffffffffff1673ffffffffffffffffffffffffffffffffffffffff1681526020019081526020016000206000828254611bd89190613455565b925050819055508573ffffffffffffffffffffffffffffffffffffffff168773ffffffffffffffffffffffffffffffffffffffff168373ffffffffffffffffffffffffffffffffffffffff167fc3d58168c5ae7397731d063d5bbf3d657854427343f4c083240f7aacaa2d0f628888604051611c559291906132d2565b60405180910390a4611c6b828888888888611ff4565b50505050505050565b60007fd9b67a26000000000000000000000000000000000000000000000000000000007bffffffffffffffffffffffffffffffffffffffffffffffffffffffff1916827bffffffffffffffffffffffffffffffffffffffffffffffffffffffff19161480611d3f57507f0e89341c000000000000000000000000000000000000000000000000000000007bffffffffffffffffffffffffffffffffffffffffffffffffffffffff1916827bffffffffffffffffffffffffffffffffffffffffffffffffffffffff1916145b80611d4f5750611d4e826121c4565b5b9050919050565b505050505050565b611d7d8473ffffffffffffffffffffffffffffffffffffffff1661222e565b15611f26578373ffffffffffffffffffffffffffffffffffffffff1663bc197c8187878686866040518663ffffffff1660e01b8152600401611dc3959493929190612f3d565b602060405180830381600087803b158015611ddd57600080fd5b505af1925050508015611e0e57506040513d601f19601f82011682018060405250810190611e0b9190612809565b60015b611e9d57611e1a613753565b80611e255750611e62565b806040517f08c379a0000000000000000000000000000000000000000000000000000000008152600401611e5991906130b7565b60405180910390fd5b6040517f08c379a0000000000000000000000000000000000000000000000000000000008152600401611e94906130d9565b60405180910390fd5b63bc197c8160e01b7bffffffffffffffffffffffffffffffffffffffffffffffffffffffff1916817bffffffffffffffffffffffffffffffffffffffffffffffffffffffff191614611f24576040517f08c379a0000000000000000000000000000000000000000000000000000000008152600401611f1b906130f9565b60405180910390fd5b505b505050505050565b60606000600167ffffffffffffffff811115611f73577f4e487b7100000000000000000000000000000000000000000000000000000000600052604160045260246000fd5b604051908082528060200260200182016040528015611fa15781602001602082028036833780820191505090505b5090508281600081518110611fdf577f4e487b7100000000000000000000000000000000000000000000000000000000600052603260045260246000fd5b60200260200101818152505080915050919050565b6120138473ffffffffffffffffffffffffffffffffffffffff1661222e565b156121bc578373ffffffffffffffffffffffffffffffffffffffff1663f23a6e6187878686866040518663ffffffff1660e01b8152600401612059959493929190612fa5565b602060405180830381600087803b15801561207357600080fd5b505af19250505080156120a457506040513d601f19601f820116820180604052508101906120a19190612809565b60015b612133576120b0613753565b806120bb57506120f8565b806040517f08c379a00000000000000000000000000000000000000000000000000000000081526004016120ef91906130b7565b60405180910390fd5b6040517f08c379a000000000000000000000000000000000000000000000000000000000815260040161212a906130d9565b60405180910390fd5b63f23a6e6160e01b7bffffffffffffffffffffffffffffffffffffffffffffffffffffffff1916817bffffffffffffffffffffffffffffffffffffffffffffffffffffffff1916146121ba576040517f08c379a00000000000000000000000000000000000000000000000000000000081526004016121b1906130f9565b60405180910390fd5b505b505050505050565b60007f01ffc9a7000000000000000000000000000000000000000000000000000000007bffffffffffffffffffffffffffffffffffffffffffffffffffffffff1916827bffffffffffffffffffffffffffffffffffffffffffffffffffffffff1916149050919050565b600080823b905060008111915050919050565b82805461224d906135fe565b90600052602060002090601f01602090048101928261226f57600085556122b6565b82601f1061228857805160ff19168380011785556122b6565b828001600101855582156122b6579182015b828111156122b557825182559160200191906001019061229a565b5b5090506122c391906122c7565b5090565b5b808211156122e05760008160009055506001016122c8565b5090565b60006122f76122f28461332c565b6132fb565b9050808382526020820190508285602086028201111561231657600080fd5b60005b85811015612346578161232c8882612438565b845260208401935060208301925050600181019050612319565b5050509392505050565b600061236361235e84613358565b6132fb565b9050808382526020820190508285602086028201111561238257600080fd5b60005b858110156123b257816123988882612534565b845260208401935060208301925050600181019050612385565b5050509392505050565b60006123cf6123ca84613384565b6132fb565b9050828152602081018484840111156123e757600080fd5b6123f28482856135bc565b509392505050565b600061240d612408846133b4565b6132fb565b90508281526020810184848401111561242557600080fd5b6124308482856135bc565b509392505050565b60008135905061244781613809565b92915050565b600082601f83011261245e57600080fd5b813561246e8482602086016122e4565b91505092915050565b600082601f83011261248857600080fd5b8135612498848260208601612350565b91505092915050565b6000813590506124b081613820565b92915050565b6000813590506124c581613837565b92915050565b6000815190506124da81613837565b92915050565b600082601f8301126124f157600080fd5b81356125018482602086016123bc565b91505092915050565b600082601f83011261251b57600080fd5b813561252b8482602086016123fa565b91505092915050565b6000813590506125438161384e565b92915050565b60006020828403121561255b57600080fd5b600061256984828501612438565b91505092915050565b6000806040838503121561258557600080fd5b600061259385828601612438565b92505060206125a485828601612438565b9150509250929050565b600080600080600060a086880312156125c657600080fd5b60006125d488828901612438565b95505060206125e588828901612438565b945050604086013567ffffffffffffffff81111561260257600080fd5b61260e88828901612477565b935050606086013567ffffffffffffffff81111561262b57600080fd5b61263788828901612477565b925050608086013567ffffffffffffffff81111561265457600080fd5b612660888289016124e0565b9150509295509295909350565b600080600080600060a0868803121561268557600080fd5b600061269388828901612438565b95505060206126a488828901612438565b94505060406126b588828901612534565b93505060606126c688828901612534565b925050608086013567ffffffffffffffff8111156126e357600080fd5b6126ef888289016124e0565b9150509295509295909350565b6000806040838503121561270f57600080fd5b600061271d85828601612438565b925050602061272e858286016124a1565b9150509250929050565b6000806040838503121561274b57600080fd5b600061275985828601612438565b925050602061276a85828601612534565b9150509250929050565b6000806040838503121561278757600080fd5b600083013567ffffffffffffffff8111156127a157600080fd5b6127ad8582860161244d565b925050602083013567ffffffffffffffff8111156127ca57600080fd5b6127d685828601612477565b9150509250929050565b6000602082840312156127f257600080fd5b6000612800848285016124b6565b91505092915050565b60006020828403121561281b57600080fd5b6000612829848285016124cb565b91505092915050565b60006020828403121561284457600080fd5b600061285284828501612534565b91505092915050565b60008060006060848603121561287057600080fd5b600061287e86828701612534565b935050602084013567ffffffffffffffff81111561289b57600080fd5b6128a78682870161250a565b92505060406128b886828701612534565b9150509250925092565b600080604083850312156128d557600080fd5b60006128e385828601612534565b92505060206128f485828601612534565b9150509250929050565b600061290a8383612f04565b60208301905092915050565b61291f81613548565b82525050565b61292e81613536565b82525050565b600061293f826133f4565b6129498185613422565b9350612954836133e4565b8060005b8381101561298557815161296c88826128fe565b975061297783613415565b925050600181019050612958565b5085935050505092915050565b61299b8161355a565b82525050565b6129aa81613566565b82525050565b60006129bb826133ff565b6129c58185613433565b93506129d58185602086016135cb565b6129de81613735565b840191505092915050565b60006129f48261340a565b6129fe8185613444565b9350612a0e8185602086016135cb565b612a1781613735565b840191505092915050565b6000612a2f603483613444565b91507f455243313135353a207472616e7366657220746f206e6f6e204552433131353560008301527f526563656976657220696d706c656d656e7465720000000000000000000000006020830152604082019050919050565b6000612a95602883613444565b91507f455243313135353a204552433131353552656365697665722072656a6563746560008301527f6420746f6b656e730000000000000000000000000000000000000000000000006020830152604082019050919050565b6000612afb602b83613444565b91507f455243313135353a2062616c616e636520717565727920666f7220746865207a60008301527f65726f20616464726573730000000000000000000000000000000000000000006020830152604082019050919050565b6000612b61602983613444565b91507f455243313135353a2063616c6c6572206973206e6f74206f776e6572206e6f7260008301527f20617070726f76656400000000000000000000000000000000000000000000006020830152604082019050919050565b6000612bc7600e83613444565b91507f4e6f7420656e6f756768206574680000000000000000000000000000000000006000830152602082019050919050565b6000612c07602583613444565b91507f455243313135353a207472616e7366657220746f20746865207a65726f20616460008301527f64726573730000000000000000000000000000000000000000000000000000006020830152604082019050919050565b6000612c6d603283613444565b91507f455243313135353a207472616e736665722063616c6c6572206973206e6f742060008301527f6f776e6572206e6f7220617070726f76656400000000000000000000000000006020830152604082019050919050565b6000612cd3601883613444565b91507f43616e6e6f742068617665207a65726f206164647265737300000000000000006000830152602082019050919050565b6000612d13602a83613444565b91507f455243313135353a20696e73756666696369656e742062616c616e636520666f60008301527f72207472616e73666572000000000000000000000000000000000000000000006020830152604082019050919050565b6000612d79602983613444565b91507f455243313135353a2073657474696e6720617070726f76616c2073746174757360008301527f20666f722073656c6600000000000000000000000000000000000000000000006020830152604082019050919050565b6000612ddf602983613444565b91507f455243313135353a206163636f756e747320616e6420696473206c656e67746860008301527f206d69736d6174636800000000000000000000000000000000000000000000006020830152604082019050919050565b6000612e45602883613444565b91507f455243313135353a2069647320616e6420616d6f756e7473206c656e6774682060008301527f6d69736d617463680000000000000000000000000000000000000000000000006020830152604082019050919050565b6000612eab602183613444565b91507f455243313135353a206d696e7420746f20746865207a65726f2061646472657360008301527f73000000000000000000000000000000000000000000000000000000000000006020830152604082019050919050565b612f0d816135b2565b82525050565b612f1c816135b2565b82525050565b6000602082019050612f376000830184612925565b92915050565b600060a082019050612f526000830188612925565b612f5f6020830187612925565b8181036040830152612f718186612934565b90508181036060830152612f858185612934565b90508181036080830152612f9981846129b0565b90509695505050505050565b600060a082019050612fba6000830188612925565b612fc76020830187612925565b612fd46040830186612f13565b612fe16060830185612f13565b8181036080830152612ff381846129b0565b90509695505050505050565b60006040820190506130146000830185612925565b6130216020830184612f13565b9392505050565b600060208201905081810360008301526130428184612934565b905092915050565b600060408201905081810360008301526130648185612934565b905081810360208301526130788184612934565b90509392505050565b60006020820190506130966000830184612992565b92915050565b60006020820190506130b160008301846129a1565b92915050565b600060208201905081810360008301526130d181846129e9565b905092915050565b600060208201905081810360008301526130f281612a22565b9050919050565b6000602082019050818103600083015261311281612a88565b9050919050565b6000602082019050818103600083015261313281612aee565b9050919050565b6000602082019050818103600083015261315281612b54565b9050919050565b6000602082019050818103600083015261317281612bba565b9050919050565b6000602082019050818103600083015261319281612bfa565b9050919050565b600060208201905081810360008301526131b281612c60565b9050919050565b600060208201905081810360008301526131d281612cc6565b9050919050565b600060208201905081810360008301526131f281612d06565b9050919050565b6000602082019050818103600083015261321281612d6c565b9050919050565b6000602082019050818103600083015261323281612dd2565b9050919050565b6000602082019050818103600083015261325281612e38565b9050919050565b6000602082019050818103600083015261327281612e9e565b9050919050565b600060208201905061328e6000830184612f13565b92915050565b60006060820190506132a96000830186612f13565b81810360208301526132bb81856129e9565b90506132ca6040830184612916565b949350505050565b60006040820190506132e76000830185612f13565b6132f46020830184612f13565b9392505050565b6000604051905081810181811067ffffffffffffffff8211171561332257613321613706565b5b8060405250919050565b600067ffffffffffffffff82111561334757613346613706565b5b602082029050602081019050919050565b600067ffffffffffffffff82111561337357613372613706565b5b602082029050602081019050919050565b600067ffffffffffffffff82111561339f5761339e613706565b5b601f19601f8301169050602081019050919050565b600067ffffffffffffffff8211156133cf576133ce613706565b5b601f19601f8301169050602081019050919050565b6000819050602082019050919050565b600081519050919050565b600081519050919050565b600081519050919050565b6000602082019050919050565b600082825260208201905092915050565b600082825260208201905092915050565b600082825260208201905092915050565b6000613460826135b2565b915061346b836135b2565b9250827fffffffffffffffffffffffffffffffffffffffffffffffffffffffffffffffff038211156134a05761349f613679565b5b828201905092915050565b60006134b6826135b2565b91506134c1836135b2565b9250826134d1576134d06136a8565b5b828204905092915050565b60006134e7826135b2565b91506134f2836135b2565b9250817fffffffffffffffffffffffffffffffffffffffffffffffffffffffffffffffff048311821515161561352b5761352a613679565b5b828202905092915050565b600061354182613592565b9050919050565b600061355382613592565b9050919050565b60008115159050919050565b60007fffffffff0000000000000000000000000000000000000000000000000000000082169050919050565b600073ffffffffffffffffffffffffffffffffffffffff82169050919050565b6000819050919050565b82818337600083830152505050565b60005b838110156135e95780820151818401526020810190506135ce565b838111156135f8576000848401525b50505050565b6000600282049050600182168061361657607f821691505b6020821081141561362a576136296136d7565b5b50919050565b600061363b826135b2565b91507fffffffffffffffffffffffffffffffffffffffffffffffffffffffffffffffff82141561366e5761366d613679565b5b600182019050919050565b7f4e487b7100000000000000000000000000000000000000000000000000000000600052601160045260246000fd5b7f4e487b7100000000000000000000000000000000000000000000000000000000600052601260045260246000fd5b7f4e487b7100000000000000000000000000000000000000000000000000000000600052602260045260246000fd5b7f4e487b7100000000000000000000000000000000000000000000000000000000600052604160045260246000fd5b6000601f19601f8301169050919050565b60008160e01c9050919050565b600060443d101561376357613806565b60046000803e613774600051613746565b6308c379a081146137855750613806565b60405160043d036004823e80513d602482011167ffffffffffffffff821117156137b157505050613806565b808201805167ffffffffffffffff8111156137d0575050505050613806565b8060208301013d85018111156137eb57505050505050613806565b6137f482613735565b60208401016040528296505050505050505b90565b61381281613536565b811461381d57600080fd5b50565b6138298161355a565b811461383457600080fd5b50565b61384081613566565b811461384b57600080fd5b50565b613857816135b2565b811461386257600080fd5b5056fea2646970667358221220f70481f8d2d6417d9ce69d9555bc6bc95c9dfe60e6538aeb5fbb71827cdd8f0d64736f6c63430008000033",
  "linkReferences": {},
  "deployedLinkReferences": {}
}