{
  "_format": "hh-sol-artifact-1",
  "contractName": "MintBook",
  "sourceName": "contracts/mintBook.sol",
  "abi": [
    {
      "inputs": [],
      "stateMutability": "nonpayable",
      "type": "constructor"
    },
    {
      "anonymous": false,
      "inputs": [
        {
          "indexed": true,
          "internalType": "address",
          "name": "account",
          "type": "address"
        },
        {
          "indexed": true,
          "internalType": "address",
          "name": "operator",
          "type": "address"
        },
        {
          "indexed": false,
          "internalType": "bool",
          "name": "approved",
          "type": "bool"
        }
      ],
      "name": "ApprovalForAll",
      "type": "event"
    },
    {
      "anonymous": false,
      "inputs": [
        {
          "indexed": true,
          "internalType": "address",
          "name": "operator",
          "type": "address"
        },
        {
          "indexed": true,
          "internalType": "address",
          "name": "from",
          "type": "address"
        },
        {
          "indexed": true,
          "internalType": "address",
          "name": "to",
          "type": "address"
        },
        {
          "indexed": false,
          "internalType": "uint256[]",
          "name": "ids",
          "type": "uint256[]"
        },
        {
          "indexed": false,
          "internalType": "uint256[]",
          "name": "values",
          "type": "uint256[]"
        }
      ],
      "name": "TransferBatch",
      "type": "event"
    },
    {
      "anonymous": false,
      "inputs": [
        {
          "indexed": true,
          "internalType": "address",
          "name": "operator",
          "type": "address"
        },
        {
          "indexed": true,
          "internalType": "address",
          "name": "from",
          "type": "address"
        },
        {
          "indexed": true,
          "internalType": "address",
          "name": "to",
          "type": "address"
        },
        {
          "indexed": false,
          "internalType": "uint256",
          "name": "id",
          "type": "uint256"
        },
        {
          "indexed": false,
          "internalType": "uint256",
          "name": "value",
          "type": "uint256"
        }
      ],
      "name": "TransferSingle",
      "type": "event"
    },
    {
      "anonymous": false,
      "inputs": [
        {
          "indexed": false,
          "internalType": "string",
          "name": "value",
          "type": "string"
        },
        {
          "indexed": true,
          "internalType": "uint256",
          "name": "id",
          "type": "uint256"
        }
      ],
      "name": "URI",
      "type": "event"
    },
    {
      "inputs": [
        {
          "internalType": "address",
          "name": "account",
          "type": "address"
        },
        {
          "internalType": "uint256",
          "name": "id",
          "type": "uint256"
        }
      ],
      "name": "balanceOf",
      "outputs": [
        {
          "internalType": "uint256",
          "name": "",
          "type": "uint256"
        }
      ],
      "stateMutability": "view",
      "type": "function"
    },
    {
      "inputs": [
        {
          "internalType": "address[]",
          "name": "accounts",
          "type": "address[]"
        },
        {
          "internalType": "uint256[]",
          "name": "ids",
          "type": "uint256[]"
        }
      ],
      "name": "balanceOfBatch",
      "outputs": [
        {
          "internalType": "uint256[]",
          "name": "",
          "type": "uint256[]"
        }
      ],
      "stateMutability": "view",
      "type": "function"
    },
    {
      "inputs": [],
      "name": "balanceOfEth",
      "outputs": [
        {
          "internalType": "uint256",
          "name": "",
          "type": "uint256"
        }
      ],
      "stateMutability": "view",
      "type": "function"
    },
    {
      "inputs": [],
      "name": "bookIds",
      "outputs": [
        {
          "internalType": "uint256",
          "name": "_value",
          "type": "uint256"
        }
      ],
      "stateMutability": "view",
      "type": "function"
    },
    {
      "inputs": [],
      "name": "bookToken",
      "outputs": [
        {
          "internalType": "address",
          "name": "",
          "type": "address"
        }
      ],
      "stateMutability": "view",
      "type": "function"
    },
    {
      "inputs": [
        {
          "internalType": "uint256",
          "name": "",
          "type": "uint256"
        }
      ],
      "name": "books",
      "outputs": [
        {
          "internalType": "uint256",
          "name": "price",
          "type": "uint256"
        },
        {
          "internalType": "string",
          "name": "URI",
          "type": "string"
        },
        {
          "internalType": "address payable",
          "name": "author",
          "type": "address"
        }
      ],
      "stateMutability": "view",
      "type": "function"
    },
    {
      "inputs": [
        {
          "internalType": "uint256",
          "name": "_bookId",
          "type": "uint256"
        }
      ],
      "name": "buy",
      "outputs": [
        {
          "internalType": "bool",
          "name": "",
          "type": "bool"
        }
      ],
      "stateMutability": "payable",
      "type": "function"
    },
    {
      "inputs": [],
      "name": "dao",
      "outputs": [
        {
          "internalType": "address",
          "name": "",
          "type": "address"
        }
      ],
      "stateMutability": "view",
      "type": "function"
    },
    {
      "inputs": [
        {
          "internalType": "address",
          "name": "user",
          "type": "address"
        }
      ],
      "name": "getIds",
      "outputs": [
        {
          "internalType": "uint256[]",
          "name": "",
          "type": "uint256[]"
        }
      ],
      "stateMutability": "view",
      "type": "function"
    },
    {
      "inputs": [
        {
          "internalType": "address",
          "name": "account",
          "type": "address"
        },
        {
          "internalType": "address",
          "name": "operator",
          "type": "address"
        }
      ],
      "name": "isApprovedForAll",
      "outputs": [
        {
          "internalType": "bool",
          "name": "",
          "type": "bool"
        }
      ],
      "stateMutability": "view",
      "type": "function"
    },
    {
      "inputs": [
        {
          "internalType": "uint256",
          "name": "_quantity",
          "type": "uint256"
        },
        {
          "internalType": "string",
          "name": "_URI",
          "type": "string"
        },
        {
          "internalType": "uint256",
          "name": "_price",
          "type": "uint256"
        }
      ],
      "name": "mintABook",
      "outputs": [
        {
          "internalType": "uint256",
          "name": "",
          "type": "uint256"
        }
      ],
      "stateMutability": "nonpayable",
      "type": "function"
    },
    {
      "inputs": [
        {
          "internalType": "address",
          "name": "",
          "type": "address"
        },
        {
          "internalType": "address",
          "name": "",
          "type": "address"
        },
        {
          "internalType": "uint256[]",
          "name": "",
          "type": "uint256[]"
        },
        {
          "internalType": "uint256[]",
          "name": "",
          "type": "uint256[]"
        },
        {
          "internalType": "bytes",
          "name": "",
          "type": "bytes"
        }
      ],
      "name": "onERC1155BatchReceived",
      "outputs": [
        {
          "internalType": "bytes4",
          "name": "",
          "type": "bytes4"
        }
      ],
      "stateMutability": "nonpayable",
      "type": "function"
    },
    {
      "inputs": [
        {
          "internalType": "address",
          "name": "",
          "type": "address"
        },
        {
          "internalType": "address",
          "name": "",
          "type": "address"
        },
        {
          "internalType": "uint256",
          "name": "",
          "type": "uint256"
        },
        {
          "internalType": "uint256",
          "name": "",
          "type": "uint256"
        },
        {
          "internalType": "bytes",
          "name": "",
          "type": "bytes"
        }
      ],
      "name": "onERC1155Received",
      "outputs": [
        {
          "internalType": "bytes4",
          "name": "",
          "type": "bytes4"
        }
      ],
      "stateMutability": "nonpayable",
      "type": "function"
    },
    {
      "inputs": [
        {
          "internalType": "uint256",
          "name": "_tokenId",
          "type": "uint256"
        },
        {
          "internalType": "uint256",
          "name": "_salePrice",
          "type": "uint256"
        }
      ],
      "name": "royaltyInfo",
      "outputs": [
        {
          "internalType": "address",
          "name": "receiver",
          "type": "address"
        },
        {
          "internalType": "uint256",
          "name": "royaltyAmount",
          "type": "uint256"
        }
      ],
      "stateMutability": "view",
      "type": "function"
    },
    {
      "inputs": [
        {
          "internalType": "address",
          "name": "from",
          "type": "address"
        },
        {
          "internalType": "address",
          "name": "to",
          "type": "address"
        },
        {
          "internalType": "uint256[]",
          "name": "ids",
          "type": "uint256[]"
        },
        {
          "internalType": "uint256[]",
          "name": "amounts",
          "type": "uint256[]"
        },
        {
          "internalType": "bytes",
          "name": "data",
          "type": "bytes"
        }
      ],
      "name": "safeBatchTransferFrom",
      "outputs": [],
      "stateMutability": "nonpayable",
      "type": "function"
    },
    {
      "inputs": [
        {
          "internalType": "address",
          "name": "from",
          "type": "address"
        },
        {
          "internalType": "address",
          "name": "to",
          "type": "address"
        },
        {
          "internalType": "uint256",
          "name": "id",
          "type": "uint256"
        },
        {
          "internalType": "uint256",
          "name": "amount",
          "type": "uint256"
        },
        {
          "internalType": "bytes",
          "name": "data",
          "type": "bytes"
        }
      ],
      "name": "safeTransferFrom",
      "outputs": [],
      "stateMutability": "nonpayable",
      "type": "function"
    },
    {
      "inputs": [
        {
          "internalType": "address",
          "name": "operator",
          "type": "address"
        },
        {
          "internalType": "bool",
          "name": "approved",
          "type": "bool"
        }
      ],
      "name": "setApprovalForAll",
      "outputs": [],
      "stateMutability": "nonpayable",
      "type": "function"
    },
    {
      "inputs": [
        {
          "internalType": "address",
          "name": "_tokenAddress",
          "type": "address"
        }
      ],
      "name": "setBookTokenContract",
      "outputs": [],
      "stateMutability": "nonpayable",
      "type": "function"
    },
    {
      "inputs": [
        {
          "internalType": "address",
          "name": "_address",
          "type": "address"
        }
      ],
      "name": "setDaoContract",
      "outputs": [],
      "stateMutability": "nonpayable",
      "type": "function"
    },
    {
      "inputs": [
        {
          "internalType": "bytes4",
          "name": "interfaceId",
          "type": "bytes4"
        }
      ],
      "name": "supportsInterface",
      "outputs": [
        {
          "internalType": "bool",
          "name": "",
          "type": "bool"
        }
      ],
      "stateMutability": "view",
      "type": "function"
    },
    {
      "inputs": [
        {
          "internalType": "uint256",
          "name": "_tokenId",
          "type": "uint256"
        }
      ],
      "name": "tokenURI",
      "outputs": [
        {
          "internalType": "string",
          "name": "",
          "type": "string"
        }
      ],
      "stateMutability": "view",
      "type": "function"
    },
    {
      "inputs": [
        {
          "internalType": "uint256",
          "name": "",
          "type": "uint256"
        }
      ],
      "name": "uri",
      "outputs": [
        {
          "internalType": "string",
          "name": "",
          "type": "string"
        }
      ],
      "stateMutability": "view",
      "type": "function"
    },
    {
      "stateMutability": "payable",
      "type": "receive"
    }
  ],
  "bytecode": "0x60806040523480156200001157600080fd5b506040518060200160405280600081525062000033816200007b60201b60201c565b5033600560006101000a81548173ffffffffffffffffffffffffffffffffffffffff021916908373ffffffffffffffffffffffffffffffffffffffff160217905550620001ac565b80600290805190602001906200009392919062000097565b5050565b828054620000a59062000147565b90600052602060002090601f016020900481019282620000c9576000855562000115565b82601f10620000e457805160ff191683800117855562000115565b8280016001018555821562000115579182015b8281111562000114578251825591602001919060010190620000f7565b5b50905062000124919062000128565b5090565b5b808211156200014357600081600090555060010162000129565b5090565b600060028204905060018216806200016057607f821691505b602082108114156200017757620001766200017d565b5b50919050565b7f4e487b7100000000000000000000000000000000000000000000000000000000600052602260045260246000fd5b61397c80620001bc6000396000f3fe6080604052600436106101385760003560e01c806368744046116100ab578063c87b56dd1161006f578063c87b56dd14610493578063c890b6f8146104d0578063d96a094a146104f9578063e985e9c514610529578063f23a6e6114610566578063f242432a146105a35761013f565b8063687440461461039a5780638fb58285146103d9578063a22cb46514610402578063a7caa4fd1461042b578063bc197c81146104565761013f565b80632a55205a116100fd5780632a55205a146102635780632eb2c2d6146102a15780634162169f146102ca57806348e3f0eb146102f55780634e1273f4146103205780634fc3c4fc1461035d5761013f565b8062fdd58e1461014457806301ffc9a71461018157806306048fdb146101be5780630e89341c146101e95780632671b0d8146102265761013f565b3661013f57005b600080fd5b34801561015057600080fd5b5061016b600480360381019061016691906127cf565b6105cc565b6040516101789190613348565b60405180910390f35b34801561018d57600080fd5b506101a860048036038101906101a39190612877565b610695565b6040516101b59190613127565b60405180910390f35b3480156101ca57600080fd5b506101d361070f565b6040516101e09190613348565b60405180910390f35b3480156101f557600080fd5b50610210600480360381019061020b91906128c9565b610717565b60405161021d9190613186565b60405180910390f35b34801561023257600080fd5b5061024d600480360381019061024891906125e0565b6107ab565b60405161025a91906130ce565b60405180910390f35b34801561026f57600080fd5b5061028a60048036038101906102859190612959565b610842565b6040516102989291906130a5565b60405180910390f35b3480156102ad57600080fd5b506102c860048036038101906102c39190612645565b6108a8565b005b3480156102d657600080fd5b506102df610949565b6040516102ec9190612fc8565b60405180910390f35b34801561030157600080fd5b5061030a61096f565b6040516103179190613348565b60405180910390f35b34801561032c57600080fd5b506103476004803603810190610342919061280b565b61097b565b60405161035491906130ce565b60405180910390f35b34801561036957600080fd5b50610384600480360381019061037f91906128f2565b610b2c565b6040516103919190613348565b60405180910390f35b3480156103a657600080fd5b506103c160048036038101906103bc91906128c9565b610c2b565b6040516103d093929190613363565b60405180910390f35b3480156103e557600080fd5b5061040060048036038101906103fb91906125e0565b610cfd565b005b34801561040e57600080fd5b5061042960048036038101906104249190612793565b610d9b565b005b34801561043757600080fd5b50610440610db1565b60405161044d9190612fc8565b60405180910390f35b34801561046257600080fd5b5061047d60048036038101906104789190612645565b610dd7565b60405161048a9190613142565b60405180910390f35b34801561049f57600080fd5b506104ba60048036038101906104b591906128c9565b610dec565b6040516104c79190613186565b60405180910390f35b3480156104dc57600080fd5b506104f760048036038101906104f291906125e0565b610e94565b005b610513600480360381019061050e91906128c9565b610f32565b6040516105209190613127565b60405180910390f35b34801561053557600080fd5b50610550600480360381019061054b9190612609565b611236565b60405161055d9190613127565b60405180910390f35b34801561057257600080fd5b5061058d60048036038101906105889190612704565b6112ca565b60405161059a9190613142565b60405180910390f35b3480156105af57600080fd5b506105ca60048036038101906105c59190612704565b6112df565b005b60008073ffffffffffffffffffffffffffffffffffffffff168373ffffffffffffffffffffffffffffffffffffffff16141561063d576040517f08c379a0000000000000000000000000000000000000000000000000000000008152600401610634906131e8565b60405180910390fd5b60008083815260200190815260200160002060008473ffffffffffffffffffffffffffffffffffffffff1673ffffffffffffffffffffffffffffffffffffffff16815260200190815260200160002054905092915050565b60007f2a55205a000000000000000000000000000000000000000000000000000000007bffffffffffffffffffffffffffffffffffffffffffffffffffffffff1916827bffffffffffffffffffffffffffffffffffffffffffffffffffffffff19161480610708575061070782611380565b5b9050919050565b600047905090565b606060028054610726906136df565b80601f0160208091040260200160405190810160405280929190818152602001828054610752906136df565b801561079f5780601f106107745761010080835404028352916020019161079f565b820191906000526020600020905b81548152906001019060200180831161078257829003601f168201915b50505050509050919050565b6060600860008373ffffffffffffffffffffffffffffffffffffffff1673ffffffffffffffffffffffffffffffffffffffff16815260200190815260200160002080548060200260200160405190810160405280929190818152602001828054801561083657602002820191906000526020600020905b815481526020019060010190808311610822575b50505050509050919050565b60008060006007600086815260200190815260200160002060020160009054906101000a900473ffffffffffffffffffffffffffffffffffffffff169050806127106103e88661089291906135ab565b61089c919061357a565b92509250509250929050565b6108b06113fa565b73ffffffffffffffffffffffffffffffffffffffff168573ffffffffffffffffffffffffffffffffffffffff1614806108f657506108f5856108f06113fa565b611236565b5b610935576040517f08c379a000000000000000000000000000000000000000000000000000000000815260040161092c90613268565b60405180910390fd5b6109428585858585611402565b5050505050565b600360009054906101000a900473ffffffffffffffffffffffffffffffffffffffff1681565b60068060000154905081565b606081518351146109c1576040517f08c379a00000000000000000000000000000000000000000000000000000000081526004016109b8906132e8565b60405180910390fd5b6000835167ffffffffffffffff811115610a04577f4e487b7100000000000000000000000000000000000000000000000000000000600052604160045260246000fd5b604051908082528060200260200182016040528015610a325781602001602082028036833780820191505090505b50905060005b8451811015610b2157610acb858281518110610a7d577f4e487b7100000000000000000000000000000000000000000000000000000000600052603260045260246000fd5b6020026020010151858381518110610abe577f4e487b7100000000000000000000000000000000000000000000000000000000600052603260045260246000fd5b60200260200101516105cc565b828281518110610b04577f4e487b7100000000000000000000000000000000000000000000000000000000600052603260045260246000fd5b60200260200101818152505080610b1a90613711565b9050610a38565b508091505092915050565b600080610b396006611762565b905060405180606001604052808481526020018581526020013373ffffffffffffffffffffffffffffffffffffffff1681525060076000838152602001908152602001600020600082015181600001556020820151816001019080519060200190610ba59291906122d8565b5060408201518160020160006101000a81548173ffffffffffffffffffffffffffffffffffffffff021916908373ffffffffffffffffffffffffffffffffffffffff160217905550905050610c0b30828760405180602001604052806000815250611770565b610c16306001610d9b565b610c206006611906565b809150509392505050565b6007602052806000526040600020600091509050806000015490806001018054610c54906136df565b80601f0160208091040260200160405190810160405280929190818152602001828054610c80906136df565b8015610ccd5780601f10610ca257610100808354040283529160200191610ccd565b820191906000526020600020905b815481529060010190602001808311610cb057829003601f168201915b5050505050908060020160009054906101000a900473ffffffffffffffffffffffffffffffffffffffff16905083565b600560009054906101000a900473ffffffffffffffffffffffffffffffffffffffff1673ffffffffffffffffffffffffffffffffffffffff163373ffffffffffffffffffffffffffffffffffffffff1614610d5757600080fd5b80600360006101000a81548173ffffffffffffffffffffffffffffffffffffffff021916908373ffffffffffffffffffffffffffffffffffffffff16021790555050565b610dad610da66113fa565b838361191c565b5050565b600460009054906101000a900473ffffffffffffffffffffffffffffffffffffffff1681565b600063bc197c8160e01b905095945050505050565b6060600760008381526020019081526020016000206001018054610e0f906136df565b80601f0160208091040260200160405190810160405280929190818152602001828054610e3b906136df565b8015610e885780601f10610e5d57610100808354040283529160200191610e88565b820191906000526020600020905b815481529060010190602001808311610e6b57829003601f168201915b50505050509050919050565b600560009054906101000a900473ffffffffffffffffffffffffffffffffffffffff1673ffffffffffffffffffffffffffffffffffffffff163373ffffffffffffffffffffffffffffffffffffffff1614610eee57600080fd5b80600460006101000a81548173ffffffffffffffffffffffffffffffffffffffff021916908373ffffffffffffffffffffffffffffffffffffffff16021790555050565b60006007600083815260200190815260200160002060000154341015610f8d576040517f08c379a0000000000000000000000000000000000000000000000000000000008152600401610f8490613228565b60405180910390fd5b600073ffffffffffffffffffffffffffffffffffffffff163373ffffffffffffffffffffffffffffffffffffffff161415610ffd576040517f08c379a0000000000000000000000000000000000000000000000000000000008152600401610ff490613288565b60405180910390fd5b61101a303384600160405180602001604052806000815250611a89565b600860003373ffffffffffffffffffffffffffffffffffffffff1673ffffffffffffffffffffffffffffffffffffffff1681526020019081526020016000208290806001815401808255809150506001900390600052602060002001600090919091909150556007600083815260200190815260200160002060020160009054906101000a900473ffffffffffffffffffffffffffffffffffffffff1673ffffffffffffffffffffffffffffffffffffffff166108fc60646062346110df91906135ab565b6110e9919061357a565b9081150290604051600060405180830381858888f19350505050158015611114573d6000803e3d6000fd5b50600360009054906101000a900473ffffffffffffffffffffffffffffffffffffffff1673ffffffffffffffffffffffffffffffffffffffff166108fc606460023461116091906135ab565b61116a919061357a565b9081150290604051600060405180830381858888f19350505050158015611195573d6000803e3d6000fd5b50600460009054906101000a900473ffffffffffffffffffffffffffffffffffffffff1673ffffffffffffffffffffffffffffffffffffffff166342142dca670de0b6b3a7640000336040518363ffffffff1660e01b81526004016111fb92919061315d565b600060405180830381600087803b15801561121557600080fd5b505af1158015611229573d6000803e3d6000fd5b5050505060019050919050565b6000600160008473ffffffffffffffffffffffffffffffffffffffff1673ffffffffffffffffffffffffffffffffffffffff16815260200190815260200160002060008373ffffffffffffffffffffffffffffffffffffffff1673ffffffffffffffffffffffffffffffffffffffff16815260200190815260200160002060009054906101000a900460ff16905092915050565b600063f23a6e6160e01b905095945050505050565b6112e76113fa565b73ffffffffffffffffffffffffffffffffffffffff168573ffffffffffffffffffffffffffffffffffffffff16148061132d575061132c856113276113fa565b611236565b5b61136c576040517f08c379a000000000000000000000000000000000000000000000000000000000815260040161136390613208565b60405180910390fd5b6113798585858585611a89565b5050505050565b60007f4e2312e0000000000000000000000000000000000000000000000000000000007bffffffffffffffffffffffffffffffffffffffffffffffffffffffff1916827bffffffffffffffffffffffffffffffffffffffffffffffffffffffff191614806113f357506113f282611d0b565b5b9050919050565b600033905090565b8151835114611446576040517f08c379a000000000000000000000000000000000000000000000000000000000815260040161143d90613308565b60405180910390fd5b600073ffffffffffffffffffffffffffffffffffffffff168473ffffffffffffffffffffffffffffffffffffffff1614156114b6576040517f08c379a00000000000000000000000000000000000000000000000000000000081526004016114ad90613248565b60405180910390fd5b60006114c06113fa565b90506114d0818787878787611ded565b60005b84518110156116cd576000858281518110611517577f4e487b7100000000000000000000000000000000000000000000000000000000600052603260045260246000fd5b60200260200101519050600085838151811061155c577f4e487b7100000000000000000000000000000000000000000000000000000000600052603260045260246000fd5b60200260200101519050600080600084815260200190815260200160002060008b73ffffffffffffffffffffffffffffffffffffffff1673ffffffffffffffffffffffffffffffffffffffff168152602001908152602001600020549050818110156115fd576040517f08c379a00000000000000000000000000000000000000000000000000000000081526004016115f4906132a8565b60405180910390fd5b81810360008085815260200190815260200160002060008c73ffffffffffffffffffffffffffffffffffffffff1673ffffffffffffffffffffffffffffffffffffffff168152602001908152602001600020819055508160008085815260200190815260200160002060008b73ffffffffffffffffffffffffffffffffffffffff1673ffffffffffffffffffffffffffffffffffffffff16815260200190815260200160002060008282546116b29190613524565b92505081905550505050806116c690613711565b90506114d3565b508473ffffffffffffffffffffffffffffffffffffffff168673ffffffffffffffffffffffffffffffffffffffff168273ffffffffffffffffffffffffffffffffffffffff167f4a39dc06d4c0dbc64b70af90fd698a233a518aa5d07e595d983b8c0526c8f7fb87876040516117449291906130f0565b60405180910390a461175a818787878787611df5565b505050505050565b600081600001549050919050565b600073ffffffffffffffffffffffffffffffffffffffff168473ffffffffffffffffffffffffffffffffffffffff1614156117e0576040517f08c379a00000000000000000000000000000000000000000000000000000000081526004016117d790613328565b60405180910390fd5b60006117ea6113fa565b905061180b816000876117fc88611fc5565b61180588611fc5565b87611ded565b8260008086815260200190815260200160002060008773ffffffffffffffffffffffffffffffffffffffff1673ffffffffffffffffffffffffffffffffffffffff168152602001908152602001600020600082825461186a9190613524565b925050819055508473ffffffffffffffffffffffffffffffffffffffff16600073ffffffffffffffffffffffffffffffffffffffff168273ffffffffffffffffffffffffffffffffffffffff167fc3d58168c5ae7397731d063d5bbf3d657854427343f4c083240f7aacaa2d0f6287876040516118e89291906133a1565b60405180910390a46118ff8160008787878761208b565b5050505050565b6001816000016000828254019250508190555050565b8173ffffffffffffffffffffffffffffffffffffffff168373ffffffffffffffffffffffffffffffffffffffff16141561198b576040517f08c379a0000000000000000000000000000000000000000000000000000000008152600401611982906132c8565b60405180910390fd5b80600160008573ffffffffffffffffffffffffffffffffffffffff1673ffffffffffffffffffffffffffffffffffffffff16815260200190815260200160002060008473ffffffffffffffffffffffffffffffffffffffff1673ffffffffffffffffffffffffffffffffffffffff16815260200190815260200160002060006101000a81548160ff0219169083151502179055508173ffffffffffffffffffffffffffffffffffffffff168373ffffffffffffffffffffffffffffffffffffffff167f17307eab39ab6107e8899845ad3d59bd9653f200f220920489ca2b5937696c3183604051611a7c9190613127565b60405180910390a3505050565b600073ffffffffffffffffffffffffffffffffffffffff168473ffffffffffffffffffffffffffffffffffffffff161415611af9576040517f08c379a0000000000000000000000000000000000000000000000000000000008152600401611af090613248565b60405180910390fd5b6000611b036113fa565b9050611b23818787611b1488611fc5565b611b1d88611fc5565b87611ded565b600080600086815260200190815260200160002060008873ffffffffffffffffffffffffffffffffffffffff1673ffffffffffffffffffffffffffffffffffffffff16815260200190815260200160002054905083811015611bba576040517f08c379a0000000000000000000000000000000000000000000000000000000008152600401611bb1906132a8565b60405180910390fd5b83810360008087815260200190815260200160002060008973ffffffffffffffffffffffffffffffffffffffff1673ffffffffffffffffffffffffffffffffffffffff168152602001908152602001600020819055508360008087815260200190815260200160002060008873ffffffffffffffffffffffffffffffffffffffff1673ffffffffffffffffffffffffffffffffffffffff1681526020019081526020016000206000828254611c6f9190613524565b925050819055508573ffffffffffffffffffffffffffffffffffffffff168773ffffffffffffffffffffffffffffffffffffffff168373ffffffffffffffffffffffffffffffffffffffff167fc3d58168c5ae7397731d063d5bbf3d657854427343f4c083240f7aacaa2d0f628888604051611cec9291906133a1565b60405180910390a4611d0282888888888861208b565b50505050505050565b60007fd9b67a26000000000000000000000000000000000000000000000000000000007bffffffffffffffffffffffffffffffffffffffffffffffffffffffff1916827bffffffffffffffffffffffffffffffffffffffffffffffffffffffff19161480611dd657507f0e89341c000000000000000000000000000000000000000000000000000000007bffffffffffffffffffffffffffffffffffffffffffffffffffffffff1916827bffffffffffffffffffffffffffffffffffffffffffffffffffffffff1916145b80611de65750611de58261225b565b5b9050919050565b505050505050565b611e148473ffffffffffffffffffffffffffffffffffffffff166122c5565b15611fbd578373ffffffffffffffffffffffffffffffffffffffff1663bc197c8187878686866040518663ffffffff1660e01b8152600401611e5a959493929190612fe3565b602060405180830381600087803b158015611e7457600080fd5b505af1925050508015611ea557506040513d601f19601f82011682018060405250810190611ea291906128a0565b60015b611f3457611eb1613834565b80611ebc5750611ef9565b806040517f08c379a0000000000000000000000000000000000000000000000000000000008152600401611ef09190613186565b60405180910390fd5b6040517f08c379a0000000000000000000000000000000000000000000000000000000008152600401611f2b906131a8565b60405180910390fd5b63bc197c8160e01b7bffffffffffffffffffffffffffffffffffffffffffffffffffffffff1916817bffffffffffffffffffffffffffffffffffffffffffffffffffffffff191614611fbb576040517f08c379a0000000000000000000000000000000000000000000000000000000008152600401611fb2906131c8565b60405180910390fd5b505b505050505050565b60606000600167ffffffffffffffff81111561200a577f4e487b7100000000000000000000000000000000000000000000000000000000600052604160045260246000fd5b6040519080825280602002602001820160405280156120385781602001602082028036833780820191505090505b5090508281600081518110612076577f4e487b7100000000000000000000000000000000000000000000000000000000600052603260045260246000fd5b60200260200101818152505080915050919050565b6120aa8473ffffffffffffffffffffffffffffffffffffffff166122c5565b15612253578373ffffffffffffffffffffffffffffffffffffffff1663f23a6e6187878686866040518663ffffffff1660e01b81526004016120f095949392919061304b565b602060405180830381600087803b15801561210a57600080fd5b505af192505050801561213b57506040513d601f19601f8201168201806040525081019061213891906128a0565b60015b6121ca57612147613834565b80612152575061218f565b806040517f08c379a00000000000000000000000000000000000000000000000000000000081526004016121869190613186565b60405180910390fd5b6040517f08c379a00000000000000000000000000000000000000000000000000000000081526004016121c1906131a8565b60405180910390fd5b63f23a6e6160e01b7bffffffffffffffffffffffffffffffffffffffffffffffffffffffff1916817bffffffffffffffffffffffffffffffffffffffffffffffffffffffff191614612251576040517f08c379a0000000000000000000000000000000000000000000000000000000008152600401612248906131c8565b60405180910390fd5b505b505050505050565b60007f01ffc9a7000000000000000000000000000000000000000000000000000000007bffffffffffffffffffffffffffffffffffffffffffffffffffffffff1916827bffffffffffffffffffffffffffffffffffffffffffffffffffffffff1916149050919050565b600080823b905060008111915050919050565b8280546122e4906136df565b90600052602060002090601f016020900481019282612306576000855561234d565b82601f1061231f57805160ff191683800117855561234d565b8280016001018555821561234d579182015b8281111561234c578251825591602001919060010190612331565b5b50905061235a919061235e565b5090565b5b8082111561237757600081600090555060010161235f565b5090565b600061238e612389846133fb565b6133ca565b905080838252602082019050828560208602820111156123ad57600080fd5b60005b858110156123dd57816123c388826124cf565b8452602084019350602083019250506001810190506123b0565b5050509392505050565b60006123fa6123f584613427565b6133ca565b9050808382526020820190508285602086028201111561241957600080fd5b60005b85811015612449578161242f88826125cb565b84526020840193506020830192505060018101905061241c565b5050509392505050565b600061246661246184613453565b6133ca565b90508281526020810184848401111561247e57600080fd5b61248984828561369d565b509392505050565b60006124a461249f84613483565b6133ca565b9050828152602081018484840111156124bc57600080fd5b6124c784828561369d565b509392505050565b6000813590506124de816138ea565b92915050565b600082601f8301126124f557600080fd5b813561250584826020860161237b565b91505092915050565b600082601f83011261251f57600080fd5b813561252f8482602086016123e7565b91505092915050565b60008135905061254781613901565b92915050565b60008135905061255c81613918565b92915050565b60008151905061257181613918565b92915050565b600082601f83011261258857600080fd5b8135612598848260208601612453565b91505092915050565b600082601f8301126125b257600080fd5b81356125c2848260208601612491565b91505092915050565b6000813590506125da8161392f565b92915050565b6000602082840312156125f257600080fd5b6000612600848285016124cf565b91505092915050565b6000806040838503121561261c57600080fd5b600061262a858286016124cf565b925050602061263b858286016124cf565b9150509250929050565b600080600080600060a0868803121561265d57600080fd5b600061266b888289016124cf565b955050602061267c888289016124cf565b945050604086013567ffffffffffffffff81111561269957600080fd5b6126a58882890161250e565b935050606086013567ffffffffffffffff8111156126c257600080fd5b6126ce8882890161250e565b925050608086013567ffffffffffffffff8111156126eb57600080fd5b6126f788828901612577565b9150509295509295909350565b600080600080600060a0868803121561271c57600080fd5b600061272a888289016124cf565b955050602061273b888289016124cf565b945050604061274c888289016125cb565b935050606061275d888289016125cb565b925050608086013567ffffffffffffffff81111561277a57600080fd5b61278688828901612577565b9150509295509295909350565b600080604083850312156127a657600080fd5b60006127b4858286016124cf565b92505060206127c585828601612538565b9150509250929050565b600080604083850312156127e257600080fd5b60006127f0858286016124cf565b9250506020612801858286016125cb565b9150509250929050565b6000806040838503121561281e57600080fd5b600083013567ffffffffffffffff81111561283857600080fd5b612844858286016124e4565b925050602083013567ffffffffffffffff81111561286157600080fd5b61286d8582860161250e565b9150509250929050565b60006020828403121561288957600080fd5b60006128978482850161254d565b91505092915050565b6000602082840312156128b257600080fd5b60006128c084828501612562565b91505092915050565b6000602082840312156128db57600080fd5b60006128e9848285016125cb565b91505092915050565b60008060006060848603121561290757600080fd5b6000612915868287016125cb565b935050602084013567ffffffffffffffff81111561293257600080fd5b61293e868287016125a1565b925050604061294f868287016125cb565b9150509250925092565b6000806040838503121561296c57600080fd5b600061297a858286016125cb565b925050602061298b858286016125cb565b9150509250929050565b60006129a18383612faa565b60208301905092915050565b6129b681613617565b82525050565b6129c581613605565b82525050565b60006129d6826134c3565b6129e081856134f1565b93506129eb836134b3565b8060005b83811015612a1c578151612a038882612995565b9750612a0e836134e4565b9250506001810190506129ef565b5085935050505092915050565b612a3281613629565b82525050565b612a4181613635565b82525050565b6000612a52826134ce565b612a5c8185613502565b9350612a6c8185602086016136ac565b612a7581613816565b840191505092915050565b612a898161368b565b82525050565b6000612a9a826134d9565b612aa48185613513565b9350612ab48185602086016136ac565b612abd81613816565b840191505092915050565b6000612ad5603483613513565b91507f455243313135353a207472616e7366657220746f206e6f6e204552433131353560008301527f526563656976657220696d706c656d656e7465720000000000000000000000006020830152604082019050919050565b6000612b3b602883613513565b91507f455243313135353a204552433131353552656365697665722072656a6563746560008301527f6420746f6b656e730000000000000000000000000000000000000000000000006020830152604082019050919050565b6000612ba1602b83613513565b91507f455243313135353a2062616c616e636520717565727920666f7220746865207a60008301527f65726f20616464726573730000000000000000000000000000000000000000006020830152604082019050919050565b6000612c07602983613513565b91507f455243313135353a2063616c6c6572206973206e6f74206f776e6572206e6f7260008301527f20617070726f76656400000000000000000000000000000000000000000000006020830152604082019050919050565b6000612c6d600e83613513565b91507f4e6f7420656e6f756768206574680000000000000000000000000000000000006000830152602082019050919050565b6000612cad602583613513565b91507f455243313135353a207472616e7366657220746f20746865207a65726f20616460008301527f64726573730000000000000000000000000000000000000000000000000000006020830152604082019050919050565b6000612d13603283613513565b91507f455243313135353a207472616e736665722063616c6c6572206973206e6f742060008301527f6f776e6572206e6f7220617070726f76656400000000000000000000000000006020830152604082019050919050565b6000612d79601883613513565b91507f43616e6e6f742068617665207a65726f206164647265737300000000000000006000830152602082019050919050565b6000612db9602a83613513565b91507f455243313135353a20696e73756666696369656e742062616c616e636520666f60008301527f72207472616e73666572000000000000000000000000000000000000000000006020830152604082019050919050565b6000612e1f602983613513565b91507f455243313135353a2073657474696e6720617070726f76616c2073746174757360008301527f20666f722073656c6600000000000000000000000000000000000000000000006020830152604082019050919050565b6000612e85602983613513565b91507f455243313135353a206163636f756e747320616e6420696473206c656e67746860008301527f206d69736d6174636800000000000000000000000000000000000000000000006020830152604082019050919050565b6000612eeb602883613513565b91507f455243313135353a2069647320616e6420616d6f756e7473206c656e6774682060008301527f6d69736d617463680000000000000000000000000000000000000000000000006020830152604082019050919050565b6000612f51602183613513565b91507f455243313135353a206d696e7420746f20746865207a65726f2061646472657360008301527f73000000000000000000000000000000000000000000000000000000000000006020830152604082019050919050565b612fb381613681565b82525050565b612fc281613681565b82525050565b6000602082019050612fdd60008301846129bc565b92915050565b600060a082019050612ff860008301886129bc565b61300560208301876129bc565b818103604083015261301781866129cb565b9050818103606083015261302b81856129cb565b9050818103608083015261303f8184612a47565b90509695505050505050565b600060a08201905061306060008301886129bc565b61306d60208301876129bc565b61307a6040830186612fb9565b6130876060830185612fb9565b81810360808301526130998184612a47565b90509695505050505050565b60006040820190506130ba60008301856129bc565b6130c76020830184612fb9565b9392505050565b600060208201905081810360008301526130e881846129cb565b905092915050565b6000604082019050818103600083015261310a81856129cb565b9050818103602083015261311e81846129cb565b90509392505050565b600060208201905061313c6000830184612a29565b92915050565b60006020820190506131576000830184612a38565b92915050565b60006040820190506131726000830185612a80565b61317f60208301846129bc565b9392505050565b600060208201905081810360008301526131a08184612a8f565b905092915050565b600060208201905081810360008301526131c181612ac8565b9050919050565b600060208201905081810360008301526131e181612b2e565b9050919050565b6000602082019050818103600083015261320181612b94565b9050919050565b6000602082019050818103600083015261322181612bfa565b9050919050565b6000602082019050818103600083015261324181612c60565b9050919050565b6000602082019050818103600083015261326181612ca0565b9050919050565b6000602082019050818103600083015261328181612d06565b9050919050565b600060208201905081810360008301526132a181612d6c565b9050919050565b600060208201905081810360008301526132c181612dac565b9050919050565b600060208201905081810360008301526132e181612e12565b9050919050565b6000602082019050818103600083015261330181612e78565b9050919050565b6000602082019050818103600083015261332181612ede565b9050919050565b6000602082019050818103600083015261334181612f44565b9050919050565b600060208201905061335d6000830184612fb9565b92915050565b60006060820190506133786000830186612fb9565b818103602083015261338a8185612a8f565b905061339960408301846129ad565b949350505050565b60006040820190506133b66000830185612fb9565b6133c36020830184612fb9565b9392505050565b6000604051905081810181811067ffffffffffffffff821117156133f1576133f06137e7565b5b8060405250919050565b600067ffffffffffffffff821115613416576134156137e7565b5b602082029050602081019050919050565b600067ffffffffffffffff821115613442576134416137e7565b5b602082029050602081019050919050565b600067ffffffffffffffff82111561346e5761346d6137e7565b5b601f19601f8301169050602081019050919050565b600067ffffffffffffffff82111561349e5761349d6137e7565b5b601f19601f8301169050602081019050919050565b6000819050602082019050919050565b600081519050919050565b600081519050919050565b600081519050919050565b6000602082019050919050565b600082825260208201905092915050565b600082825260208201905092915050565b600082825260208201905092915050565b600061352f82613681565b915061353a83613681565b9250827fffffffffffffffffffffffffffffffffffffffffffffffffffffffffffffffff0382111561356f5761356e61375a565b5b828201905092915050565b600061358582613681565b915061359083613681565b9250826135a05761359f613789565b5b828204905092915050565b60006135b682613681565b91506135c183613681565b9250817fffffffffffffffffffffffffffffffffffffffffffffffffffffffffffffffff04831182151516156135fa576135f961375a565b5b828202905092915050565b600061361082613661565b9050919050565b600061362282613661565b9050919050565b60008115159050919050565b60007fffffffff0000000000000000000000000000000000000000000000000000000082169050919050565b600073ffffffffffffffffffffffffffffffffffffffff82169050919050565b6000819050919050565b600061369682613681565b9050919050565b82818337600083830152505050565b60005b838110156136ca5780820151818401526020810190506136af565b838111156136d9576000848401525b50505050565b600060028204905060018216806136f757607f821691505b6020821081141561370b5761370a6137b8565b5b50919050565b600061371c82613681565b91507fffffffffffffffffffffffffffffffffffffffffffffffffffffffffffffffff82141561374f5761374e61375a565b5b600182019050919050565b7f4e487b7100000000000000000000000000000000000000000000000000000000600052601160045260246000fd5b7f4e487b7100000000000000000000000000000000000000000000000000000000600052601260045260246000fd5b7f4e487b7100000000000000000000000000000000000000000000000000000000600052602260045260246000fd5b7f4e487b7100000000000000000000000000000000000000000000000000000000600052604160045260246000fd5b6000601f19601f8301169050919050565b60008160e01c9050919050565b600060443d1015613844576138e7565b60046000803e613855600051613827565b6308c379a0811461386657506138e7565b60405160043d036004823e80513d602482011167ffffffffffffffff82111715613892575050506138e7565b808201805167ffffffffffffffff8111156138b15750505050506138e7565b8060208301013d85018111156138cc575050505050506138e7565b6138d582613816565b60208401016040528296505050505050505b90565b6138f381613605565b81146138fe57600080fd5b50565b61390a81613629565b811461391557600080fd5b50565b61392181613635565b811461392c57600080fd5b50565b61393881613681565b811461394357600080fd5b5056fea26469706673582212202572544d058fa3d187216295fe84d3430b07757870febf18f6a2af8497e700b864736f6c63430008000033",
  "linkReferences": {},
  "deployedLinkReferences": {}
}