{
  "_format": "hh-sol-artifact-1",
  "contractName": "MintBook",
  "sourceName": "contracts/mintBook.sol",
  "abi": [
    {
      "inputs": [],
      "stateMutability": "nonpayable",
      "type": "constructor"
    },
    {
      "anonymous": false,
      "inputs": [
        {
          "indexed": true,
          "internalType": "address",
          "name": "account",
          "type": "address"
        },
        {
          "indexed": true,
          "internalType": "address",
          "name": "operator",
          "type": "address"
        },
        {
          "indexed": false,
          "internalType": "bool",
          "name": "approved",
          "type": "bool"
        }
      ],
      "name": "ApprovalForAll",
      "type": "event"
    },
    {
      "anonymous": false,
      "inputs": [
        {
          "indexed": true,
          "internalType": "address",
          "name": "operator",
          "type": "address"
        },
        {
          "indexed": true,
          "internalType": "address",
          "name": "from",
          "type": "address"
        },
        {
          "indexed": true,
          "internalType": "address",
          "name": "to",
          "type": "address"
        },
        {
          "indexed": false,
          "internalType": "uint256[]",
          "name": "ids",
          "type": "uint256[]"
        },
        {
          "indexed": false,
          "internalType": "uint256[]",
          "name": "values",
          "type": "uint256[]"
        }
      ],
      "name": "TransferBatch",
      "type": "event"
    },
    {
      "anonymous": false,
      "inputs": [
        {
          "indexed": true,
          "internalType": "address",
          "name": "operator",
          "type": "address"
        },
        {
          "indexed": true,
          "internalType": "address",
          "name": "from",
          "type": "address"
        },
        {
          "indexed": true,
          "internalType": "address",
          "name": "to",
          "type": "address"
        },
        {
          "indexed": false,
          "internalType": "uint256",
          "name": "id",
          "type": "uint256"
        },
        {
          "indexed": false,
          "internalType": "uint256",
          "name": "value",
          "type": "uint256"
        }
      ],
      "name": "TransferSingle",
      "type": "event"
    },
    {
      "anonymous": false,
      "inputs": [
        {
          "indexed": false,
          "internalType": "string",
          "name": "value",
          "type": "string"
        },
        {
          "indexed": true,
          "internalType": "uint256",
          "name": "id",
          "type": "uint256"
        }
      ],
      "name": "URI",
      "type": "event"
    },
    {
      "inputs": [
        {
          "internalType": "address",
          "name": "account",
          "type": "address"
        },
        {
          "internalType": "uint256",
          "name": "id",
          "type": "uint256"
        }
      ],
      "name": "balanceOf",
      "outputs": [
        {
          "internalType": "uint256",
          "name": "",
          "type": "uint256"
        }
      ],
      "stateMutability": "view",
      "type": "function"
    },
    {
      "inputs": [
        {
          "internalType": "address[]",
          "name": "accounts",
          "type": "address[]"
        },
        {
          "internalType": "uint256[]",
          "name": "ids",
          "type": "uint256[]"
        }
      ],
      "name": "balanceOfBatch",
      "outputs": [
        {
          "internalType": "uint256[]",
          "name": "",
          "type": "uint256[]"
        }
      ],
      "stateMutability": "view",
      "type": "function"
    },
    {
      "inputs": [],
      "name": "balanceOfEth",
      "outputs": [
        {
          "internalType": "uint256",
          "name": "",
          "type": "uint256"
        }
      ],
      "stateMutability": "view",
      "type": "function"
    },
    {
      "inputs": [],
      "name": "bookIds",
      "outputs": [
        {
          "internalType": "uint256",
          "name": "_value",
          "type": "uint256"
        }
      ],
      "stateMutability": "view",
      "type": "function"
    },
    {
      "inputs": [
        {
          "internalType": "uint256",
          "name": "",
          "type": "uint256"
        }
      ],
      "name": "books",
      "outputs": [
        {
          "internalType": "uint256",
          "name": "price",
          "type": "uint256"
        },
        {
          "internalType": "string",
          "name": "URI",
          "type": "string"
        },
        {
          "internalType": "address payable",
          "name": "author",
          "type": "address"
        }
      ],
      "stateMutability": "view",
      "type": "function"
    },
    {
      "inputs": [
        {
          "internalType": "uint256",
          "name": "_bookId",
          "type": "uint256"
        }
      ],
      "name": "buy",
      "outputs": [
        {
          "internalType": "bool",
          "name": "",
          "type": "bool"
        }
      ],
      "stateMutability": "payable",
      "type": "function"
    },
    {
      "inputs": [],
      "name": "dao",
      "outputs": [
        {
          "internalType": "address",
          "name": "",
          "type": "address"
        }
      ],
      "stateMutability": "view",
      "type": "function"
    },
    {
      "inputs": [],
      "name": "getBookTokenContract",
      "outputs": [
        {
          "internalType": "contract BookToken",
          "name": "",
          "type": "address"
        }
      ],
      "stateMutability": "view",
      "type": "function"
    },
    {
      "inputs": [
        {
          "internalType": "address",
          "name": "user",
          "type": "address"
        }
      ],
      "name": "getIds",
      "outputs": [
        {
          "internalType": "uint256[]",
          "name": "",
          "type": "uint256[]"
        }
      ],
      "stateMutability": "view",
      "type": "function"
    },
    {
      "inputs": [
        {
          "internalType": "address",
          "name": "account",
          "type": "address"
        },
        {
          "internalType": "address",
          "name": "operator",
          "type": "address"
        }
      ],
      "name": "isApprovedForAll",
      "outputs": [
        {
          "internalType": "bool",
          "name": "",
          "type": "bool"
        }
      ],
      "stateMutability": "view",
      "type": "function"
    },
    {
      "inputs": [
        {
          "internalType": "uint256",
          "name": "_quantity",
          "type": "uint256"
        },
        {
          "internalType": "string",
          "name": "_URI",
          "type": "string"
        },
        {
          "internalType": "uint256",
          "name": "_price",
          "type": "uint256"
        }
      ],
      "name": "mintABook",
      "outputs": [
        {
          "internalType": "uint256",
          "name": "",
          "type": "uint256"
        }
      ],
      "stateMutability": "nonpayable",
      "type": "function"
    },
    {
      "inputs": [
        {
          "internalType": "address",
          "name": "",
          "type": "address"
        },
        {
          "internalType": "address",
          "name": "",
          "type": "address"
        },
        {
          "internalType": "uint256[]",
          "name": "",
          "type": "uint256[]"
        },
        {
          "internalType": "uint256[]",
          "name": "",
          "type": "uint256[]"
        },
        {
          "internalType": "bytes",
          "name": "",
          "type": "bytes"
        }
      ],
      "name": "onERC1155BatchReceived",
      "outputs": [
        {
          "internalType": "bytes4",
          "name": "",
          "type": "bytes4"
        }
      ],
      "stateMutability": "nonpayable",
      "type": "function"
    },
    {
      "inputs": [
        {
          "internalType": "address",
          "name": "",
          "type": "address"
        },
        {
          "internalType": "address",
          "name": "",
          "type": "address"
        },
        {
          "internalType": "uint256",
          "name": "",
          "type": "uint256"
        },
        {
          "internalType": "uint256",
          "name": "",
          "type": "uint256"
        },
        {
          "internalType": "bytes",
          "name": "",
          "type": "bytes"
        }
      ],
      "name": "onERC1155Received",
      "outputs": [
        {
          "internalType": "bytes4",
          "name": "",
          "type": "bytes4"
        }
      ],
      "stateMutability": "nonpayable",
      "type": "function"
    },
    {
      "inputs": [
        {
          "internalType": "uint256",
          "name": "_tokenId",
          "type": "uint256"
        },
        {
          "internalType": "uint256",
          "name": "_salePrice",
          "type": "uint256"
        }
      ],
      "name": "royaltyInfo",
      "outputs": [
        {
          "internalType": "address",
          "name": "receiver",
          "type": "address"
        },
        {
          "internalType": "uint256",
          "name": "royaltyAmount",
          "type": "uint256"
        }
      ],
      "stateMutability": "view",
      "type": "function"
    },
    {
      "inputs": [
        {
          "internalType": "address",
          "name": "from",
          "type": "address"
        },
        {
          "internalType": "address",
          "name": "to",
          "type": "address"
        },
        {
          "internalType": "uint256[]",
          "name": "ids",
          "type": "uint256[]"
        },
        {
          "internalType": "uint256[]",
          "name": "amounts",
          "type": "uint256[]"
        },
        {
          "internalType": "bytes",
          "name": "data",
          "type": "bytes"
        }
      ],
      "name": "safeBatchTransferFrom",
      "outputs": [],
      "stateMutability": "nonpayable",
      "type": "function"
    },
    {
      "inputs": [
        {
          "internalType": "address",
          "name": "from",
          "type": "address"
        },
        {
          "internalType": "address",
          "name": "to",
          "type": "address"
        },
        {
          "internalType": "uint256",
          "name": "id",
          "type": "uint256"
        },
        {
          "internalType": "uint256",
          "name": "amount",
          "type": "uint256"
        },
        {
          "internalType": "bytes",
          "name": "data",
          "type": "bytes"
        }
      ],
      "name": "safeTransferFrom",
      "outputs": [],
      "stateMutability": "nonpayable",
      "type": "function"
    },
    {
      "inputs": [
        {
          "internalType": "address",
          "name": "operator",
          "type": "address"
        },
        {
          "internalType": "bool",
          "name": "approved",
          "type": "bool"
        }
      ],
      "name": "setApprovalForAll",
      "outputs": [],
      "stateMutability": "nonpayable",
      "type": "function"
    },
    {
      "inputs": [
        {
          "internalType": "contract BookToken",
          "name": "_tokenAddress",
          "type": "address"
        }
      ],
      "name": "setBookTokenContract",
      "outputs": [],
      "stateMutability": "nonpayable",
      "type": "function"
    },
    {
      "inputs": [
        {
          "internalType": "address",
          "name": "_address",
          "type": "address"
        }
      ],
      "name": "setDaoContract",
      "outputs": [],
      "stateMutability": "nonpayable",
      "type": "function"
    },
    {
      "inputs": [
        {
          "internalType": "bytes4",
          "name": "interfaceId",
          "type": "bytes4"
        }
      ],
      "name": "supportsInterface",
      "outputs": [
        {
          "internalType": "bool",
          "name": "",
          "type": "bool"
        }
      ],
      "stateMutability": "view",
      "type": "function"
    },
    {
      "inputs": [
        {
          "internalType": "uint256",
          "name": "_tokenId",
          "type": "uint256"
        }
      ],
      "name": "tokenURI",
      "outputs": [
        {
          "internalType": "string",
          "name": "",
          "type": "string"
        }
      ],
      "stateMutability": "view",
      "type": "function"
    },
    {
      "inputs": [
        {
          "internalType": "uint256",
          "name": "",
          "type": "uint256"
        }
      ],
      "name": "uri",
      "outputs": [
        {
          "internalType": "string",
          "name": "",
          "type": "string"
        }
      ],
      "stateMutability": "view",
      "type": "function"
    },
    {
      "stateMutability": "payable",
      "type": "receive"
    }
  ],
  "bytecode": "0x60806040523480156200001157600080fd5b506040518060200160405280600081525062000033816200007b60201b60201c565b5033600560006101000a81548173ffffffffffffffffffffffffffffffffffffffff021916908373ffffffffffffffffffffffffffffffffffffffff160217905550620001ac565b80600290805190602001906200009392919062000097565b5050565b828054620000a59062000147565b90600052602060002090601f016020900481019282620000c9576000855562000115565b82601f10620000e457805160ff191683800117855562000115565b8280016001018555821562000115579182015b8281111562000114578251825591602001919060010190620000f7565b5b50905062000124919062000128565b5090565b5b808211156200014357600081600090555060010162000129565b5090565b600060028204905060018216806200016057607f821691505b602082108114156200017757620001766200017d565b5b50919050565b7f4e487b7100000000000000000000000000000000000000000000000000000000600052602260045260246000fd5b613a8f80620001bc6000396000f3fe6080604052600436106101385760003560e01c806368744046116100ab578063c890b6f81161006f578063c890b6f8146104a5578063d96a094a146104ce578063db32460c146104fe578063e985e9c514610529578063f23a6e6114610566578063f242432a146105a35761013f565b8063687440461461039a5780638fb58285146103d9578063a22cb46514610402578063bc197c811461042b578063c87b56dd146104685761013f565b80632a55205a116100fd5780632a55205a146102635780632eb2c2d6146102a15780634162169f146102ca57806348e3f0eb146102f55780634e1273f4146103205780634fc3c4fc1461035d5761013f565b8062fdd58e1461014457806301ffc9a71461018157806306048fdb146101be5780630e89341c146101e95780632671b0d8146102265761013f565b3661013f57005b600080fd5b34801561015057600080fd5b5061016b60048036038101906101669190612842565b6105cc565b604051610178919061340e565b60405180910390f35b34801561018d57600080fd5b506101a860048036038101906101a391906128ea565b610695565b6040516101b591906131d2565b60405180910390f35b3480156101ca57600080fd5b506101d361070f565b6040516101e0919061340e565b60405180910390f35b3480156101f557600080fd5b50610210600480360381019061020b9190612965565b610717565b60405161021d919061324c565b60405180910390f35b34801561023257600080fd5b5061024d60048036038101906102489190612653565b6107ab565b60405161025a9190613179565b60405180910390f35b34801561026f57600080fd5b5061028a600480360381019061028591906129f5565b610842565b604051610298929190613150565b60405180910390f35b3480156102ad57600080fd5b506102c860048036038101906102c391906126b8565b6108a8565b005b3480156102d657600080fd5b506102df610949565b6040516102ec9190613073565b60405180910390f35b34801561030157600080fd5b5061030a61096f565b604051610317919061340e565b60405180910390f35b34801561032c57600080fd5b506103476004803603810190610342919061287e565b61097b565b6040516103549190613179565b60405180910390f35b34801561036957600080fd5b50610384600480360381019061037f919061298e565b610b2c565b604051610391919061340e565b60405180910390f35b3480156103a657600080fd5b506103c160048036038101906103bc9190612965565b610c2b565b6040516103d093929190613429565b60405180910390f35b3480156103e557600080fd5b5061040060048036038101906103fb9190612653565b610cfd565b005b34801561040e57600080fd5b5061042960048036038101906104249190612806565b610d9b565b005b34801561043757600080fd5b50610452600480360381019061044d91906126b8565b610db1565b60405161045f91906131ed565b60405180910390f35b34801561047457600080fd5b5061048f600480360381019061048a9190612965565b610dc6565b60405161049c919061324c565b60405180910390f35b3480156104b157600080fd5b506104cc60048036038101906104c7919061293c565b610e6e565b005b6104e860048036038101906104e39190612965565b610f0c565b6040516104f591906131d2565b60405180910390f35b34801561050a57600080fd5b50610513611210565b6040516105209190613208565b60405180910390f35b34801561053557600080fd5b50610550600480360381019061054b919061267c565b611294565b60405161055d91906131d2565b60405180910390f35b34801561057257600080fd5b5061058d60048036038101906105889190612777565b611328565b60405161059a91906131ed565b60405180910390f35b3480156105af57600080fd5b506105ca60048036038101906105c59190612777565b61133d565b005b60008073ffffffffffffffffffffffffffffffffffffffff168373ffffffffffffffffffffffffffffffffffffffff16141561063d576040517f08c379a0000000000000000000000000000000000000000000000000000000008152600401610634906132ae565b60405180910390fd5b60008083815260200190815260200160002060008473ffffffffffffffffffffffffffffffffffffffff1673ffffffffffffffffffffffffffffffffffffffff16815260200190815260200160002054905092915050565b60007f2a55205a000000000000000000000000000000000000000000000000000000007bffffffffffffffffffffffffffffffffffffffffffffffffffffffff1916827bffffffffffffffffffffffffffffffffffffffffffffffffffffffff191614806107085750610707826113de565b5b9050919050565b600047905090565b606060028054610726906137db565b80601f0160208091040260200160405190810160405280929190818152602001828054610752906137db565b801561079f5780601f106107745761010080835404028352916020019161079f565b820191906000526020600020905b81548152906001019060200180831161078257829003601f168201915b50505050509050919050565b6060600860008373ffffffffffffffffffffffffffffffffffffffff1673ffffffffffffffffffffffffffffffffffffffff16815260200190815260200160002080548060200260200160405190810160405280929190818152602001828054801561083657602002820191906000526020600020905b815481526020019060010190808311610822575b50505050509050919050565b60008060006007600086815260200190815260200160002060020160009054906101000a900473ffffffffffffffffffffffffffffffffffffffff169050806127106103e8866108929190613671565b61089c9190613640565b92509250509250929050565b6108b0611458565b73ffffffffffffffffffffffffffffffffffffffff168573ffffffffffffffffffffffffffffffffffffffff1614806108f657506108f5856108f0611458565b611294565b5b610935576040517f08c379a000000000000000000000000000000000000000000000000000000000815260040161092c9061332e565b60405180910390fd5b6109428585858585611460565b5050505050565b600460009054906101000a900473ffffffffffffffffffffffffffffffffffffffff1681565b60068060000154905081565b606081518351146109c1576040517f08c379a00000000000000000000000000000000000000000000000000000000081526004016109b8906133ae565b60405180910390fd5b6000835167ffffffffffffffff811115610a04577f4e487b7100000000000000000000000000000000000000000000000000000000600052604160045260246000fd5b604051908082528060200260200182016040528015610a325781602001602082028036833780820191505090505b50905060005b8451811015610b2157610acb858281518110610a7d577f4e487b7100000000000000000000000000000000000000000000000000000000600052603260045260246000fd5b6020026020010151858381518110610abe577f4e487b7100000000000000000000000000000000000000000000000000000000600052603260045260246000fd5b60200260200101516105cc565b828281518110610b04577f4e487b7100000000000000000000000000000000000000000000000000000000600052603260045260246000fd5b60200260200101818152505080610b1a9061380d565b9050610a38565b508091505092915050565b600080610b3960066117c0565b905060405180606001604052808481526020018581526020013373ffffffffffffffffffffffffffffffffffffffff1681525060076000838152602001908152602001600020600082015181600001556020820151816001019080519060200190610ba5929190612336565b5060408201518160020160006101000a81548173ffffffffffffffffffffffffffffffffffffffff021916908373ffffffffffffffffffffffffffffffffffffffff160217905550905050610c0b308287604051806020016040528060008152506117ce565b610c16306001610d9b565b610c206006611964565b809150509392505050565b6007602052806000526040600020600091509050806000015490806001018054610c54906137db565b80601f0160208091040260200160405190810160405280929190818152602001828054610c80906137db565b8015610ccd5780601f10610ca257610100808354040283529160200191610ccd565b820191906000526020600020905b815481529060010190602001808311610cb057829003601f168201915b5050505050908060020160009054906101000a900473ffffffffffffffffffffffffffffffffffffffff16905083565b600560009054906101000a900473ffffffffffffffffffffffffffffffffffffffff1673ffffffffffffffffffffffffffffffffffffffff163373ffffffffffffffffffffffffffffffffffffffff1614610d5757600080fd5b80600460006101000a81548173ffffffffffffffffffffffffffffffffffffffff021916908373ffffffffffffffffffffffffffffffffffffffff16021790555050565b610dad610da6611458565b838361197a565b5050565b600063bc197c8160e01b905095945050505050565b6060600760008381526020019081526020016000206001018054610de9906137db565b80601f0160208091040260200160405190810160405280929190818152602001828054610e15906137db565b8015610e625780601f10610e3757610100808354040283529160200191610e62565b820191906000526020600020905b815481529060010190602001808311610e4557829003601f168201915b50505050509050919050565b600560009054906101000a900473ffffffffffffffffffffffffffffffffffffffff1673ffffffffffffffffffffffffffffffffffffffff163373ffffffffffffffffffffffffffffffffffffffff1614610ec857600080fd5b80600360006101000a81548173ffffffffffffffffffffffffffffffffffffffff021916908373ffffffffffffffffffffffffffffffffffffffff16021790555050565b60006007600083815260200190815260200160002060000154341015610f67576040517f08c379a0000000000000000000000000000000000000000000000000000000008152600401610f5e906132ee565b60405180910390fd5b600073ffffffffffffffffffffffffffffffffffffffff163373ffffffffffffffffffffffffffffffffffffffff161415610fd7576040517f08c379a0000000000000000000000000000000000000000000000000000000008152600401610fce9061334e565b60405180910390fd5b610ff430338460016040518060200160405280600081525061133d565b600860003373ffffffffffffffffffffffffffffffffffffffff1673ffffffffffffffffffffffffffffffffffffffff1681526020019081526020016000208290806001815401808255809150506001900390600052602060002001600090919091909150556007600083815260200190815260200160002060020160009054906101000a900473ffffffffffffffffffffffffffffffffffffffff1673ffffffffffffffffffffffffffffffffffffffff166108fc60646062346110b99190613671565b6110c39190613640565b9081150290604051600060405180830381858888f193505050501580156110ee573d6000803e3d6000fd5b50600460009054906101000a900473ffffffffffffffffffffffffffffffffffffffff1673ffffffffffffffffffffffffffffffffffffffff166108fc606460023461113a9190613671565b6111449190613640565b9081150290604051600060405180830381858888f1935050505015801561116f573d6000803e3d6000fd5b50600360009054906101000a900473ffffffffffffffffffffffffffffffffffffffff1673ffffffffffffffffffffffffffffffffffffffff166342142dca670de0b6b3a7640000336040518363ffffffff1660e01b81526004016111d5929190613223565b600060405180830381600087803b1580156111ef57600080fd5b505af1158015611203573d6000803e3d6000fd5b5050505060019050919050565b6000600560009054906101000a900473ffffffffffffffffffffffffffffffffffffffff1673ffffffffffffffffffffffffffffffffffffffff163373ffffffffffffffffffffffffffffffffffffffff161461126c57600080fd5b600360009054906101000a900473ffffffffffffffffffffffffffffffffffffffff16905090565b6000600160008473ffffffffffffffffffffffffffffffffffffffff1673ffffffffffffffffffffffffffffffffffffffff16815260200190815260200160002060008373ffffffffffffffffffffffffffffffffffffffff1673ffffffffffffffffffffffffffffffffffffffff16815260200190815260200160002060009054906101000a900460ff16905092915050565b600063f23a6e6160e01b905095945050505050565b611345611458565b73ffffffffffffffffffffffffffffffffffffffff168573ffffffffffffffffffffffffffffffffffffffff16148061138b575061138a85611385611458565b611294565b5b6113ca576040517f08c379a00000000000000000000000000000000000000000000000000000000081526004016113c1906132ce565b60405180910390fd5b6113d78585858585611ae7565b5050505050565b60007f4e2312e0000000000000000000000000000000000000000000000000000000007bffffffffffffffffffffffffffffffffffffffffffffffffffffffff1916827bffffffffffffffffffffffffffffffffffffffffffffffffffffffff19161480611451575061145082611d69565b5b9050919050565b600033905090565b81518351146114a4576040517f08c379a000000000000000000000000000000000000000000000000000000000815260040161149b906133ce565b60405180910390fd5b600073ffffffffffffffffffffffffffffffffffffffff168473ffffffffffffffffffffffffffffffffffffffff161415611514576040517f08c379a000000000000000000000000000000000000000000000000000000000815260040161150b9061330e565b60405180910390fd5b600061151e611458565b905061152e818787878787611e4b565b60005b845181101561172b576000858281518110611575577f4e487b7100000000000000000000000000000000000000000000000000000000600052603260045260246000fd5b6020026020010151905060008583815181106115ba577f4e487b7100000000000000000000000000000000000000000000000000000000600052603260045260246000fd5b60200260200101519050600080600084815260200190815260200160002060008b73ffffffffffffffffffffffffffffffffffffffff1673ffffffffffffffffffffffffffffffffffffffff1681526020019081526020016000205490508181101561165b576040517f08c379a00000000000000000000000000000000000000000000000000000000081526004016116529061336e565b60405180910390fd5b81810360008085815260200190815260200160002060008c73ffffffffffffffffffffffffffffffffffffffff1673ffffffffffffffffffffffffffffffffffffffff168152602001908152602001600020819055508160008085815260200190815260200160002060008b73ffffffffffffffffffffffffffffffffffffffff1673ffffffffffffffffffffffffffffffffffffffff168152602001908152602001600020600082825461171091906135ea565b92505081905550505050806117249061380d565b9050611531565b508473ffffffffffffffffffffffffffffffffffffffff168673ffffffffffffffffffffffffffffffffffffffff168273ffffffffffffffffffffffffffffffffffffffff167f4a39dc06d4c0dbc64b70af90fd698a233a518aa5d07e595d983b8c0526c8f7fb87876040516117a292919061319b565b60405180910390a46117b8818787878787611e53565b505050505050565b600081600001549050919050565b600073ffffffffffffffffffffffffffffffffffffffff168473ffffffffffffffffffffffffffffffffffffffff16141561183e576040517f08c379a0000000000000000000000000000000000000000000000000000000008152600401611835906133ee565b60405180910390fd5b6000611848611458565b90506118698160008761185a88612023565b61186388612023565b87611e4b565b8260008086815260200190815260200160002060008773ffffffffffffffffffffffffffffffffffffffff1673ffffffffffffffffffffffffffffffffffffffff16815260200190815260200160002060008282546118c891906135ea565b925050819055508473ffffffffffffffffffffffffffffffffffffffff16600073ffffffffffffffffffffffffffffffffffffffff168273ffffffffffffffffffffffffffffffffffffffff167fc3d58168c5ae7397731d063d5bbf3d657854427343f4c083240f7aacaa2d0f628787604051611946929190613467565b60405180910390a461195d816000878787876120e9565b5050505050565b6001816000016000828254019250508190555050565b8173ffffffffffffffffffffffffffffffffffffffff168373ffffffffffffffffffffffffffffffffffffffff1614156119e9576040517f08c379a00000000000000000000000000000000000000000000000000000000081526004016119e09061338e565b60405180910390fd5b80600160008573ffffffffffffffffffffffffffffffffffffffff1673ffffffffffffffffffffffffffffffffffffffff16815260200190815260200160002060008473ffffffffffffffffffffffffffffffffffffffff1673ffffffffffffffffffffffffffffffffffffffff16815260200190815260200160002060006101000a81548160ff0219169083151502179055508173ffffffffffffffffffffffffffffffffffffffff168373ffffffffffffffffffffffffffffffffffffffff167f17307eab39ab6107e8899845ad3d59bd9653f200f220920489ca2b5937696c3183604051611ada91906131d2565b60405180910390a3505050565b600073ffffffffffffffffffffffffffffffffffffffff168473ffffffffffffffffffffffffffffffffffffffff161415611b57576040517f08c379a0000000000000000000000000000000000000000000000000000000008152600401611b4e9061330e565b60405180910390fd5b6000611b61611458565b9050611b81818787611b7288612023565b611b7b88612023565b87611e4b565b600080600086815260200190815260200160002060008873ffffffffffffffffffffffffffffffffffffffff1673ffffffffffffffffffffffffffffffffffffffff16815260200190815260200160002054905083811015611c18576040517f08c379a0000000000000000000000000000000000000000000000000000000008152600401611c0f9061336e565b60405180910390fd5b83810360008087815260200190815260200160002060008973ffffffffffffffffffffffffffffffffffffffff1673ffffffffffffffffffffffffffffffffffffffff168152602001908152602001600020819055508360008087815260200190815260200160002060008873ffffffffffffffffffffffffffffffffffffffff1673ffffffffffffffffffffffffffffffffffffffff1681526020019081526020016000206000828254611ccd91906135ea565b925050819055508573ffffffffffffffffffffffffffffffffffffffff168773ffffffffffffffffffffffffffffffffffffffff168373ffffffffffffffffffffffffffffffffffffffff167fc3d58168c5ae7397731d063d5bbf3d657854427343f4c083240f7aacaa2d0f628888604051611d4a929190613467565b60405180910390a4611d608288888888886120e9565b50505050505050565b60007fd9b67a26000000000000000000000000000000000000000000000000000000007bffffffffffffffffffffffffffffffffffffffffffffffffffffffff1916827bffffffffffffffffffffffffffffffffffffffffffffffffffffffff19161480611e3457507f0e89341c000000000000000000000000000000000000000000000000000000007bffffffffffffffffffffffffffffffffffffffffffffffffffffffff1916827bffffffffffffffffffffffffffffffffffffffffffffffffffffffff1916145b80611e445750611e43826122b9565b5b9050919050565b505050505050565b611e728473ffffffffffffffffffffffffffffffffffffffff16612323565b1561201b578373ffffffffffffffffffffffffffffffffffffffff1663bc197c8187878686866040518663ffffffff1660e01b8152600401611eb895949392919061308e565b602060405180830381600087803b158015611ed257600080fd5b505af1925050508015611f0357506040513d601f19601f82011682018060405250810190611f009190612913565b60015b611f9257611f0f613930565b80611f1a5750611f57565b806040517f08c379a0000000000000000000000000000000000000000000000000000000008152600401611f4e919061324c565b60405180910390fd5b6040517f08c379a0000000000000000000000000000000000000000000000000000000008152600401611f899061326e565b60405180910390fd5b63bc197c8160e01b7bffffffffffffffffffffffffffffffffffffffffffffffffffffffff1916817bffffffffffffffffffffffffffffffffffffffffffffffffffffffff191614612019576040517f08c379a00000000000000000000000000000000000000000000000000000000081526004016120109061328e565b60405180910390fd5b505b505050505050565b60606000600167ffffffffffffffff811115612068577f4e487b7100000000000000000000000000000000000000000000000000000000600052604160045260246000fd5b6040519080825280602002602001820160405280156120965781602001602082028036833780820191505090505b50905082816000815181106120d4577f4e487b7100000000000000000000000000000000000000000000000000000000600052603260045260246000fd5b60200260200101818152505080915050919050565b6121088473ffffffffffffffffffffffffffffffffffffffff16612323565b156122b1578373ffffffffffffffffffffffffffffffffffffffff1663f23a6e6187878686866040518663ffffffff1660e01b815260040161214e9594939291906130f6565b602060405180830381600087803b15801561216857600080fd5b505af192505050801561219957506040513d601f19601f820116820180604052508101906121969190612913565b60015b612228576121a5613930565b806121b057506121ed565b806040517f08c379a00000000000000000000000000000000000000000000000000000000081526004016121e4919061324c565b60405180910390fd5b6040517f08c379a000000000000000000000000000000000000000000000000000000000815260040161221f9061326e565b60405180910390fd5b63f23a6e6160e01b7bffffffffffffffffffffffffffffffffffffffffffffffffffffffff1916817bffffffffffffffffffffffffffffffffffffffffffffffffffffffff1916146122af576040517f08c379a00000000000000000000000000000000000000000000000000000000081526004016122a69061328e565b60405180910390fd5b505b505050505050565b60007f01ffc9a7000000000000000000000000000000000000000000000000000000007bffffffffffffffffffffffffffffffffffffffffffffffffffffffff1916827bffffffffffffffffffffffffffffffffffffffffffffffffffffffff1916149050919050565b600080823b905060008111915050919050565b828054612342906137db565b90600052602060002090601f01602090048101928261236457600085556123ab565b82601f1061237d57805160ff19168380011785556123ab565b828001600101855582156123ab579182015b828111156123aa57825182559160200191906001019061238f565b5b5090506123b891906123bc565b5090565b5b808211156123d55760008160009055506001016123bd565b5090565b60006123ec6123e7846134c1565b613490565b9050808382526020820190508285602086028201111561240b57600080fd5b60005b8581101561243b5781612421888261252d565b84526020840193506020830192505060018101905061240e565b5050509392505050565b6000612458612453846134ed565b613490565b9050808382526020820190508285602086028201111561247757600080fd5b60005b858110156124a7578161248d888261263e565b84526020840193506020830192505060018101905061247a565b5050509392505050565b60006124c46124bf84613519565b613490565b9050828152602081018484840111156124dc57600080fd5b6124e7848285613799565b509392505050565b60006125026124fd84613549565b613490565b90508281526020810184848401111561251a57600080fd5b612525848285613799565b509392505050565b60008135905061253c816139e6565b92915050565b600082601f83011261255357600080fd5b81356125638482602086016123d9565b91505092915050565b600082601f83011261257d57600080fd5b813561258d848260208601612445565b91505092915050565b6000813590506125a5816139fd565b92915050565b6000813590506125ba81613a14565b92915050565b6000815190506125cf81613a14565b92915050565b600082601f8301126125e657600080fd5b81356125f68482602086016124b1565b91505092915050565b60008135905061260e81613a2b565b92915050565b600082601f83011261262557600080fd5b81356126358482602086016124ef565b91505092915050565b60008135905061264d81613a42565b92915050565b60006020828403121561266557600080fd5b60006126738482850161252d565b91505092915050565b6000806040838503121561268f57600080fd5b600061269d8582860161252d565b92505060206126ae8582860161252d565b9150509250929050565b600080600080600060a086880312156126d057600080fd5b60006126de8882890161252d565b95505060206126ef8882890161252d565b945050604086013567ffffffffffffffff81111561270c57600080fd5b6127188882890161256c565b935050606086013567ffffffffffffffff81111561273557600080fd5b6127418882890161256c565b925050608086013567ffffffffffffffff81111561275e57600080fd5b61276a888289016125d5565b9150509295509295909350565b600080600080600060a0868803121561278f57600080fd5b600061279d8882890161252d565b95505060206127ae8882890161252d565b94505060406127bf8882890161263e565b93505060606127d08882890161263e565b925050608086013567ffffffffffffffff8111156127ed57600080fd5b6127f9888289016125d5565b9150509295509295909350565b6000806040838503121561281957600080fd5b60006128278582860161252d565b925050602061283885828601612596565b9150509250929050565b6000806040838503121561285557600080fd5b60006128638582860161252d565b92505060206128748582860161263e565b9150509250929050565b6000806040838503121561289157600080fd5b600083013567ffffffffffffffff8111156128ab57600080fd5b6128b785828601612542565b925050602083013567ffffffffffffffff8111156128d457600080fd5b6128e08582860161256c565b9150509250929050565b6000602082840312156128fc57600080fd5b600061290a848285016125ab565b91505092915050565b60006020828403121561292557600080fd5b6000612933848285016125c0565b91505092915050565b60006020828403121561294e57600080fd5b600061295c848285016125ff565b91505092915050565b60006020828403121561297757600080fd5b60006129858482850161263e565b91505092915050565b6000806000606084860312156129a357600080fd5b60006129b18682870161263e565b935050602084013567ffffffffffffffff8111156129ce57600080fd5b6129da86828701612614565b92505060406129eb8682870161263e565b9150509250925092565b60008060408385031215612a0857600080fd5b6000612a168582860161263e565b9250506020612a278582860161263e565b9150509250929050565b6000612a3d8383613055565b60208301905092915050565b612a52816136dd565b82525050565b612a61816136cb565b82525050565b6000612a7282613589565b612a7c81856135b7565b9350612a8783613579565b8060005b83811015612ab8578151612a9f8882612a31565b9750612aaa836135aa565b925050600181019050612a8b565b5085935050505092915050565b612ace816136ef565b82525050565b612add816136fb565b82525050565b6000612aee82613594565b612af881856135c8565b9350612b088185602086016137a8565b612b1181613912565b840191505092915050565b612b2581613763565b82525050565b612b3481613787565b82525050565b6000612b458261359f565b612b4f81856135d9565b9350612b5f8185602086016137a8565b612b6881613912565b840191505092915050565b6000612b806034836135d9565b91507f455243313135353a207472616e7366657220746f206e6f6e204552433131353560008301527f526563656976657220696d706c656d656e7465720000000000000000000000006020830152604082019050919050565b6000612be66028836135d9565b91507f455243313135353a204552433131353552656365697665722072656a6563746560008301527f6420746f6b656e730000000000000000000000000000000000000000000000006020830152604082019050919050565b6000612c4c602b836135d9565b91507f455243313135353a2062616c616e636520717565727920666f7220746865207a60008301527f65726f20616464726573730000000000000000000000000000000000000000006020830152604082019050919050565b6000612cb26029836135d9565b91507f455243313135353a2063616c6c6572206973206e6f74206f776e6572206e6f7260008301527f20617070726f76656400000000000000000000000000000000000000000000006020830152604082019050919050565b6000612d18600e836135d9565b91507f4e6f7420656e6f756768206574680000000000000000000000000000000000006000830152602082019050919050565b6000612d586025836135d9565b91507f455243313135353a207472616e7366657220746f20746865207a65726f20616460008301527f64726573730000000000000000000000000000000000000000000000000000006020830152604082019050919050565b6000612dbe6032836135d9565b91507f455243313135353a207472616e736665722063616c6c6572206973206e6f742060008301527f6f776e6572206e6f7220617070726f76656400000000000000000000000000006020830152604082019050919050565b6000612e246018836135d9565b91507f43616e6e6f742068617665207a65726f206164647265737300000000000000006000830152602082019050919050565b6000612e64602a836135d9565b91507f455243313135353a20696e73756666696369656e742062616c616e636520666f60008301527f72207472616e73666572000000000000000000000000000000000000000000006020830152604082019050919050565b6000612eca6029836135d9565b91507f455243313135353a2073657474696e6720617070726f76616c2073746174757360008301527f20666f722073656c6600000000000000000000000000000000000000000000006020830152604082019050919050565b6000612f306029836135d9565b91507f455243313135353a206163636f756e747320616e6420696473206c656e67746860008301527f206d69736d6174636800000000000000000000000000000000000000000000006020830152604082019050919050565b6000612f966028836135d9565b91507f455243313135353a2069647320616e6420616d6f756e7473206c656e6774682060008301527f6d69736d617463680000000000000000000000000000000000000000000000006020830152604082019050919050565b6000612ffc6021836135d9565b91507f455243313135353a206d696e7420746f20746865207a65726f2061646472657360008301527f73000000000000000000000000000000000000000000000000000000000000006020830152604082019050919050565b61305e81613759565b82525050565b61306d81613759565b82525050565b60006020820190506130886000830184612a58565b92915050565b600060a0820190506130a36000830188612a58565b6130b06020830187612a58565b81810360408301526130c28186612a67565b905081810360608301526130d68185612a67565b905081810360808301526130ea8184612ae3565b90509695505050505050565b600060a08201905061310b6000830188612a58565b6131186020830187612a58565b6131256040830186613064565b6131326060830185613064565b81810360808301526131448184612ae3565b90509695505050505050565b60006040820190506131656000830185612a58565b6131726020830184613064565b9392505050565b600060208201905081810360008301526131938184612a67565b905092915050565b600060408201905081810360008301526131b58185612a67565b905081810360208301526131c98184612a67565b90509392505050565b60006020820190506131e76000830184612ac5565b92915050565b60006020820190506132026000830184612ad4565b92915050565b600060208201905061321d6000830184612b1c565b92915050565b60006040820190506132386000830185612b2b565b6132456020830184612a58565b9392505050565b600060208201905081810360008301526132668184612b3a565b905092915050565b6000602082019050818103600083015261328781612b73565b9050919050565b600060208201905081810360008301526132a781612bd9565b9050919050565b600060208201905081810360008301526132c781612c3f565b9050919050565b600060208201905081810360008301526132e781612ca5565b9050919050565b6000602082019050818103600083015261330781612d0b565b9050919050565b6000602082019050818103600083015261332781612d4b565b9050919050565b6000602082019050818103600083015261334781612db1565b9050919050565b6000602082019050818103600083015261336781612e17565b9050919050565b6000602082019050818103600083015261338781612e57565b9050919050565b600060208201905081810360008301526133a781612ebd565b9050919050565b600060208201905081810360008301526133c781612f23565b9050919050565b600060208201905081810360008301526133e781612f89565b9050919050565b6000602082019050818103600083015261340781612fef565b9050919050565b60006020820190506134236000830184613064565b92915050565b600060608201905061343e6000830186613064565b81810360208301526134508185612b3a565b905061345f6040830184612a49565b949350505050565b600060408201905061347c6000830185613064565b6134896020830184613064565b9392505050565b6000604051905081810181811067ffffffffffffffff821117156134b7576134b66138e3565b5b8060405250919050565b600067ffffffffffffffff8211156134dc576134db6138e3565b5b602082029050602081019050919050565b600067ffffffffffffffff821115613508576135076138e3565b5b602082029050602081019050919050565b600067ffffffffffffffff821115613534576135336138e3565b5b601f19601f8301169050602081019050919050565b600067ffffffffffffffff821115613564576135636138e3565b5b601f19601f8301169050602081019050919050565b6000819050602082019050919050565b600081519050919050565b600081519050919050565b600081519050919050565b6000602082019050919050565b600082825260208201905092915050565b600082825260208201905092915050565b600082825260208201905092915050565b60006135f582613759565b915061360083613759565b9250827fffffffffffffffffffffffffffffffffffffffffffffffffffffffffffffffff0382111561363557613634613856565b5b828201905092915050565b600061364b82613759565b915061365683613759565b92508261366657613665613885565b5b828204905092915050565b600061367c82613759565b915061368783613759565b9250817fffffffffffffffffffffffffffffffffffffffffffffffffffffffffffffffff04831182151516156136c0576136bf613856565b5b828202905092915050565b60006136d682613739565b9050919050565b60006136e882613739565b9050919050565b60008115159050919050565b60007fffffffff0000000000000000000000000000000000000000000000000000000082169050919050565b6000613732826136dd565b9050919050565b600073ffffffffffffffffffffffffffffffffffffffff82169050919050565b6000819050919050565b600061376e82613775565b9050919050565b600061378082613739565b9050919050565b600061379282613759565b9050919050565b82818337600083830152505050565b60005b838110156137c65780820151818401526020810190506137ab565b838111156137d5576000848401525b50505050565b600060028204905060018216806137f357607f821691505b60208210811415613807576138066138b4565b5b50919050565b600061381882613759565b91507fffffffffffffffffffffffffffffffffffffffffffffffffffffffffffffffff82141561384b5761384a613856565b5b600182019050919050565b7f4e487b7100000000000000000000000000000000000000000000000000000000600052601160045260246000fd5b7f4e487b7100000000000000000000000000000000000000000000000000000000600052601260045260246000fd5b7f4e487b7100000000000000000000000000000000000000000000000000000000600052602260045260246000fd5b7f4e487b7100000000000000000000000000000000000000000000000000000000600052604160045260246000fd5b6000601f19601f8301169050919050565b60008160e01c9050919050565b600060443d1015613940576139e3565b60046000803e613951600051613923565b6308c379a0811461396257506139e3565b60405160043d036004823e80513d602482011167ffffffffffffffff8211171561398e575050506139e3565b808201805167ffffffffffffffff8111156139ad5750505050506139e3565b8060208301013d85018111156139c8575050505050506139e3565b6139d182613912565b60208401016040528296505050505050505b90565b6139ef816136cb565b81146139fa57600080fd5b50565b613a06816136ef565b8114613a1157600080fd5b50565b613a1d816136fb565b8114613a2857600080fd5b50565b613a3481613727565b8114613a3f57600080fd5b50565b613a4b81613759565b8114613a5657600080fd5b5056fea2646970667358221220bd8f87cda19a583db12b81921b7dee97df935a60b1461d528bfeb94825a6578064736f6c63430008000033",
  "linkReferences": {},
  "deployedLinkReferences": {}
}