{
  "_format": "hh-sol-artifact-1",
  "contractName": "SampleContract",
  "sourceName": "contracts/SampleContract.sol",
  "abi": [
    {
      "anonymous": false,
      "inputs": [
        {
          "indexed": false,
          "internalType": "string",
          "name": "message",
          "type": "string"
        }
      ],
      "name": "Greet",
      "type": "event"
    },
    {
      "inputs": [],
      "name": "greet",
      "outputs": [],
      "stateMutability": "nonpayable",
      "type": "function"
    }
  ],
  "bytecode": "0x608060405234801561001057600080fd5b5061010d806100206000396000f3fe6080604052348015600f57600080fd5b506004361060285760003560e01c8063cfae321714602d575b600080fd5b60336035565b005b7fefdeaaf566f7751d16a12c7fa8909eb74120f42cba334d07dd5246c48f1fba8160405160609060a8565b60405180910390a1565b60006075600c8360c6565b91507f48656c6c6f20576f726c642100000000000000000000000000000000000000006000830152602082019050919050565b6000602082019050818103600083015260bf81606a565b9050919050565b60008282526020820190509291505056fea26469706673582212200a84cca8b9e080ec4558e4ff3cbbe23afb5c86a731bf7ff9e6935459e2fb992464736f6c63430008000033",
  "linkReferences": {},
  "deployedLinkReferences": {}
}